{
  "_format": "hh-sol-artifact-1",
  "contractName": "RockPaperScissors",
  "sourceName": "contracts/RockPaperScissors.sol",
  "abi": [
    {
      "inputs": [
        {
          "internalType": "string",
          "name": "_name",
          "type": "string"
        },
        {
          "internalType": "string",
          "name": "_symbol",
          "type": "string"
        },
        {
          "internalType": "uint256",
          "name": "_feeInTokens",
          "type": "uint256"
        }
      ],
      "stateMutability": "nonpayable",
      "type": "constructor"
    },
    {
      "anonymous": false,
      "inputs": [
        {
          "indexed": true,
          "internalType": "address",
          "name": "owner",
          "type": "address"
        },
        {
          "indexed": true,
          "internalType": "address",
          "name": "spender",
          "type": "address"
        },
        {
          "indexed": false,
          "internalType": "uint256",
          "name": "value",
          "type": "uint256"
        }
      ],
      "name": "Approval",
      "type": "event"
    },
    {
      "anonymous": false,
      "inputs": [
        {
          "indexed": true,
          "internalType": "address",
          "name": "sender",
          "type": "address"
        },
        {
          "indexed": true,
          "internalType": "bytes32",
          "name": "gameId",
          "type": "bytes32"
        }
      ],
      "name": "GameCancelled",
      "type": "event"
    },
    {
      "anonymous": false,
      "inputs": [
        {
          "indexed": true,
          "internalType": "address",
          "name": "player",
          "type": "address"
        },
        {
          "indexed": true,
          "internalType": "bytes32",
          "name": "gameId",
          "type": "bytes32"
        },
        {
          "indexed": true,
          "internalType": "address",
          "name": "opponent",
          "type": "address"
        },
        {
          "indexed": false,
          "internalType": "uint256",
          "name": "playerWager",
          "type": "uint256"
        },
        {
          "indexed": false,
          "internalType": "uint256",
          "name": "deadlineToJoin",
          "type": "uint256"
        }
      ],
      "name": "GameCreated",
      "type": "event"
    },
    {
      "anonymous": false,
      "inputs": [
        {
          "indexed": false,
          "internalType": "bytes32",
          "name": "gameId",
          "type": "bytes32"
        },
        {
          "indexed": false,
          "internalType": "enum RockPaperScissors.Shape",
          "name": "opponentMove",
          "type": "uint8"
        },
        {
          "indexed": false,
          "internalType": "uint256",
          "name": "opponentWager",
          "type": "uint256"
        },
        {
          "indexed": false,
          "internalType": "uint256",
          "name": "deadlineToReveal",
          "type": "uint256"
        }
      ],
      "name": "GameJoined",
      "type": "event"
    },
    {
      "anonymous": false,
      "inputs": [
        {
          "indexed": true,
          "internalType": "address",
          "name": "owner",
          "type": "address"
        }
      ],
      "name": "KillContract",
      "type": "event"
    },
    {
      "anonymous": false,
      "inputs": [
        {
          "indexed": true,
          "internalType": "address",
          "name": "sender",
          "type": "address"
        },
        {
          "indexed": true,
          "internalType": "bytes32",
          "name": "gameId",
          "type": "bytes32"
        },
        {
          "indexed": false,
          "internalType": "enum RockPaperScissors.Shape",
          "name": "playerMove",
          "type": "uint8"
        },
        {
          "indexed": false,
          "internalType": "enum RockPaperScissors.Payoff",
          "name": "payoff",
          "type": "uint8"
        }
      ],
      "name": "MoveRevealed",
      "type": "event"
    },
    {
      "anonymous": false,
      "inputs": [
        {
          "indexed": true,
          "internalType": "address",
          "name": "previousOwner",
          "type": "address"
        },
        {
          "indexed": true,
          "internalType": "address",
          "name": "newOwner",
          "type": "address"
        }
      ],
      "name": "OwnershipTransferred",
      "type": "event"
    },
    {
      "anonymous": false,
      "inputs": [
        {
          "indexed": true,
          "internalType": "address",
          "name": "sender",
          "type": "address"
        },
        {
          "indexed": false,
          "internalType": "uint256",
          "name": "secondsUntilReveal",
          "type": "uint256"
        }
      ],
      "name": "SecondsUntilRevealUpdated",
      "type": "event"
    },
    {
      "anonymous": false,
      "inputs": [
        {
          "indexed": true,
          "internalType": "address",
          "name": "sender",
          "type": "address"
        },
        {
          "indexed": true,
          "internalType": "bytes32",
          "name": "gameId",
          "type": "bytes32"
        }
      ],
      "name": "TotalWageredClaimed",
      "type": "event"
    },
    {
      "anonymous": false,
      "inputs": [
        {
          "indexed": true,
          "internalType": "address",
          "name": "from",
          "type": "address"
        },
        {
          "indexed": true,
          "internalType": "address",
          "name": "to",
          "type": "address"
        },
        {
          "indexed": false,
          "internalType": "uint256",
          "name": "value",
          "type": "uint256"
        }
      ],
      "name": "Transfer",
      "type": "event"
    },
    {
      "inputs": [
        {
          "internalType": "address",
          "name": "owner",
          "type": "address"
        },
        {
          "internalType": "address",
          "name": "spender",
          "type": "address"
        }
      ],
      "name": "allowance",
      "outputs": [
        {
          "internalType": "uint256",
          "name": "",
          "type": "uint256"
        }
      ],
      "stateMutability": "view",
      "type": "function"
    },
    {
      "inputs": [
        {
          "internalType": "address",
          "name": "spender",
          "type": "address"
        },
        {
          "internalType": "uint256",
          "name": "amount",
          "type": "uint256"
        }
      ],
      "name": "approve",
      "outputs": [
        {
          "internalType": "bool",
          "name": "",
          "type": "bool"
        }
      ],
      "stateMutability": "nonpayable",
      "type": "function"
    },
    {
      "inputs": [
        {
          "internalType": "address",
          "name": "account",
          "type": "address"
        }
      ],
      "name": "balanceOf",
      "outputs": [
        {
          "internalType": "uint256",
          "name": "",
          "type": "uint256"
        }
      ],
      "stateMutability": "view",
      "type": "function"
    },
    {
      "inputs": [
        {
          "internalType": "bytes32",
          "name": "gameId",
          "type": "bytes32"
        }
      ],
      "name": "cancelGame",
      "outputs": [],
      "stateMutability": "nonpayable",
      "type": "function"
    },
    {
      "inputs": [
        {
          "internalType": "bytes32",
          "name": "gameId",
          "type": "bytes32"
        }
      ],
      "name": "claimTotalWagered",
      "outputs": [],
      "stateMutability": "nonpayable",
      "type": "function"
    },
    {
      "inputs": [
        {
          "internalType": "bytes32",
          "name": "gameId",
          "type": "bytes32"
        },
        {
          "internalType": "address",
          "name": "opponent",
          "type": "address"
        },
        {
          "internalType": "uint256",
          "name": "minutesLeftToJoin",
          "type": "uint256"
        },
        {
          "internalType": "uint256",
          "name": "wager",
          "type": "uint256"
        },
        {
          "internalType": "bool",
          "name": "useWinnings",
          "type": "bool"
        }
      ],
      "name": "createGame",
      "outputs": [],
      "stateMutability": "nonpayable",
      "type": "function"
    },
    {
      "inputs": [],
      "name": "decimals",
      "outputs": [
        {
          "internalType": "uint8",
          "name": "",
          "type": "uint8"
        }
      ],
      "stateMutability": "pure",
      "type": "function"
    },
    {
      "inputs": [
        {
          "internalType": "address",
          "name": "spender",
          "type": "address"
        },
        {
          "internalType": "uint256",
          "name": "subtractedValue",
          "type": "uint256"
        }
      ],
      "name": "decreaseAllowance",
      "outputs": [
        {
          "internalType": "bool",
          "name": "",
          "type": "bool"
        }
      ],
      "stateMutability": "nonpayable",
      "type": "function"
    },
    {
      "inputs": [],
      "name": "feeInTokens",
      "outputs": [
        {
          "internalType": "uint256",
          "name": "",
          "type": "uint256"
        }
      ],
      "stateMutability": "view",
      "type": "function"
    },
    {
      "inputs": [
        {
          "internalType": "bytes32",
          "name": "",
          "type": "bytes32"
        }
      ],
      "name": "games",
      "outputs": [
        {
          "internalType": "address",
          "name": "player",
          "type": "address"
        },
        {
          "internalType": "address",
          "name": "opponent",
          "type": "address"
        },
        {
          "internalType": "enum RockPaperScissors.Shape",
          "name": "opponentMove",
          "type": "uint8"
        },
        {
          "internalType": "enum RockPaperScissors.Payoff",
          "name": "payoff",
          "type": "uint8"
        },
        {
          "internalType": "uint256",
          "name": "playerWager",
          "type": "uint256"
        },
        {
          "internalType": "uint256",
          "name": "opponentWager",
          "type": "uint256"
        },
        {
          "internalType": "uint256",
          "name": "deadline",
          "type": "uint256"
        }
      ],
      "stateMutability": "view",
      "type": "function"
    },
    {
      "inputs": [
        {
          "internalType": "enum RockPaperScissors.Shape",
          "name": "move",
          "type": "uint8"
        },
        {
          "internalType": "bytes32",
          "name": "secret",
          "type": "bytes32"
        }
      ],
      "name": "generateGameId",
      "outputs": [
        {
          "internalType": "bytes32",
          "name": "hashedMove",
          "type": "bytes32"
        }
      ],
      "stateMutability": "view",
      "type": "function"
    },
    {
      "inputs": [
        {
          "internalType": "address",
          "name": "spender",
          "type": "address"
        },
        {
          "internalType": "uint256",
          "name": "addedValue",
          "type": "uint256"
        }
      ],
      "name": "increaseAllowance",
      "outputs": [
        {
          "internalType": "bool",
          "name": "",
          "type": "bool"
        }
      ],
      "stateMutability": "nonpayable",
      "type": "function"
    },
    {
      "inputs": [
        {
          "internalType": "bytes32",
          "name": "gameId",
          "type": "bytes32"
        },
        {
          "internalType": "enum RockPaperScissors.Shape",
          "name": "move",
          "type": "uint8"
        },
        {
          "internalType": "uint256",
          "name": "wager",
          "type": "uint256"
        },
        {
          "internalType": "bool",
          "name": "useWinnings",
          "type": "bool"
        }
      ],
      "name": "joinGame",
      "outputs": [],
      "stateMutability": "nonpayable",
      "type": "function"
    },
    {
      "inputs": [],
      "name": "kill",
      "outputs": [],
      "stateMutability": "nonpayable",
      "type": "function"
    },
    {
      "inputs": [],
      "name": "name",
      "outputs": [
        {
          "internalType": "string",
          "name": "",
          "type": "string"
        }
      ],
      "stateMutability": "view",
      "type": "function"
    },
    {
      "inputs": [],
      "name": "owner",
      "outputs": [
        {
          "internalType": "address",
          "name": "",
          "type": "address"
        }
      ],
      "stateMutability": "view",
      "type": "function"
    },
    {
      "inputs": [
        {
          "internalType": "address",
          "name": "",
          "type": "address"
        }
      ],
      "name": "players",
      "outputs": [
        {
          "internalType": "uint32",
          "name": "totalGames",
          "type": "uint32"
        },
        {
          "internalType": "uint32",
          "name": "wins",
          "type": "uint32"
        },
        {
          "internalType": "uint32",
          "name": "losses",
          "type": "uint32"
        },
        {
          "internalType": "uint32",
          "name": "ties",
          "type": "uint32"
        },
        {
          "internalType": "uint256",
          "name": "winnings",
          "type": "uint256"
        }
      ],
      "stateMutability": "view",
      "type": "function"
    },
    {
      "inputs": [],
      "name": "renounceOwnership",
      "outputs": [],
      "stateMutability": "nonpayable",
      "type": "function"
    },
    {
      "inputs": [
        {
          "internalType": "enum RockPaperScissors.Shape",
          "name": "move",
          "type": "uint8"
        },
        {
          "internalType": "bytes32",
          "name": "secret",
          "type": "bytes32"
        }
      ],
      "name": "revealMove",
      "outputs": [],
      "stateMutability": "nonpayable",
      "type": "function"
    },
    {
      "inputs": [],
      "name": "secondsUntilReveal",
      "outputs": [
        {
          "internalType": "uint256",
          "name": "",
          "type": "uint256"
        }
      ],
      "stateMutability": "view",
      "type": "function"
    },
    {
      "inputs": [
        {
          "internalType": "uint256",
          "name": "_feeInTokens",
          "type": "uint256"
        }
      ],
      "name": "setFeeInTokens",
      "outputs": [],
      "stateMutability": "nonpayable",
      "type": "function"
    },
    {
      "inputs": [
        {
          "internalType": "uint256",
          "name": "_secondsUntilReveal",
          "type": "uint256"
        }
      ],
      "name": "setSecondsUntilReveal",
      "outputs": [],
      "stateMutability": "nonpayable",
      "type": "function"
    },
    {
      "inputs": [],
      "name": "symbol",
      "outputs": [
        {
          "internalType": "string",
          "name": "",
          "type": "string"
        }
      ],
      "stateMutability": "view",
      "type": "function"
    },
    {
      "inputs": [],
      "name": "totalSupply",
      "outputs": [
        {
          "internalType": "uint256",
          "name": "",
          "type": "uint256"
        }
      ],
      "stateMutability": "view",
      "type": "function"
    },
    {
      "inputs": [
        {
          "internalType": "address",
          "name": "recipient",
          "type": "address"
        },
        {
          "internalType": "uint256",
          "name": "amount",
          "type": "uint256"
        }
      ],
      "name": "transfer",
      "outputs": [
        {
          "internalType": "bool",
          "name": "",
          "type": "bool"
        }
      ],
      "stateMutability": "nonpayable",
      "type": "function"
    },
    {
      "inputs": [
        {
          "internalType": "address",
          "name": "sender",
          "type": "address"
        },
        {
          "internalType": "address",
          "name": "recipient",
          "type": "address"
        },
        {
          "internalType": "uint256",
          "name": "amount",
          "type": "uint256"
        }
      ],
      "name": "transferFrom",
      "outputs": [
        {
          "internalType": "bool",
          "name": "",
          "type": "bool"
        }
      ],
      "stateMutability": "nonpayable",
      "type": "function"
    },
    {
      "inputs": [
        {
          "internalType": "address",
          "name": "newOwner",
          "type": "address"
        }
      ],
      "name": "transferOwnership",
      "outputs": [],
      "stateMutability": "nonpayable",
      "type": "function"
    }
  ],
  "bytecode": "0x6080604052603c600a55610e10600b55610e10600c5562069780600d553480156200002957600080fd5b50604051620061743803806200617483398181016040528101906200004f919062000785565b82828160039080519060200190620000699291906200064c565b508060049080519060200190620000829291906200064c565b505050620000a5620000996200014360201b60201c565b6200014b60201b60201c565b620000d76040518060800160405280604f8152602001620060ff604f91398484846200021160201b620027cb1760201c565b6200011733620000ec620002bd60201b60201c565b600a620000fa919062000b30565b633b9aca006200010b919062000c6d565b620002c260201b60201c565b62000128816200043b60201b60201c565b6200013a603c620004bf60201b60201c565b50505062000f13565b600033905090565b6000600560009054906101000a900473ffffffffffffffffffffffffffffffffffffffff16905081600560006101000a81548173ffffffffffffffffffffffffffffffffffffffff021916908373ffffffffffffffffffffffffffffffffffffffff1602179055508173ffffffffffffffffffffffffffffffffffffffff168173ffffffffffffffffffffffffffffffffffffffff167f8be0079c531659141344cd1fd0a4f28419497f9722a3daafe3b4186f6b6457e060405160405180910390a35050565b620002b7848484846040516024016200022e9493929190620008d4565b6040516020818303038152906040527f9fd009f5000000000000000000000000000000000000000000000000000000007bffffffffffffffffffffffffffffffffffffffffffffffffffffffff19166020820180517bffffffffffffffffffffffffffffffffffffffffffffffffffffffff83818316178352505050506200057060201b60201c565b50505050565b600090565b600073ffffffffffffffffffffffffffffffffffffffff168273ffffffffffffffffffffffffffffffffffffffff16141562000335576040517f08c379a00000000000000000000000000000000000000000000000000000000081526004016200032c90620009be565b60405180910390fd5b62000349600083836200059960201b60201c565b80600260008282546200035d919062000a78565b92505081905550806000808473ffffffffffffffffffffffffffffffffffffffff1673ffffffffffffffffffffffffffffffffffffffff1681526020019081526020016000206000828254620003b4919062000a78565b925050819055508173ffffffffffffffffffffffffffffffffffffffff16600073ffffffffffffffffffffffffffffffffffffffff167fddf252ad1be2c89b69c2b068fc378daa952ba7f163c4a11628f55a4df523b3ef836040516200041b9190620009e0565b60405180910390a362000437600083836200059e60201b60201c565b5050565b600081101562000482576040517f08c379a000000000000000000000000000000000000000000000000000000000815260040162000479906200097a565b60405180910390fd5b620004b56040518060600160405280602681526020016200614e6026913960085483620005a360201b6200286d1760201c565b8060088190555050565b80600a5411158015620004d45750600b548111155b62000516576040517f08c379a00000000000000000000000000000000000000000000000000000000081526004016200050d906200099c565b60405180910390fd5b806009819055503373ffffffffffffffffffffffffffffffffffffffff167f45120568781a9d44303daca283d52567e7bd8f28ec2ae25c34bcf57d2f1487d982604051620005659190620009e0565b60405180910390a250565b60008151905060006a636f6e736f6c652e6c6f679050602083016000808483855afa5050505050565b505050565b505050565b62000647838383604051602401620005be9392919062000936565b6040516020818303038152906040527f969cdd03000000000000000000000000000000000000000000000000000000007bffffffffffffffffffffffffffffffffffffffffffffffffffffffff19166020820180517bffffffffffffffffffffffffffffffffffffffffffffffffffffffff83818316178352505050506200057060201b60201c565b505050565b8280546200065a9062000d1b565b90600052602060002090601f0160209004810192826200067e5760008555620006ca565b82601f106200069957805160ff1916838001178555620006ca565b82800160010185558215620006ca579182015b82811115620006c9578251825591602001919060010190620006ac565b5b509050620006d99190620006dd565b5090565b5b80821115620006f8576000816000905550600101620006de565b5090565b6000620007136200070d8462000a26565b620009fd565b9050828152602081018484840111156200072c57600080fd5b6200073984828562000ce5565b509392505050565b600082601f8301126200075357600080fd5b815162000765848260208601620006fc565b91505092915050565b6000815190506200077f8162000ef9565b92915050565b6000806000606084860312156200079b57600080fd5b600084015167ffffffffffffffff811115620007b657600080fd5b620007c48682870162000741565b935050602084015167ffffffffffffffff811115620007e257600080fd5b620007f08682870162000741565b925050604062000803868287016200076e565b9150509250925092565b60006200081a8262000a5c565b62000826818562000a67565b93506200083881856020860162000ce5565b620008438162000e14565b840191505092915050565b60006200085d60208362000a67565b91506200086a8262000e32565b602082019050919050565b600062000884605a8362000a67565b9150620008918262000e5b565b606082019050919050565b6000620008ab601f8362000a67565b9150620008b88262000ed0565b602082019050919050565b620008ce8162000cce565b82525050565b60006080820190508181036000830152620008f081876200080d565b905081810360208301526200090681866200080d565b905081810360408301526200091c81856200080d565b90506200092d6060830184620008c3565b95945050505050565b600060608201905081810360008301526200095281866200080d565b9050620009636020830185620008c3565b620009726040830184620008c3565b949350505050565b6000602082019050818103600083015262000995816200084e565b9050919050565b60006020820190508181036000830152620009b78162000875565b9050919050565b60006020820190508181036000830152620009d9816200089c565b9050919050565b6000602082019050620009f76000830184620008c3565b92915050565b600062000a0962000a1c565b905062000a17828262000d51565b919050565b6000604051905090565b600067ffffffffffffffff82111562000a445762000a4362000de5565b5b62000a4f8262000e14565b9050602081019050919050565b600081519050919050565b600082825260208201905092915050565b600062000a858262000cce565b915062000a928362000cce565b9250827fffffffffffffffffffffffffffffffffffffffffffffffffffffffffffffffff0382111562000aca5762000ac962000d87565b5b828201905092915050565b6000808291508390505b600185111562000b275780860481111562000aff5762000afe62000d87565b5b600185161562000b0f5780820291505b808102905062000b1f8562000e25565b945062000adf565b94509492505050565b600062000b3d8262000cce565b915062000b4a8362000cd8565b925062000b797fffffffffffffffffffffffffffffffffffffffffffffffffffffffffffffffff848462000b81565b905092915050565b60008262000b93576001905062000c66565b8162000ba3576000905062000c66565b816001811462000bbc576002811462000bc75762000bfd565b600191505062000c66565b60ff84111562000bdc5762000bdb62000d87565b5b8360020a91508482111562000bf65762000bf562000d87565b5b5062000c66565b5060208310610133831016604e8410600b841016171562000c375782820a90508381111562000c315762000c3062000d87565b5b62000c66565b62000c46848484600162000ad5565b9250905081840481111562000c605762000c5f62000d87565b5b81810290505b9392505050565b600062000c7a8262000cce565b915062000c878362000cce565b9250817fffffffffffffffffffffffffffffffffffffffffffffffffffffffffffffffff048311821515161562000cc35762000cc262000d87565b5b828202905092915050565b6000819050919050565b600060ff82169050919050565b60005b8381101562000d0557808201518184015260208101905062000ce8565b8381111562000d15576000848401525b50505050565b6000600282049050600182168062000d3457607f821691505b6020821081141562000d4b5762000d4a62000db6565b5b50919050565b62000d5c8262000e14565b810181811067ffffffffffffffff8211171562000d7e5762000d7d62000de5565b5b80604052505050565b7f4e487b7100000000000000000000000000000000000000000000000000000000600052601160045260246000fd5b7f4e487b7100000000000000000000000000000000000000000000000000000000600052602260045260246000fd5b7f4e487b7100000000000000000000000000000000000000000000000000000000600052604160045260246000fd5b6000601f19601f8301169050919050565b60008160011c9050919050565b7f546f6b656e206665652063616e6e6f74206265206c657373207468616e20302e600082015250565b7f506c6561736520656e73757265207365636f6e6473556e74696c52657665616c60008201527f206973206265747765656e207468652061636365707461626c65206d696e202860208201527f36302920616e64206d6178202833363030292076616c7565732e000000000000604082015250565b7f45524332303a206d696e7420746f20746865207a65726f206164647265737300600082015250565b62000f048162000cce565b811462000f1057600080fd5b50565b6151dc8062000f236000396000f3fe608060405234801561001057600080fd5b50600436106101a95760003560e01c80638929c02f116100f9578063b10d281e11610097578063e2eb41ff11610071578063e2eb41ff146104bc578063f2fde38b146104f0578063f3fbc3fe1461050c578063f579f88214610528576101a9565b8063b10d281e14610452578063cc6d1d8314610470578063dd62ed3e1461048c576101a9565b806396b4d685116100d357806396b4d685146103ba578063a457c2d7146103d6578063a8f7d44214610406578063a9059cbb14610422576101a9565b80638929c02f1461034e5780638da5cb5b1461037e57806395d89b411461039c576101a9565b80633557731f1161016657806341c0e1b51161014057806341c0e1b5146102ee57806361b5547e146102f857806370a0823114610314578063715018a614610344576101a9565b80633557731f1461028457806339509351146102a25780633f7121b0146102d2576101a9565b806306fdde03146101ae578063095ea7b3146101cc57806309651cdb146101fc57806318160ddd1461021857806323b872dd14610236578063313ce56714610266575b600080fd5b6101b661055e565b6040516101c39190613cee565b60405180910390f35b6101e660048036038101906101e191906133ec565b6105f0565b6040516101f39190613c4a565b60405180910390f35b61021660048036038101906102119190613590565b61060e565b005b610220610696565b60405161022d91906141f8565b60405180910390f35b610250600480360381019061024b919061339d565b6106a0565b60405161025d9190613c4a565b60405180910390f35b61026e610798565b60405161027b919061428f565b60405180910390f35b61028c61079d565b60405161029991906141f8565b60405180910390f35b6102bc60048036038101906102b791906133ec565b6107a3565b6040516102c99190613c4a565b60405180910390f35b6102ec60048036038101906102e79190613451565b61084f565b005b6102f6610ae7565b005b610312600480360381019061030d919061347a565b610bcb565b005b61032e60048036038101906103299190613338565b610f37565b60405161033b91906141f8565b60405180910390f35b61034c610f7f565b005b61036860048036038101906103639190613554565b611007565b6040516103759190613c65565b60405180910390f35b610386611161565b6040516103939190613b97565b60405180910390f35b6103a461118b565b6040516103b19190613cee565b60405180910390f35b6103d460048036038101906103cf9190613451565b61121d565b005b6103f060048036038101906103eb91906133ec565b6114c5565b6040516103fd9190613c4a565b60405180910390f35b610420600480360381019061041b9190613554565b6115b0565b005b61043c600480360381019061043791906133ec565b61206c565b6040516104499190613c4a565b60405180910390f35b61045a61208a565b60405161046791906141f8565b60405180910390f35b61048a60048036038101906104859190613590565b612090565b005b6104a660048036038101906104a19190613361565b612118565b6040516104b391906141f8565b60405180910390f35b6104d660048036038101906104d19190613338565b61219f565b6040516104e795949392919061423c565b60405180910390f35b61050a60048036038101906105059190613338565b612215565b005b610526600480360381019061052191906134f1565b61230d565b005b610542600480360381019061053d9190613451565b61272f565b6040516105559796959493929190613bb2565b60405180910390f35b60606003805461056d906144ba565b80601f0160208091040260200160405190810160405280929190818152602001828054610599906144ba565b80156105e65780601f106105bb576101008083540402835291602001916105e6565b820191906000526020600020905b8154815290600101906020018083116105c957829003601f168201915b5050505050905090565b60006106046105fd61290c565b8484612914565b6001905092915050565b61061661290c565b73ffffffffffffffffffffffffffffffffffffffff16610634611161565b73ffffffffffffffffffffffffffffffffffffffff161461068a576040517f08c379a000000000000000000000000000000000000000000000000000000000815260040161068190614078565b60405180910390fd5b61069381612adf565b50565b6000600254905090565b60006106ad848484612b52565b6000600160008673ffffffffffffffffffffffffffffffffffffffff1673ffffffffffffffffffffffffffffffffffffffff16815260200190815260200160002060006106f861290c565b73ffffffffffffffffffffffffffffffffffffffff1673ffffffffffffffffffffffffffffffffffffffff16815260200190815260200160002054905082811015610778576040517f08c379a000000000000000000000000000000000000000000000000000000000815260040161076f90614058565b60405180910390fd5b61078c8561078461290c565b858403612914565b60019150509392505050565b600090565b60095481565b60006108456107b061290c565b8484600160006107be61290c565b73ffffffffffffffffffffffffffffffffffffffff1673ffffffffffffffffffffffffffffffffffffffff16815260200190815260200160002060008873ffffffffffffffffffffffffffffffffffffffff1673ffffffffffffffffffffffffffffffffffffffff1681526020019081526020016000205461084091906142c6565b612914565b6001905092915050565b600060066000838152602001908152602001600020905060008160000160009054906101000a900473ffffffffffffffffffffffffffffffffffffffff169050600073ffffffffffffffffffffffffffffffffffffffff168173ffffffffffffffffffffffffffffffffffffffff1614156108ff576040517f08c379a00000000000000000000000000000000000000000000000000000000081526004016108f690613fd8565b60405180910390fd5b3373ffffffffffffffffffffffffffffffffffffffff168173ffffffffffffffffffffffffffffffffffffffff161461096d576040517f08c379a000000000000000000000000000000000000000000000000000000000815260040161096490613fb8565b60405180910390fd5b600060038111156109a7577f4e487b7100000000000000000000000000000000000000000000000000000000600052602160045260246000fd5b8260010160149054906101000a900460ff1660038111156109f1577f4e487b7100000000000000000000000000000000000000000000000000000000600052602160045260246000fd5b14610a31576040517f08c379a0000000000000000000000000000000000000000000000000000000008152600401610a2890613f18565b60405180910390fd5b42826004015410610a77576040517f08c379a0000000000000000000000000000000000000000000000000000000008152600401610a6e90614178565b60405180910390fd5b600082600201549050610a8984612dd3565b6000811115610a9d57610a9c8282612ea3565b5b833373ffffffffffffffffffffffffffffffffffffffff167f446c14486e35961084570d43d2b5f86421f0d1f28709d612150f2660fa8eb7e760405160405180910390a350505050565b610aef61290c565b73ffffffffffffffffffffffffffffffffffffffff16610b0d611161565b73ffffffffffffffffffffffffffffffffffffffff1614610b63576040517f08c379a0000000000000000000000000000000000000000000000000000000008152600401610b5a90614078565b60405180910390fd5b6000610b6d611161565b90508073ffffffffffffffffffffffffffffffffffffffff167fb0da82b42ce84fb762f70bf2ebd4bce1b743f863450eb0c902f1e0d0ee45c83660405160405180910390a28073ffffffffffffffffffffffffffffffffffffffff16ff5b600854610bd733610f37565b1015610c18576040517f08c379a0000000000000000000000000000000000000000000000000000000008152600401610c0f906140b8565b60405180910390fd5b600073ffffffffffffffffffffffffffffffffffffffff168473ffffffffffffffffffffffffffffffffffffffff161415610c88576040517f08c379a0000000000000000000000000000000000000000000000000000000008152600401610c7f90614138565b60405180910390fd5b3373ffffffffffffffffffffffffffffffffffffffff168473ffffffffffffffffffffffffffffffffffffffff161415610cf7576040517f08c379a0000000000000000000000000000000000000000000000000000000008152600401610cee90613f98565b60405180910390fd5b6000603c84610d06919061431c565b905080600c5411158015610d1c5750600d548111155b610d5b576040517f08c379a0000000000000000000000000000000000000000000000000000000008152600401610d5290613eb8565b60405180910390fd5b6000600660008881526020019081526020016000209050600073ffffffffffffffffffffffffffffffffffffffff168160000160009054906101000a900473ffffffffffffffffffffffffffffffffffffffff1673ffffffffffffffffffffffffffffffffffffffff1614610e05576040517f08c379a0000000000000000000000000000000000000000000000000000000008152600401610dfc90613f78565b60405180910390fd5b338160000160006101000a81548173ffffffffffffffffffffffffffffffffffffffff021916908373ffffffffffffffffffffffffffffffffffffffff160217905550858160010160006101000a81548173ffffffffffffffffffffffffffffffffffffffff021916908373ffffffffffffffffffffffffffffffffffffffff160217905550610e96338585612f35565b9350610ea2308561206c565b5083816002018190555060008242610eba91906142c6565b90508082600401819055508673ffffffffffffffffffffffffffffffffffffffff16883373ffffffffffffffffffffffffffffffffffffffff167fae7ef1cccc943459691ffb6d7d7ae5654a190dc507f91fd8214782f6ffa9db7f8885604051610f25929190614213565b60405180910390a45050505050505050565b60008060008373ffffffffffffffffffffffffffffffffffffffff1673ffffffffffffffffffffffffffffffffffffffff168152602001908152602001600020549050919050565b610f8761290c565b73ffffffffffffffffffffffffffffffffffffffff16610fa5611161565b73ffffffffffffffffffffffffffffffffffffffff1614610ffb576040517f08c379a0000000000000000000000000000000000000000000000000000000008152600401610ff290614078565b60405180910390fd5b611005600061307a565b565b60008073ffffffffffffffffffffffffffffffffffffffff163373ffffffffffffffffffffffffffffffffffffffff161415611078576040517f08c379a000000000000000000000000000000000000000000000000000000000815260040161106f90613dd8565b60405180910390fd5b600060038111156110b2577f4e487b7100000000000000000000000000000000000000000000000000000000600052602160045260246000fd5b8360038111156110eb577f4e487b7100000000000000000000000000000000000000000000000000000000600052602160045260246000fd5b141561112c576040517f08c379a000000000000000000000000000000000000000000000000000000000815260040161112390613df8565b60405180910390fd5b303384846040516020016111439493929190613b49565b60405160208183030381529060405280519060200120905092915050565b6000600560009054906101000a900473ffffffffffffffffffffffffffffffffffffffff16905090565b60606004805461119a906144ba565b80601f01602080910402602001604051908101604052809291908181526020018280546111c6906144ba565b80156112135780601f106111e857610100808354040283529160200191611213565b820191906000526020600020905b8154815290600101906020018083116111f657829003601f168201915b5050505050905090565b6000600660008381526020019081526020016000209050600073ffffffffffffffffffffffffffffffffffffffff168160000160009054906101000a900473ffffffffffffffffffffffffffffffffffffffff1673ffffffffffffffffffffffffffffffffffffffff1614156112c8576040517f08c379a00000000000000000000000000000000000000000000000000000000081526004016112bf906140f8565b60405180910390fd5b60006003811115611302577f4e487b7100000000000000000000000000000000000000000000000000000000600052602160045260246000fd5b8160010160149054906101000a900460ff16600381111561134c577f4e487b7100000000000000000000000000000000000000000000000000000000600052602160045260246000fd5b141561138d576040517f08c379a000000000000000000000000000000000000000000000000000000000815260040161138490613e38565b60405180910390fd5b428160040154106113d3576040517f08c379a00000000000000000000000000000000000000000000000000000000081526004016113ca90614018565b60405180910390fd5b6000816003015482600201546113e991906142c6565b905060008260010160009054906101000a900473ffffffffffffffffffffffffffffffffffffffff16905060048360010160156101000a81548160ff02191690836004811115611462577f4e487b7100000000000000000000000000000000000000000000000000000000600052602160045260246000fd5b0217905550600082111561147b5761147a8183612ea3565b5b833373ffffffffffffffffffffffffffffffffffffffff167f9f870fb214082619510b2d8f37009c3da1d7ad5473b5853c0ad88663d18c70ad60405160405180910390a350505050565b600080600160006114d461290c565b73ffffffffffffffffffffffffffffffffffffffff1673ffffffffffffffffffffffffffffffffffffffff16815260200190815260200160002060008573ffffffffffffffffffffffffffffffffffffffff1673ffffffffffffffffffffffffffffffffffffffff16815260200190815260200160002054905082811015611591576040517f08c379a0000000000000000000000000000000000000000000000000000000008152600401611588906141b8565b60405180910390fd5b6115a561159c61290c565b85858403612914565b600191505092915050565b60006115bc8383611007565b9050600060066000838152602001908152602001600020905060008160000160009054906101000a900473ffffffffffffffffffffffffffffffffffffffff169050600073ffffffffffffffffffffffffffffffffffffffff168173ffffffffffffffffffffffffffffffffffffffff16141561166e576040517f08c379a000000000000000000000000000000000000000000000000000000000815260040161166590613f38565b60405180910390fd5b60008260010160149054906101000a900460ff169050600060038111156116be577f4e487b7100000000000000000000000000000000000000000000000000000000600052602160045260246000fd5b8160038111156116f7577f4e487b7100000000000000000000000000000000000000000000000000000000600052602160045260246000fd5b1415611738576040517f08c379a000000000000000000000000000000000000000000000000000000000815260040161172f90613f58565b60405180910390fd5b6117776040518060400160405280601581526020017f426c6f636b2074696d657374616d70206973202564000000000000000000000081525042613140565b6117ba6040518060400160405280601381526020017f47616d6520646561646c696e65206973202564000000000000000000000000008152508460040154613140565b8260040154421115611801576040517f08c379a00000000000000000000000000000000000000000000000000000000081526004016117f890613e98565b60405180910390fd5b6000836002015490506000846003015490506000818361182191906142c6565b905060008660010160009054906101000a900473ffffffffffffffffffffffffffffffffffffffff16905060006001600387600381111561188b577f4e487b7100000000000000000000000000000000000000000000000000000000600052602160045260246000fd5b8d60038111156118c4577f4e487b7100000000000000000000000000000000000000000000000000000000600052602160045260246000fd5b60036118d091906142c6565b6118da9190614376565b6118e49190614559565b6118ee91906142c6565b6004811115611926577f4e487b7100000000000000000000000000000000000000000000000000000000600052602160045260246000fd5b9050808860010160156101000a81548160ff02191690836004811115611975577f4e487b7100000000000000000000000000000000000000000000000000000000600052602160045260246000fd5b0217905550600160048111156119b4577f4e487b7100000000000000000000000000000000000000000000000000000000600052602160045260246000fd5b8160048111156119ed577f4e487b7100000000000000000000000000000000000000000000000000000000600052602160045260246000fd5b1415611b0e576119fd8786612ea3565b611a078285612ea3565b600760008873ffffffffffffffffffffffffffffffffffffffff1673ffffffffffffffffffffffffffffffffffffffff168152602001908152602001600020600001600c81819054906101000a900463ffffffff1680929190611a69906144ec565b91906101000a81548163ffffffff021916908363ffffffff16021790555050600760008373ffffffffffffffffffffffffffffffffffffffff1673ffffffffffffffffffffffffffffffffffffffff168152602001908152602001600020600001600c81819054906101000a900463ffffffff1680929190611aea906144ec565b91906101000a81548163ffffffff021916908363ffffffff16021790555050611f0c565b60026004811115611b48577f4e487b7100000000000000000000000000000000000000000000000000000000600052602160045260246000fd5b816004811115611b81577f4e487b7100000000000000000000000000000000000000000000000000000000600052602160045260246000fd5b1415611cf157611b918784612ea3565b600760008873ffffffffffffffffffffffffffffffffffffffff1673ffffffffffffffffffffffffffffffffffffffff168152602001908152602001600020600001600481819054906101000a900463ffffffff1680929190611bf3906144ec565b91906101000a81548163ffffffff021916908363ffffffff1602179055505082600760008973ffffffffffffffffffffffffffffffffffffffff1673ffffffffffffffffffffffffffffffffffffffff1681526020019081526020016000206001016000828254611c6491906142c6565b92505081905550600760008373ffffffffffffffffffffffffffffffffffffffff1673ffffffffffffffffffffffffffffffffffffffff168152602001908152602001600020600001600881819054906101000a900463ffffffff1680929190611ccd906144ec565b91906101000a81548163ffffffff021916908363ffffffff16021790555050611f0b565b60036004811115611d2b577f4e487b7100000000000000000000000000000000000000000000000000000000600052602160045260246000fd5b816004811115611d64577f4e487b7100000000000000000000000000000000000000000000000000000000600052602160045260246000fd5b1415611ed457611d748284612ea3565b600760008373ffffffffffffffffffffffffffffffffffffffff1673ffffffffffffffffffffffffffffffffffffffff168152602001908152602001600020600001600481819054906101000a900463ffffffff1680929190611dd6906144ec565b91906101000a81548163ffffffff021916908363ffffffff1602179055505082600760008473ffffffffffffffffffffffffffffffffffffffff1673ffffffffffffffffffffffffffffffffffffffff1681526020019081526020016000206001016000828254611e4791906142c6565b92505081905550600760008873ffffffffffffffffffffffffffffffffffffffff1673ffffffffffffffffffffffffffffffffffffffff168152602001908152602001600020600001600881819054906101000a900463ffffffff1680929190611eb0906144ec565b91906101000a81548163ffffffff021916908363ffffffff16021790555050611f0a565b6000611f09577f4e487b7100000000000000000000000000000000000000000000000000000000600052600160045260246000fd5b5b5b5b600760008873ffffffffffffffffffffffffffffffffffffffff1673ffffffffffffffffffffffffffffffffffffffff168152602001908152602001600020600001600081819054906101000a900463ffffffff1680929190611f6e906144ec565b91906101000a81548163ffffffff021916908363ffffffff16021790555050600760008373ffffffffffffffffffffffffffffffffffffffff1673ffffffffffffffffffffffffffffffffffffffff168152602001908152602001600020600001600081819054906101000a900463ffffffff1680929190611fef906144ec565b91906101000a81548163ffffffff021916908363ffffffff16021790555050883373ffffffffffffffffffffffffffffffffffffffff167f822c7517d2fff3bb3f5d2335f2b88bdc22fc0bc73c4267ac62928bcf60738cd88d84604051612057929190613cc5565b60405180910390a35050505050505050505050565b600061208061207961290c565b8484612b52565b6001905092915050565b60085481565b61209861290c565b73ffffffffffffffffffffffffffffffffffffffff166120b6611161565b73ffffffffffffffffffffffffffffffffffffffff161461210c576040517f08c379a000000000000000000000000000000000000000000000000000000000815260040161210390614078565b60405180910390fd5b612115816131dc565b50565b6000600160008473ffffffffffffffffffffffffffffffffffffffff1673ffffffffffffffffffffffffffffffffffffffff16815260200190815260200160002060008373ffffffffffffffffffffffffffffffffffffffff1673ffffffffffffffffffffffffffffffffffffffff16815260200190815260200160002054905092915050565b60076020528060005260406000206000915090508060000160009054906101000a900463ffffffff16908060000160049054906101000a900463ffffffff16908060000160089054906101000a900463ffffffff169080600001600c9054906101000a900463ffffffff16908060010154905085565b61221d61290c565b73ffffffffffffffffffffffffffffffffffffffff1661223b611161565b73ffffffffffffffffffffffffffffffffffffffff1614612291576040517f08c379a000000000000000000000000000000000000000000000000000000000815260040161228890614078565b60405180910390fd5b600073ffffffffffffffffffffffffffffffffffffffff168173ffffffffffffffffffffffffffffffffffffffff161415612301576040517f08c379a00000000000000000000000000000000000000000000000000000000081526004016122f890613e58565b60405180910390fd5b61230a8161307a565b50565b60085461231933610f37565b101561235a576040517f08c379a000000000000000000000000000000000000000000000000000000000815260040161235190613ff8565b60405180910390fd5b60006003811115612394577f4e487b7100000000000000000000000000000000000000000000000000000000600052602160045260246000fd5b8360038111156123cd577f4e487b7100000000000000000000000000000000000000000000000000000000600052602160045260246000fd5b141561240e576040517f08c379a000000000000000000000000000000000000000000000000000000000815260040161240590613df8565b60405180910390fd5b6000600660008681526020019081526020016000209050600073ffffffffffffffffffffffffffffffffffffffff168160000160009054906101000a900473ffffffffffffffffffffffffffffffffffffffff1673ffffffffffffffffffffffffffffffffffffffff1614156124b9576040517f08c379a00000000000000000000000000000000000000000000000000000000081526004016124b090613fd8565b60405180910390fd5b60008160010160009054906101000a900473ffffffffffffffffffffffffffffffffffffffff1690503373ffffffffffffffffffffffffffffffffffffffff168173ffffffffffffffffffffffffffffffffffffffff1614612550576040517f08c379a0000000000000000000000000000000000000000000000000000000008152600401612547906141d8565b60405180910390fd5b6000600381111561258a577f4e487b7100000000000000000000000000000000000000000000000000000000600052602160045260246000fd5b8260010160149054906101000a900460ff1660038111156125d4577f4e487b7100000000000000000000000000000000000000000000000000000000600052602160045260246000fd5b14612614576040517f08c379a000000000000000000000000000000000000000000000000000000000815260040161260b90614158565b60405180910390fd5b816004015442111561265b576040517f08c379a000000000000000000000000000000000000000000000000000000000815260040161265290613ed8565b60405180910390fd5b848260010160146101000a81548160ff021916908360038111156126a8577f4e487b7100000000000000000000000000000000000000000000000000000000600052602160045260246000fd5b02179055506126b8338585612f35565b93506126c4308561206c565b508382600301819055506000600954426126de91906142c6565b90508083600401819055507fbea699eabb9f35117986c8b673afc934d08142bce1d6183cac985fea93e871818787878460405161271e9493929190613c80565b60405180910390a150505050505050565b60066020528060005260406000206000915090508060000160009054906101000a900473ffffffffffffffffffffffffffffffffffffffff16908060010160009054906101000a900473ffffffffffffffffffffffffffffffffffffffff16908060010160149054906101000a900460ff16908060010160159054906101000a900460ff16908060020154908060030154908060040154905087565b612867848484846040516024016127e59493929190613d10565b6040516020818303038152906040527f9fd009f5000000000000000000000000000000000000000000000000000000007bffffffffffffffffffffffffffffffffffffffffffffffffffffffff19166020820180517bffffffffffffffffffffffffffffffffffffffffffffffffffffffff8381831617835250505050613287565b50505050565b61290783838360405160240161288593929190613d9a565b6040516020818303038152906040527f969cdd03000000000000000000000000000000000000000000000000000000007bffffffffffffffffffffffffffffffffffffffffffffffffffffffff19166020820180517bffffffffffffffffffffffffffffffffffffffffffffffffffffffff8381831617835250505050613287565b505050565b600033905090565b600073ffffffffffffffffffffffffffffffffffffffff168373ffffffffffffffffffffffffffffffffffffffff161415612984576040517f08c379a000000000000000000000000000000000000000000000000000000000815260040161297b90614118565b60405180910390fd5b600073ffffffffffffffffffffffffffffffffffffffff168273ffffffffffffffffffffffffffffffffffffffff1614156129f4576040517f08c379a00000000000000000000000000000000000000000000000000000000081526004016129eb90613e78565b60405180910390fd5b80600160008573ffffffffffffffffffffffffffffffffffffffff1673ffffffffffffffffffffffffffffffffffffffff16815260200190815260200160002060008473ffffffffffffffffffffffffffffffffffffffff1673ffffffffffffffffffffffffffffffffffffffff168152602001908152602001600020819055508173ffffffffffffffffffffffffffffffffffffffff168373ffffffffffffffffffffffffffffffffffffffff167f8c5be1e5ebec7d5bd14f71427d1e84f3dd0314c0f7b2291e5b200ac8c7c3b92583604051612ad291906141f8565b60405180910390a3505050565b6000811015612b23576040517f08c379a0000000000000000000000000000000000000000000000000000000008152600401612b1a90614038565b60405180910390fd5b612b48604051806060016040528060268152602001615181602691396008548361286d565b8060088190555050565b600073ffffffffffffffffffffffffffffffffffffffff168373ffffffffffffffffffffffffffffffffffffffff161415612bc2576040517f08c379a0000000000000000000000000000000000000000000000000000000008152600401612bb9906140d8565b60405180910390fd5b600073ffffffffffffffffffffffffffffffffffffffff168273ffffffffffffffffffffffffffffffffffffffff161415612c32576040517f08c379a0000000000000000000000000000000000000000000000000000000008152600401612c2990613e18565b60405180910390fd5b612c3d8383836132b0565b60008060008573ffffffffffffffffffffffffffffffffffffffff1673ffffffffffffffffffffffffffffffffffffffff16815260200190815260200160002054905081811015612cc3576040517f08c379a0000000000000000000000000000000000000000000000000000000008152600401612cba90613ef8565b60405180910390fd5b8181036000808673ffffffffffffffffffffffffffffffffffffffff1673ffffffffffffffffffffffffffffffffffffffff16815260200190815260200160002081905550816000808573ffffffffffffffffffffffffffffffffffffffff1673ffffffffffffffffffffffffffffffffffffffff1681526020019081526020016000206000828254612d5691906142c6565b925050819055508273ffffffffffffffffffffffffffffffffffffffff168473ffffffffffffffffffffffffffffffffffffffff167fddf252ad1be2c89b69c2b068fc378daa952ba7f163c4a11628f55a4df523b3ef84604051612dba91906141f8565b60405180910390a3612dcd8484846132b5565b50505050565b600060066000838152602001908152602001600020905060008160010160006101000a81548173ffffffffffffffffffffffffffffffffffffffff021916908373ffffffffffffffffffffffffffffffffffffffff16021790555060008160010160146101000a81548160ff02191690836003811115612e7c577f4e487b7100000000000000000000000000000000000000000000000000000000600052602160045260246000fd5b02179055506000816002018190555060008160030181905550600081600401819055505050565b3073ffffffffffffffffffffffffffffffffffffffff1663a9059cbb83836040518363ffffffff1660e01b8152600401612ede929190613c21565b602060405180830381600087803b158015612ef857600080fd5b505af1158015612f0c573d6000803e3d6000fd5b505050506040513d601f19601f82011682018060405250810190612f309190613428565b505050565b6000612f4084610f37565b831115612f82576040517f08c379a0000000000000000000000000000000000000000000000000000000008152600401612f7990614098565b60405180910390fd5b8290508115613073576000600760008673ffffffffffffffffffffffffffffffffffffffff1673ffffffffffffffffffffffffffffffffffffffff168152602001908152602001600020600101541180156130275750600760008573ffffffffffffffffffffffffffffffffffffffff1673ffffffffffffffffffffffffffffffffffffffff1681526020019081526020016000206001015461302485610f37565b10155b1561307257600760008573ffffffffffffffffffffffffffffffffffffffff1673ffffffffffffffffffffffffffffffffffffffff1681526020019081526020016000206001015490505b5b9392505050565b6000600560009054906101000a900473ffffffffffffffffffffffffffffffffffffffff16905081600560006101000a81548173ffffffffffffffffffffffffffffffffffffffff021916908373ffffffffffffffffffffffffffffffffffffffff1602179055508173ffffffffffffffffffffffffffffffffffffffff168173ffffffffffffffffffffffffffffffffffffffff167f8be0079c531659141344cd1fd0a4f28419497f9722a3daafe3b4186f6b6457e060405160405180910390a35050565b6131d88282604051602401613156929190613d6a565b6040516020818303038152906040527f9710a9d0000000000000000000000000000000000000000000000000000000007bffffffffffffffffffffffffffffffffffffffffffffffffffffffff19166020820180517bffffffffffffffffffffffffffffffffffffffffffffffffffffffff8381831617835250505050613287565b5050565b80600a54111580156131f05750600b548111155b61322f576040517f08c379a000000000000000000000000000000000000000000000000000000000815260040161322690614198565b60405180910390fd5b806009819055503373ffffffffffffffffffffffffffffffffffffffff167f45120568781a9d44303daca283d52567e7bd8f28ec2ae25c34bcf57d2f1487d98260405161327c91906141f8565b60405180910390a250565b60008151905060006a636f6e736f6c652e6c6f679050602083016000808483855afa5050505050565b505050565b505050565b6000813590506132c981615114565b92915050565b6000813590506132de8161512b565b92915050565b6000815190506132f38161512b565b92915050565b60008135905061330881615142565b92915050565b60008135905061331d81615159565b92915050565b60008135905061333281615169565b92915050565b60006020828403121561334a57600080fd5b6000613358848285016132ba565b91505092915050565b6000806040838503121561337457600080fd5b6000613382858286016132ba565b9250506020613393858286016132ba565b9150509250929050565b6000806000606084860312156133b257600080fd5b60006133c0868287016132ba565b93505060206133d1868287016132ba565b92505060406133e286828701613323565b9150509250925092565b600080604083850312156133ff57600080fd5b600061340d858286016132ba565b925050602061341e85828601613323565b9150509250929050565b60006020828403121561343a57600080fd5b6000613448848285016132e4565b91505092915050565b60006020828403121561346357600080fd5b6000613471848285016132f9565b91505092915050565b600080600080600060a0868803121561349257600080fd5b60006134a0888289016132f9565b95505060206134b1888289016132ba565b94505060406134c288828901613323565b93505060606134d388828901613323565b92505060806134e4888289016132cf565b9150509295509295909350565b6000806000806080858703121561350757600080fd5b6000613515878288016132f9565b94505060206135268782880161330e565b935050604061353787828801613323565b9250506060613548878288016132cf565b91505092959194509250565b6000806040838503121561356757600080fd5b60006135758582860161330e565b9250506020613586858286016132f9565b9150509250929050565b6000602082840312156135a257600080fd5b60006135b084828501613323565b91505092915050565b6135c2816143aa565b82525050565b6135d96135d4826143aa565b614519565b82525050565b6135e8816143bc565b82525050565b6135f7816143c8565b82525050565b61360e613609826143c8565b61452b565b82525050565b6136256136208261443f565b614519565b82525050565b61363481614463565b82525050565b61364381614475565b82525050565b61365a61365582614475565b614547565b82525050565b600061366b826142aa565b61367581856142b5565b9350613685818560208601614487565b61368e81614646565b840191505092915050565b60006136a66017836142b5565b91506136b182614671565b602082019050919050565b60006136c96019836142b5565b91506136d48261469a565b602082019050919050565b60006136ec6023836142b5565b91506136f7826146c3565b604082019050919050565b600061370f6025836142b5565b915061371a82614712565b604082019050919050565b60006137326026836142b5565b915061373d82614761565b604082019050919050565b60006137556022836142b5565b9150613760826147b0565b604082019050919050565b60006137786064836142b5565b9150613783826147ff565b608082019050919050565b600061379b606e836142b5565b91506137a68261489a565b608082019050919050565b60006137be6033836142b5565b91506137c982614935565b604082019050919050565b60006137e16026836142b5565b91506137ec82614984565b604082019050919050565b60006138046045836142b5565b915061380f826149d3565b606082019050919050565b6000613827603e836142b5565b915061383282614a48565b604082019050919050565b600061384a6029836142b5565b915061385582614a97565b604082019050919050565b600061386d604b836142b5565b915061387882614ae6565b606082019050919050565b6000613890603d836142b5565b915061389b82614b5b565b604082019050919050565b60006138b36045836142b5565b91506138be82614baa565b606082019050919050565b60006138d66019836142b5565b91506138e182614c1f565b602082019050919050565b60006138f9602c836142b5565b915061390482614c48565b604082019050919050565b600061391c603a836142b5565b915061392782614c97565b604082019050919050565b600061393f6020836142b5565b915061394a82614ce6565b602082019050919050565b60006139626028836142b5565b915061396d82614d0f565b604082019050919050565b60006139856020836142b5565b915061399082614d5e565b602082019050919050565b60006139a8603a836142b5565b91506139b382614d87565b604082019050919050565b60006139cb602c836142b5565b91506139d682614dd6565b604082019050919050565b60006139ee6025836142b5565b91506139f982614e25565b604082019050919050565b6000613a116018836142b5565b9150613a1c82614e74565b602082019050919050565b6000613a346024836142b5565b9150613a3f82614e9d565b604082019050919050565b6000613a57601d836142b5565b9150613a6282614eec565b602082019050919050565b6000613a7a6033836142b5565b9150613a8582614f15565b604082019050919050565b6000613a9d6026836142b5565b9150613aa882614f64565b604082019050919050565b6000613ac0605a836142b5565b9150613acb82614fb3565b606082019050919050565b6000613ae36025836142b5565b9150613aee82615028565b604082019050919050565b6000613b06604f836142b5565b9150613b1182615077565b606082019050919050565b613b2581614418565b82525050565b613b3481614422565b82525050565b613b4381614432565b82525050565b6000613b558287613614565b601482019150613b6582866135c8565b601482019150613b758285613649565b600182019150613b8582846135fd565b60208201915081905095945050505050565b6000602082019050613bac60008301846135b9565b92915050565b600060e082019050613bc7600083018a6135b9565b613bd460208301896135b9565b613be1604083018861363a565b613bee606083018761362b565b613bfb6080830186613b1c565b613c0860a0830185613b1c565b613c1560c0830184613b1c565b98975050505050505050565b6000604082019050613c3660008301856135b9565b613c436020830184613b1c565b9392505050565b6000602082019050613c5f60008301846135df565b92915050565b6000602082019050613c7a60008301846135ee565b92915050565b6000608082019050613c9560008301876135ee565b613ca2602083018661363a565b613caf6040830185613b1c565b613cbc6060830184613b1c565b95945050505050565b6000604082019050613cda600083018561363a565b613ce7602083018461362b565b9392505050565b60006020820190508181036000830152613d088184613660565b905092915050565b60006080820190508181036000830152613d2a8187613660565b90508181036020830152613d3e8186613660565b90508181036040830152613d528185613660565b9050613d616060830184613b1c565b95945050505050565b60006040820190508181036000830152613d848185613660565b9050613d936020830184613b1c565b9392505050565b60006060820190508181036000830152613db48186613660565b9050613dc36020830185613b1c565b613dd06040830184613b1c565b949350505050565b60006020820190508181036000830152613df181613699565b9050919050565b60006020820190508181036000830152613e11816136bc565b9050919050565b60006020820190508181036000830152613e31816136df565b9050919050565b60006020820190508181036000830152613e5181613702565b9050919050565b60006020820190508181036000830152613e7181613725565b9050919050565b60006020820190508181036000830152613e9181613748565b9050919050565b60006020820190508181036000830152613eb18161376b565b9050919050565b60006020820190508181036000830152613ed18161378e565b9050919050565b60006020820190508181036000830152613ef1816137b1565b9050919050565b60006020820190508181036000830152613f11816137d4565b9050919050565b60006020820190508181036000830152613f31816137f7565b9050919050565b60006020820190508181036000830152613f518161381a565b9050919050565b60006020820190508181036000830152613f718161383d565b9050919050565b60006020820190508181036000830152613f9181613860565b9050919050565b60006020820190508181036000830152613fb181613883565b9050919050565b60006020820190508181036000830152613fd1816138a6565b9050919050565b60006020820190508181036000830152613ff1816138c9565b9050919050565b60006020820190508181036000830152614011816138ec565b9050919050565b600060208201905081810360008301526140318161390f565b9050919050565b6000602082019050818103600083015261405181613932565b9050919050565b6000602082019050818103600083015261407181613955565b9050919050565b6000602082019050818103600083015261409181613978565b9050919050565b600060208201905081810360008301526140b18161399b565b9050919050565b600060208201905081810360008301526140d1816139be565b9050919050565b600060208201905081810360008301526140f1816139e1565b9050919050565b6000602082019050818103600083015261411181613a04565b9050919050565b6000602082019050818103600083015261413181613a27565b9050919050565b6000602082019050818103600083015261415181613a4a565b9050919050565b6000602082019050818103600083015261417181613a6d565b9050919050565b6000602082019050818103600083015261419181613a90565b9050919050565b600060208201905081810360008301526141b181613ab3565b9050919050565b600060208201905081810360008301526141d181613ad6565b9050919050565b600060208201905081810360008301526141f181613af9565b9050919050565b600060208201905061420d6000830184613b1c565b92915050565b60006040820190506142286000830185613b1c565b6142356020830184613b1c565b9392505050565b600060a0820190506142516000830188613b2b565b61425e6020830187613b2b565b61426b6040830186613b2b565b6142786060830185613b2b565b6142856080830184613b1c565b9695505050505050565b60006020820190506142a46000830184613b3a565b92915050565b600081519050919050565b600082825260208201905092915050565b60006142d182614418565b91506142dc83614418565b9250827fffffffffffffffffffffffffffffffffffffffffffffffffffffffffffffffff038211156143115761431061458a565b5b828201905092915050565b600061432782614418565b915061433283614418565b9250817fffffffffffffffffffffffffffffffffffffffffffffffffffffffffffffffff048311821515161561436b5761436a61458a565b5b828202905092915050565b600061438182614418565b915061438c83614418565b92508282101561439f5761439e61458a565b5b828203905092915050565b60006143b5826143f8565b9050919050565b60008115159050919050565b6000819050919050565b60008190506143e0826150ec565b919050565b60008190506143f382615100565b919050565b600073ffffffffffffffffffffffffffffffffffffffff82169050919050565b6000819050919050565b600063ffffffff82169050919050565b600060ff82169050919050565b600061444a82614451565b9050919050565b600061445c826143f8565b9050919050565b600061446e826143d2565b9050919050565b6000614480826143e5565b9050919050565b60005b838110156144a557808201518184015260208101905061448a565b838111156144b4576000848401525b50505050565b600060028204905060018216806144d257607f821691505b602082108114156144e6576144e5614617565b5b50919050565b60006144f782614422565b915063ffffffff82141561450e5761450d61458a565b5b600182019050919050565b600061452482614535565b9050919050565b6000819050919050565b600061454082614664565b9050919050565b600061455282614657565b9050919050565b600061456482614418565b915061456f83614418565b92508261457f5761457e6145b9565b5b828206905092915050565b7f4e487b7100000000000000000000000000000000000000000000000000000000600052601160045260246000fd5b7f4e487b7100000000000000000000000000000000000000000000000000000000600052601260045260246000fd5b7f4e487b7100000000000000000000000000000000000000000000000000000000600052602160045260246000fd5b7f4e487b7100000000000000000000000000000000000000000000000000000000600052602260045260246000fd5b6000601f19601f8301169050919050565b60008160f81b9050919050565b60008160601b9050919050565b7f496e76616c69642073656e64657220616464726573732e000000000000000000600082015250565b7f4e4f4e45206973206e6f7420612076616c6964206d6f76652e00000000000000600082015250565b7f45524332303a207472616e7366657220746f20746865207a65726f206164647260008201527f6573730000000000000000000000000000000000000000000000000000000000602082015250565b7f4f70706f6e656e7420686173206e6f7420796574206a6f696e6564207468652060008201527f67616d652e000000000000000000000000000000000000000000000000000000602082015250565b7f4f776e61626c653a206e6577206f776e657220697320746865207a65726f206160008201527f6464726573730000000000000000000000000000000000000000000000000000602082015250565b7f45524332303a20617070726f766520746f20746865207a65726f20616464726560008201527f7373000000000000000000000000000000000000000000000000000000000000602082015250565b7f54686520646561646c696e6520666f72207468652072657665616c206861732060008201527f657870697265642e20546865206f70706f6e656e74206d6179206f72206d617960208201527f206e6f7420636c61696d2074686520746f74616c20616d6f756e74207761676560408201527f7265642e00000000000000000000000000000000000000000000000000000000606082015250565b7f506c6561736520656e73757265207468652074696d65206c65667420746f206a60008201527f6f696e207468652067616d65206973206265747765656e20746865206163636560208201527f707461626c65206d696e20283630206d696e2920616e64206d6178202837323060408201527f30206d696e292076616c7565732e000000000000000000000000000000000000606082015250565b7f54686520646561646c696e6520746f206a6f696e20746869732067616d65206860008201527f617320616c726561647920657870697265642e00000000000000000000000000602082015250565b7f45524332303a207472616e7366657220616d6f756e742065786365656473206260008201527f616c616e63650000000000000000000000000000000000000000000000000000602082015250565b7f556e61626c6520746f2063616e63656c3b20746865206f70706f6e656e74206960008201527f7320616c72656164792070617274696369706174696e6720696e20746869732060208201527f67616d652e000000000000000000000000000000000000000000000000000000604082015250565b7f506c61796572206d6f7665206f722073656372657420617267756d656e74206960008201527f6e636f72726563743a2067616d6520646f6573206e6f742065786973742e0000602082015250565b7f546865206f70706f6e656e7420686173206e6f7420796574206a6f696e65642060008201527f7468652067616d652e0000000000000000000000000000000000000000000000602082015250565b7f546869732067616d6520616c7265616479206578697374732e2055736520612060008201527f646966666572656e742073656372657420616e642067656e657261746520612060208201527f6e65772067616d6549642e000000000000000000000000000000000000000000604082015250565b7f4e6f7420612076616c6964206f70706f6e656e743b20706c617965727320636160008201527f6e6e6f7420706c617920616761696e7374207468656d73656c7665732e000000602082015250565b7f506c61796572206973206e6f7420706c6179657220666f72207468697320676160008201527f6d653b206e6f74207065726d697474656420746f2063616e63656c207468652060208201527f67616d652e000000000000000000000000000000000000000000000000000000604082015250565b7f546869732067616d6520646f6573206e6f742065786973742e00000000000000600082015250565b7f496e73756666696369656e7420746f6b656e2062616c616e636520746f206a6f60008201527f696e207468652067616d652e0000000000000000000000000000000000000000602082015250565b7f54686520646561646c696e6520666f722072657665616c20666f72207468697360008201527f2067616d6520686173206e6f742079657420657870697265642e000000000000602082015250565b7f546f6b656e206665652063616e6e6f74206265206c657373207468616e20302e600082015250565b7f45524332303a207472616e7366657220616d6f756e742065786365656473206160008201527f6c6c6f77616e6365000000000000000000000000000000000000000000000000602082015250565b7f4f776e61626c653a2063616c6c6572206973206e6f7420746865206f776e6572600082015250565b7f506c6179657220646f65736e2774206861766520656e6f75676820746f6b656e60008201527f7320666f722074686973207761676572656420616d6f756e742e000000000000602082015250565b7f496e73756666696369656e7420746f6b656e2062616c616e636520746f20637260008201527f6561746520612067616d652e0000000000000000000000000000000000000000602082015250565b7f45524332303a207472616e736665722066726f6d20746865207a65726f20616460008201527f6472657373000000000000000000000000000000000000000000000000000000602082015250565b7f546869732067616d6520646f6573206e6f742065786973740000000000000000600082015250565b7f45524332303a20617070726f76652066726f6d20746865207a65726f2061646460008201527f7265737300000000000000000000000000000000000000000000000000000000602082015250565b7f4e6f7420612076616c6964206f70706f6e656e7420616464726573732e000000600082015250565b7f546865206f70706f6e656e7420697320616c726561647920706172746963697060008201527f6174696e6720696e20746869732067616d652e00000000000000000000000000602082015250565b7f446561646c696e6520666f72206a6f696e20686173206e6f742079657420657860008201527f70697265642e0000000000000000000000000000000000000000000000000000602082015250565b7f506c6561736520656e73757265207365636f6e6473556e74696c52657665616c60008201527f206973206265747765656e207468652061636365707461626c65206d696e202860208201527f36302920616e64206d6178202833363030292076616c7565732e000000000000604082015250565b7f45524332303a2064656372656173656420616c6c6f77616e63652062656c6f7760008201527f207a65726f000000000000000000000000000000000000000000000000000000602082015250565b7f5468652073656e64657227732061646472657373206973206e6f74207468652060008201527f6f70706f6e656e7420616464726573732073706563696669656420627920746860208201527f652067616d652063726561746f722e0000000000000000000000000000000000604082015250565b600581106150fd576150fc6145e8565b5b50565b60048110615111576151106145e8565b5b50565b61511d816143aa565b811461512857600080fd5b50565b615134816143bc565b811461513f57600080fd5b50565b61514b816143c8565b811461515657600080fd5b50565b6004811061516657600080fd5b50565b61517281614418565b811461517d57600080fd5b5056fe4368616e67696e6720666565496e546f6b656e732066726f6d202725642720746f2027256427a2646970667358221220eda29545ad9cf2b658073df1618967704a615f7fb2188b60422c8e02f18f021c64736f6c634300080400334465706c6f79696e67206120526f636b506170657253636973736f727320636f6e74726163742077697468206e616d652025732c2073796d626f6c2025732c205f666565496e546f6b656e732025644368616e67696e6720666565496e546f6b656e732066726f6d202725642720746f2027256427",
  "linkReferences": {},
  "deployedLinkReferences": {}
}