{
  "_format": "hh-sol-artifact-1",
  "contractName": "RockPaperScissors",
  "sourceName": "contracts/RockPaperScissors.sol",
  "abi": [
    {
      "inputs": [
        {
          "internalType": "string",
          "name": "_name",
          "type": "string"
        },
        {
          "internalType": "string",
          "name": "_symbol",
          "type": "string"
        },
        {
          "internalType": "uint256",
          "name": "_feeInTokens",
          "type": "uint256"
        }
      ],
      "stateMutability": "nonpayable",
      "type": "constructor"
    },
    {
      "anonymous": false,
      "inputs": [
        {
          "indexed": true,
          "internalType": "address",
          "name": "owner",
          "type": "address"
        },
        {
          "indexed": true,
          "internalType": "address",
          "name": "spender",
          "type": "address"
        },
        {
          "indexed": false,
          "internalType": "uint256",
          "name": "value",
          "type": "uint256"
        }
      ],
      "name": "Approval",
      "type": "event"
    },
    {
      "anonymous": false,
      "inputs": [
        {
          "indexed": true,
          "internalType": "address",
          "name": "sender",
          "type": "address"
        },
        {
          "indexed": true,
          "internalType": "bytes32",
          "name": "gameId",
          "type": "bytes32"
        }
      ],
      "name": "GameCancelled",
      "type": "event"
    },
    {
      "anonymous": false,
      "inputs": [
        {
          "indexed": true,
          "internalType": "address",
          "name": "player",
          "type": "address"
        },
        {
          "indexed": true,
          "internalType": "bytes32",
          "name": "gameId",
          "type": "bytes32"
        },
        {
          "indexed": true,
          "internalType": "address",
          "name": "opponent",
          "type": "address"
        },
        {
          "indexed": false,
          "internalType": "uint256",
          "name": "playerWager",
          "type": "uint256"
        },
        {
          "indexed": false,
          "internalType": "uint256",
          "name": "deadlineToJoin",
          "type": "uint256"
        }
      ],
      "name": "GameCreated",
      "type": "event"
    },
    {
      "anonymous": false,
      "inputs": [
        {
          "indexed": false,
          "internalType": "bytes32",
          "name": "gameId",
          "type": "bytes32"
        },
        {
          "indexed": false,
          "internalType": "enum RockPaperScissors.Shape",
          "name": "opponentMove",
          "type": "uint8"
        },
        {
          "indexed": false,
          "internalType": "uint256",
          "name": "opponentWager",
          "type": "uint256"
        },
        {
          "indexed": false,
          "internalType": "uint256",
          "name": "deadlineToReveal",
          "type": "uint256"
        }
      ],
      "name": "GameJoined",
      "type": "event"
    },
    {
      "anonymous": false,
      "inputs": [
        {
          "indexed": true,
          "internalType": "address",
          "name": "owner",
          "type": "address"
        }
      ],
      "name": "KillContract",
      "type": "event"
    },
    {
      "anonymous": false,
      "inputs": [
        {
          "indexed": true,
          "internalType": "address",
          "name": "sender",
          "type": "address"
        },
        {
          "indexed": true,
          "internalType": "bytes32",
          "name": "gameId",
          "type": "bytes32"
        },
        {
          "indexed": false,
          "internalType": "enum RockPaperScissors.Shape",
          "name": "playerMove",
          "type": "uint8"
        },
        {
          "indexed": false,
          "internalType": "enum RockPaperScissors.Payoff",
          "name": "payoff",
          "type": "uint8"
        }
      ],
      "name": "MoveRevealed",
      "type": "event"
    },
    {
      "anonymous": false,
      "inputs": [
        {
          "indexed": true,
          "internalType": "address",
          "name": "previousOwner",
          "type": "address"
        },
        {
          "indexed": true,
          "internalType": "address",
          "name": "newOwner",
          "type": "address"
        }
      ],
      "name": "OwnershipTransferred",
      "type": "event"
    },
    {
      "anonymous": false,
      "inputs": [
        {
          "indexed": true,
          "internalType": "address",
          "name": "sender",
          "type": "address"
        },
        {
          "indexed": false,
          "internalType": "uint256",
          "name": "secondsUntilReveal",
          "type": "uint256"
        }
      ],
      "name": "SecondsUntilRevealUpdated",
      "type": "event"
    },
    {
      "anonymous": false,
      "inputs": [
        {
          "indexed": true,
          "internalType": "address",
          "name": "sender",
          "type": "address"
        },
        {
          "indexed": true,
          "internalType": "bytes32",
          "name": "gameId",
          "type": "bytes32"
        }
      ],
      "name": "TotalWageredClaimed",
      "type": "event"
    },
    {
      "anonymous": false,
      "inputs": [
        {
          "indexed": true,
          "internalType": "address",
          "name": "from",
          "type": "address"
        },
        {
          "indexed": true,
          "internalType": "address",
          "name": "to",
          "type": "address"
        },
        {
          "indexed": false,
          "internalType": "uint256",
          "name": "value",
          "type": "uint256"
        }
      ],
      "name": "Transfer",
      "type": "event"
    },
    {
      "inputs": [
        {
          "internalType": "address",
          "name": "owner",
          "type": "address"
        },
        {
          "internalType": "address",
          "name": "spender",
          "type": "address"
        }
      ],
      "name": "allowance",
      "outputs": [
        {
          "internalType": "uint256",
          "name": "",
          "type": "uint256"
        }
      ],
      "stateMutability": "view",
      "type": "function"
    },
    {
      "inputs": [
        {
          "internalType": "address",
          "name": "spender",
          "type": "address"
        },
        {
          "internalType": "uint256",
          "name": "amount",
          "type": "uint256"
        }
      ],
      "name": "approve",
      "outputs": [
        {
          "internalType": "bool",
          "name": "",
          "type": "bool"
        }
      ],
      "stateMutability": "nonpayable",
      "type": "function"
    },
    {
      "inputs": [
        {
          "internalType": "address",
          "name": "account",
          "type": "address"
        }
      ],
      "name": "balanceOf",
      "outputs": [
        {
          "internalType": "uint256",
          "name": "",
          "type": "uint256"
        }
      ],
      "stateMutability": "view",
      "type": "function"
    },
    {
      "inputs": [
        {
          "internalType": "bytes32",
          "name": "gameId",
          "type": "bytes32"
        }
      ],
      "name": "cancelGame",
      "outputs": [],
      "stateMutability": "nonpayable",
      "type": "function"
    },
    {
      "inputs": [
        {
          "internalType": "bytes32",
          "name": "gameId",
          "type": "bytes32"
        }
      ],
      "name": "claim",
      "outputs": [],
      "stateMutability": "nonpayable",
      "type": "function"
    },
    {
      "inputs": [
        {
          "internalType": "bytes32",
          "name": "gameId",
          "type": "bytes32"
        },
        {
          "internalType": "address",
          "name": "opponent",
          "type": "address"
        },
        {
          "internalType": "uint256",
          "name": "minutesLeftToJoin",
          "type": "uint256"
        },
        {
          "internalType": "uint256",
          "name": "wager",
          "type": "uint256"
        },
        {
          "internalType": "bool",
          "name": "useWinnings",
          "type": "bool"
        }
      ],
      "name": "createGame",
      "outputs": [],
      "stateMutability": "nonpayable",
      "type": "function"
    },
    {
      "inputs": [],
      "name": "decimals",
      "outputs": [
        {
          "internalType": "uint8",
          "name": "",
          "type": "uint8"
        }
      ],
      "stateMutability": "pure",
      "type": "function"
    },
    {
      "inputs": [
        {
          "internalType": "address",
          "name": "spender",
          "type": "address"
        },
        {
          "internalType": "uint256",
          "name": "subtractedValue",
          "type": "uint256"
        }
      ],
      "name": "decreaseAllowance",
      "outputs": [
        {
          "internalType": "bool",
          "name": "",
          "type": "bool"
        }
      ],
      "stateMutability": "nonpayable",
      "type": "function"
    },
    {
      "inputs": [],
      "name": "feeInTokens",
      "outputs": [
        {
          "internalType": "uint256",
          "name": "",
          "type": "uint256"
        }
      ],
      "stateMutability": "view",
      "type": "function"
    },
    {
      "inputs": [
        {
          "internalType": "bytes32",
          "name": "",
          "type": "bytes32"
        }
      ],
      "name": "games",
      "outputs": [
        {
          "internalType": "address",
          "name": "player",
          "type": "address"
        },
        {
          "internalType": "address",
          "name": "opponent",
          "type": "address"
        },
        {
          "internalType": "enum RockPaperScissors.Shape",
          "name": "opponentMove",
          "type": "uint8"
        },
        {
          "internalType": "enum RockPaperScissors.Payoff",
          "name": "payoff",
          "type": "uint8"
        },
        {
          "internalType": "uint256",
          "name": "playerWager",
          "type": "uint256"
        },
        {
          "internalType": "uint256",
          "name": "opponentWager",
          "type": "uint256"
        },
        {
          "internalType": "uint256",
          "name": "deadline",
          "type": "uint256"
        }
      ],
      "stateMutability": "view",
      "type": "function"
    },
    {
      "inputs": [
        {
          "internalType": "enum RockPaperScissors.Shape",
          "name": "move",
          "type": "uint8"
        },
        {
          "internalType": "bytes32",
          "name": "secret",
          "type": "bytes32"
        }
      ],
      "name": "generateGameId",
      "outputs": [
        {
          "internalType": "bytes32",
          "name": "hashedMove",
          "type": "bytes32"
        }
      ],
      "stateMutability": "view",
      "type": "function"
    },
    {
      "inputs": [
        {
          "internalType": "address",
          "name": "spender",
          "type": "address"
        },
        {
          "internalType": "uint256",
          "name": "addedValue",
          "type": "uint256"
        }
      ],
      "name": "increaseAllowance",
      "outputs": [
        {
          "internalType": "bool",
          "name": "",
          "type": "bool"
        }
      ],
      "stateMutability": "nonpayable",
      "type": "function"
    },
    {
      "inputs": [
        {
          "internalType": "bytes32",
          "name": "gameId",
          "type": "bytes32"
        },
        {
          "internalType": "enum RockPaperScissors.Shape",
          "name": "move",
          "type": "uint8"
        },
        {
          "internalType": "uint256",
          "name": "wager",
          "type": "uint256"
        },
        {
          "internalType": "bool",
          "name": "useWinnings",
          "type": "bool"
        }
      ],
      "name": "joinGame",
      "outputs": [],
      "stateMutability": "nonpayable",
      "type": "function"
    },
    {
      "inputs": [],
      "name": "kill",
      "outputs": [],
      "stateMutability": "nonpayable",
      "type": "function"
    },
    {
      "inputs": [],
      "name": "name",
      "outputs": [
        {
          "internalType": "string",
          "name": "",
          "type": "string"
        }
      ],
      "stateMutability": "view",
      "type": "function"
    },
    {
      "inputs": [],
      "name": "owner",
      "outputs": [
        {
          "internalType": "address",
          "name": "",
          "type": "address"
        }
      ],
      "stateMutability": "view",
      "type": "function"
    },
    {
      "inputs": [
        {
          "internalType": "address",
          "name": "",
          "type": "address"
        }
      ],
      "name": "players",
      "outputs": [
        {
          "internalType": "uint32",
          "name": "totalGames",
          "type": "uint32"
        },
        {
          "internalType": "uint32",
          "name": "wins",
          "type": "uint32"
        },
        {
          "internalType": "uint32",
          "name": "losses",
          "type": "uint32"
        },
        {
          "internalType": "uint32",
          "name": "ties",
          "type": "uint32"
        },
        {
          "internalType": "uint256",
          "name": "winnings",
          "type": "uint256"
        }
      ],
      "stateMutability": "view",
      "type": "function"
    },
    {
      "inputs": [],
      "name": "renounceOwnership",
      "outputs": [],
      "stateMutability": "nonpayable",
      "type": "function"
    },
    {
      "inputs": [
        {
          "internalType": "enum RockPaperScissors.Shape",
          "name": "move",
          "type": "uint8"
        },
        {
          "internalType": "bytes32",
          "name": "secret",
          "type": "bytes32"
        }
      ],
      "name": "revealMove",
      "outputs": [],
      "stateMutability": "nonpayable",
      "type": "function"
    },
    {
      "inputs": [],
      "name": "secondsUntilReveal",
      "outputs": [
        {
          "internalType": "uint256",
          "name": "",
          "type": "uint256"
        }
      ],
      "stateMutability": "view",
      "type": "function"
    },
    {
      "inputs": [
        {
          "internalType": "uint256",
          "name": "_feeInTokens",
          "type": "uint256"
        }
      ],
      "name": "setFeeInTokens",
      "outputs": [],
      "stateMutability": "nonpayable",
      "type": "function"
    },
    {
      "inputs": [
        {
          "internalType": "uint256",
          "name": "_secondsUntilReveal",
          "type": "uint256"
        }
      ],
      "name": "setSecondsUntilReveal",
      "outputs": [],
      "stateMutability": "nonpayable",
      "type": "function"
    },
    {
      "inputs": [],
      "name": "symbol",
      "outputs": [
        {
          "internalType": "string",
          "name": "",
          "type": "string"
        }
      ],
      "stateMutability": "view",
      "type": "function"
    },
    {
      "inputs": [],
      "name": "totalSupply",
      "outputs": [
        {
          "internalType": "uint256",
          "name": "",
          "type": "uint256"
        }
      ],
      "stateMutability": "view",
      "type": "function"
    },
    {
      "inputs": [
        {
          "internalType": "address",
          "name": "recipient",
          "type": "address"
        },
        {
          "internalType": "uint256",
          "name": "amount",
          "type": "uint256"
        }
      ],
      "name": "transfer",
      "outputs": [
        {
          "internalType": "bool",
          "name": "",
          "type": "bool"
        }
      ],
      "stateMutability": "nonpayable",
      "type": "function"
    },
    {
      "inputs": [
        {
          "internalType": "address",
          "name": "sender",
          "type": "address"
        },
        {
          "internalType": "address",
          "name": "recipient",
          "type": "address"
        },
        {
          "internalType": "uint256",
          "name": "amount",
          "type": "uint256"
        }
      ],
      "name": "transferFrom",
      "outputs": [
        {
          "internalType": "bool",
          "name": "",
          "type": "bool"
        }
      ],
      "stateMutability": "nonpayable",
      "type": "function"
    },
    {
      "inputs": [
        {
          "internalType": "address",
          "name": "newOwner",
          "type": "address"
        }
      ],
      "name": "transferOwnership",
      "outputs": [],
      "stateMutability": "nonpayable",
      "type": "function"
    }
  ],
  "bytecode": "0x6080604052610708600a55610e10600b55610e10600c5562069780600d553480156200002a57600080fd5b5060405162005589380380620055898339818101604052810190620000509190620006c3565b828281600390805190602001906200006a9291906200058a565b508060049080519060200190620000839291906200058a565b505050620000a66200009a6200013260201b60201c565b6200013a60201b60201c565b620000d86040518060800160405280604f81526020016200553a604f91398484846200020060201b620022001760201c565b6200011833620000ed620002ac60201b60201c565b600a620000fb919062000a25565b633b9aca006200010c919062000b62565b620002b160201b60201c565b62000129816200042a60201b60201c565b50505062000d93565b600033905090565b6000600560009054906101000a900473ffffffffffffffffffffffffffffffffffffffff16905081600560006101000a81548173ffffffffffffffffffffffffffffffffffffffff021916908373ffffffffffffffffffffffffffffffffffffffff1602179055508173ffffffffffffffffffffffffffffffffffffffff168173ffffffffffffffffffffffffffffffffffffffff167f8be0079c531659141344cd1fd0a4f28419497f9722a3daafe3b4186f6b6457e060405160405180910390a35050565b620002a6848484846040516024016200021d9493929190620007eb565b6040516020818303038152906040527f9fd009f5000000000000000000000000000000000000000000000000000000007bffffffffffffffffffffffffffffffffffffffffffffffffffffffff19166020820180517bffffffffffffffffffffffffffffffffffffffffffffffffffffffff8381831617835250505050620004ae60201b60201c565b50505050565b600090565b600073ffffffffffffffffffffffffffffffffffffffff168273ffffffffffffffffffffffffffffffffffffffff16141562000324576040517f08c379a00000000000000000000000000000000000000000000000000000000081526004016200031b90620008b3565b60405180910390fd5b6200033860008383620004d760201b60201c565b80600260008282546200034c91906200096d565b92505081905550806000808473ffffffffffffffffffffffffffffffffffffffff1673ffffffffffffffffffffffffffffffffffffffff1681526020019081526020016000206000828254620003a391906200096d565b925050819055508173ffffffffffffffffffffffffffffffffffffffff16600073ffffffffffffffffffffffffffffffffffffffff167fddf252ad1be2c89b69c2b068fc378daa952ba7f163c4a11628f55a4df523b3ef836040516200040a9190620008d5565b60405180910390a36200042660008383620004dc60201b60201c565b5050565b600081101562000471576040517f08c379a0000000000000000000000000000000000000000000000000000000008152600401620004689062000891565b60405180910390fd5b620004a4604051806060016040528060268152602001620055146026913960085483620004e160201b620022a21760201c565b8060088190555050565b60008151905060006a636f6e736f6c652e6c6f679050602083016000808483855afa5050505050565b505050565b505050565b62000585838383604051602401620004fc939291906200084d565b6040516020818303038152906040527f969cdd03000000000000000000000000000000000000000000000000000000007bffffffffffffffffffffffffffffffffffffffffffffffffffffffff19166020820180517bffffffffffffffffffffffffffffffffffffffffffffffffffffffff8381831617835250505050620004ae60201b60201c565b505050565b828054620005989062000c10565b90600052602060002090601f016020900481019282620005bc576000855562000608565b82601f10620005d757805160ff191683800117855562000608565b8280016001018555821562000608579182015b8281111562000607578251825591602001919060010190620005ea565b5b5090506200061791906200061b565b5090565b5b80821115620006365760008160009055506001016200061c565b5090565b6000620006516200064b846200091b565b620008f2565b9050828152602081018484840111156200066a57600080fd5b6200067784828562000bda565b509392505050565b600082601f8301126200069157600080fd5b8151620006a38482602086016200063a565b91505092915050565b600081519050620006bd8162000d79565b92915050565b600080600060608486031215620006d957600080fd5b600084015167ffffffffffffffff811115620006f457600080fd5b62000702868287016200067f565b935050602084015167ffffffffffffffff8111156200072057600080fd5b6200072e868287016200067f565b92505060406200074186828701620006ac565b9150509250925092565b6000620007588262000951565b6200076481856200095c565b93506200077681856020860162000bda565b620007818162000d09565b840191505092915050565b60006200079b6020836200095c565b9150620007a88262000d27565b602082019050919050565b6000620007c2601f836200095c565b9150620007cf8262000d50565b602082019050919050565b620007e58162000bc3565b82525050565b600060808201905081810360008301526200080781876200074b565b905081810360208301526200081d81866200074b565b905081810360408301526200083381856200074b565b9050620008446060830184620007da565b95945050505050565b600060608201905081810360008301526200086981866200074b565b90506200087a6020830185620007da565b620008896040830184620007da565b949350505050565b60006020820190508181036000830152620008ac816200078c565b9050919050565b60006020820190508181036000830152620008ce81620007b3565b9050919050565b6000602082019050620008ec6000830184620007da565b92915050565b6000620008fe62000911565b90506200090c828262000c46565b919050565b6000604051905090565b600067ffffffffffffffff82111562000939576200093862000cda565b5b620009448262000d09565b9050602081019050919050565b600081519050919050565b600082825260208201905092915050565b60006200097a8262000bc3565b9150620009878362000bc3565b9250827fffffffffffffffffffffffffffffffffffffffffffffffffffffffffffffffff03821115620009bf57620009be62000c7c565b5b828201905092915050565b6000808291508390505b600185111562000a1c57808604811115620009f457620009f362000c7c565b5b600185161562000a045780820291505b808102905062000a148562000d1a565b9450620009d4565b94509492505050565b600062000a328262000bc3565b915062000a3f8362000bcd565b925062000a6e7fffffffffffffffffffffffffffffffffffffffffffffffffffffffffffffffff848462000a76565b905092915050565b60008262000a88576001905062000b5b565b8162000a98576000905062000b5b565b816001811462000ab1576002811462000abc5762000af2565b600191505062000b5b565b60ff84111562000ad15762000ad062000c7c565b5b8360020a91508482111562000aeb5762000aea62000c7c565b5b5062000b5b565b5060208310610133831016604e8410600b841016171562000b2c5782820a90508381111562000b265762000b2562000c7c565b5b62000b5b565b62000b3b8484846001620009ca565b9250905081840481111562000b555762000b5462000c7c565b5b81810290505b9392505050565b600062000b6f8262000bc3565b915062000b7c8362000bc3565b9250817fffffffffffffffffffffffffffffffffffffffffffffffffffffffffffffffff048311821515161562000bb85762000bb762000c7c565b5b828202905092915050565b6000819050919050565b600060ff82169050919050565b60005b8381101562000bfa57808201518184015260208101905062000bdd565b8381111562000c0a576000848401525b50505050565b6000600282049050600182168062000c2957607f821691505b6020821081141562000c405762000c3f62000cab565b5b50919050565b62000c518262000d09565b810181811067ffffffffffffffff8211171562000c735762000c7262000cda565b5b80604052505050565b7f4e487b7100000000000000000000000000000000000000000000000000000000600052601160045260246000fd5b7f4e487b7100000000000000000000000000000000000000000000000000000000600052602260045260246000fd5b7f4e487b7100000000000000000000000000000000000000000000000000000000600052604160045260246000fd5b6000601f19601f8301169050919050565b60008160011c9050919050565b7f546f6b656e206665652063616e6e6f74206265206c657373207468616e20302e600082015250565b7f45524332303a206d696e7420746f20746865207a65726f206164647265737300600082015250565b62000d848162000bc3565b811462000d9057600080fd5b50565b6147718062000da36000396000f3fe608060405234801561001057600080fd5b50600436106101a95760003560e01c80638929c02f116100f9578063bd66528a11610097578063e2eb41ff11610071578063e2eb41ff146104bc578063f2fde38b146104f0578063f3fbc3fe1461050c578063f579f88214610528576101a9565b8063bd66528a14610454578063cc6d1d8314610470578063dd62ed3e1461048c576101a9565b8063a457c2d7116100d3578063a457c2d7146103ba578063a8f7d442146103ea578063a9059cbb14610406578063b10d281e14610436576101a9565b80638929c02f1461034e5780638da5cb5b1461037e57806395d89b411461039c576101a9565b80633557731f1161016657806341c0e1b51161014057806341c0e1b5146102ee57806361b5547e146102f857806370a0823114610314578063715018a614610344576101a9565b80633557731f1461028457806339509351146102a25780633f7121b0146102d2576101a9565b806306fdde03146101ae578063095ea7b3146101cc57806309651cdb146101fc57806318160ddd1461021857806323b872dd14610236578063313ce56714610266575b600080fd5b6101b661055e565b6040516101c391906134a2565b60405180910390f35b6101e660048036038101906101e19190612c38565b6105f0565b6040516101f391906133fe565b60405180910390f35b61021660048036038101906102119190612db3565b61060e565b005b610220610696565b60405161022d919061393c565b60405180910390f35b610250600480360381019061024b9190612be9565b6106a0565b60405161025d91906133fe565b60405180910390f35b61026e610798565b60405161027b91906139d3565b60405180910390f35b61028c61079d565b604051610299919061393c565b60405180910390f35b6102bc60048036038101906102b79190612c38565b6107a3565b6040516102c991906133fe565b60405180910390f35b6102ec60048036038101906102e79190612c74565b61084f565b005b6102f6610a7a565b005b610312600480360381019061030d9190612c9d565b610b5e565b005b61032e60048036038101906103299190612b84565b610e5b565b60405161033b919061393c565b60405180910390f35b61034c610ea3565b005b61036860048036038101906103639190612d77565b610f2b565b6040516103759190613419565b60405180910390f35b610386611085565b6040516103939190613374565b60405180910390f35b6103a46110af565b6040516103b191906134a2565b60405180910390f35b6103d460048036038101906103cf9190612c38565b611141565b6040516103e191906133fe565b60405180910390f35b61040460048036038101906103ff9190612d77565b61122c565b005b610420600480360381019061041b9190612c38565b6117a3565b60405161042d91906133fe565b60405180910390f35b61043e6117c1565b60405161044b919061393c565b60405180910390f35b61046e60048036038101906104699190612c74565b6117c7565b005b61048a60048036038101906104859190612db3565b611a26565b005b6104a660048036038101906104a19190612bad565b611b4d565b6040516104b3919061393c565b60405180910390f35b6104d660048036038101906104d19190612b84565b611bd4565b6040516104e7959493929190613980565b60405180910390f35b61050a60048036038101906105059190612b84565b611c4a565b005b61052660048036038101906105219190612d14565b611d42565b005b610542600480360381019061053d9190612c74565b612164565b604051610555979695949392919061338f565b60405180910390f35b60606003805461056d90613bfe565b80601f016020809104026020016040519081016040528092919081815260200182805461059990613bfe565b80156105e65780601f106105bb576101008083540402835291602001916105e6565b820191906000526020600020905b8154815290600101906020018083116105c957829003601f168201915b5050505050905090565b60006106046105fd612341565b8484612349565b6001905092915050565b610616612341565b73ffffffffffffffffffffffffffffffffffffffff16610634611085565b73ffffffffffffffffffffffffffffffffffffffff161461068a576040517f08c379a0000000000000000000000000000000000000000000000000000000008152600401610681906137bc565b60405180910390fd5b61069381612514565b50565b6000600254905090565b60006106ad848484612587565b6000600160008673ffffffffffffffffffffffffffffffffffffffff1673ffffffffffffffffffffffffffffffffffffffff16815260200190815260200160002060006106f8612341565b73ffffffffffffffffffffffffffffffffffffffff1673ffffffffffffffffffffffffffffffffffffffff16815260200190815260200160002054905082811015610778576040517f08c379a000000000000000000000000000000000000000000000000000000000815260040161076f9061379c565b60405180910390fd5b61078c85610784612341565b858403612349565b60019150509392505050565b600090565b60095481565b60006108456107b0612341565b8484600160006107be612341565b73ffffffffffffffffffffffffffffffffffffffff1673ffffffffffffffffffffffffffffffffffffffff16815260200190815260200160002060008873ffffffffffffffffffffffffffffffffffffffff1673ffffffffffffffffffffffffffffffffffffffff168152602001908152602001600020546108409190613a0a565b612349565b6001905092915050565b600060066000838152602001908152602001600020905060008160000160009054906101000a900473ffffffffffffffffffffffffffffffffffffffff169050600073ffffffffffffffffffffffffffffffffffffffff168173ffffffffffffffffffffffffffffffffffffffff1614156108ff576040517f08c379a00000000000000000000000000000000000000000000000000000000081526004016108f69061377c565b60405180910390fd5b60006003811115610939577f4e487b7100000000000000000000000000000000000000000000000000000000600052602160045260246000fd5b8260010160149054906101000a900460ff166003811115610983577f4e487b7100000000000000000000000000000000000000000000000000000000600052602160045260246000fd5b146109c3576040517f08c379a00000000000000000000000000000000000000000000000000000000081526004016109ba9061367c565b60405180910390fd5b42826004015410610a09576040517f08c379a0000000000000000000000000000000000000000000000000000000008152600401610a00906138bc565b60405180910390fd5b600082600201549050610a1b84612808565b6000811115610a3057610a2e82826117a3565b505b833373ffffffffffffffffffffffffffffffffffffffff167f446c14486e35961084570d43d2b5f86421f0d1f28709d612150f2660fa8eb7e760405160405180910390a350505050565b610a82612341565b73ffffffffffffffffffffffffffffffffffffffff16610aa0611085565b73ffffffffffffffffffffffffffffffffffffffff1614610af6576040517f08c379a0000000000000000000000000000000000000000000000000000000008152600401610aed906137bc565b60405180910390fd5b6000610b00611085565b90508073ffffffffffffffffffffffffffffffffffffffff167fb0da82b42ce84fb762f70bf2ebd4bce1b743f863450eb0c902f1e0d0ee45c83660405160405180910390a28073ffffffffffffffffffffffffffffffffffffffff16ff5b600854610b6a33610e5b565b1015610bab576040517f08c379a0000000000000000000000000000000000000000000000000000000008152600401610ba2906136bc565b60405180910390fd5b600073ffffffffffffffffffffffffffffffffffffffff168473ffffffffffffffffffffffffffffffffffffffff161415610c1b576040517f08c379a0000000000000000000000000000000000000000000000000000000008152600401610c129061387c565b60405180910390fd5b6000603c84610c2a9190613a60565b905080600c5411158015610c405750600d548111155b610c7f576040517f08c379a0000000000000000000000000000000000000000000000000000000008152600401610c76906138fc565b60405180910390fd5b6000600660008881526020019081526020016000209050600073ffffffffffffffffffffffffffffffffffffffff168160000160009054906101000a900473ffffffffffffffffffffffffffffffffffffffff1673ffffffffffffffffffffffffffffffffffffffff1614610d29576040517f08c379a0000000000000000000000000000000000000000000000000000000008152600401610d209061369c565b60405180910390fd5b610d343385856128d8565b9350338160000160006101000a81548173ffffffffffffffffffffffffffffffffffffffff021916908373ffffffffffffffffffffffffffffffffffffffff160217905550858160010160006101000a81548173ffffffffffffffffffffffffffffffffffffffff021916908373ffffffffffffffffffffffffffffffffffffffff160217905550610dc630856117a3565b5083816002018190555060008242610dde9190613a0a565b90508082600401819055508673ffffffffffffffffffffffffffffffffffffffff16883373ffffffffffffffffffffffffffffffffffffffff167fae7ef1cccc943459691ffb6d7d7ae5654a190dc507f91fd8214782f6ffa9db7f8885604051610e49929190613957565b60405180910390a45050505050505050565b60008060008373ffffffffffffffffffffffffffffffffffffffff1673ffffffffffffffffffffffffffffffffffffffff168152602001908152602001600020549050919050565b610eab612341565b73ffffffffffffffffffffffffffffffffffffffff16610ec9611085565b73ffffffffffffffffffffffffffffffffffffffff1614610f1f576040517f08c379a0000000000000000000000000000000000000000000000000000000008152600401610f16906137bc565b60405180910390fd5b610f296000612a22565b565b60008073ffffffffffffffffffffffffffffffffffffffff163373ffffffffffffffffffffffffffffffffffffffff161415610f9c576040517f08c379a0000000000000000000000000000000000000000000000000000000008152600401610f939061355c565b60405180910390fd5b60006003811115610fd6577f4e487b7100000000000000000000000000000000000000000000000000000000600052602160045260246000fd5b83600381111561100f577f4e487b7100000000000000000000000000000000000000000000000000000000600052602160045260246000fd5b1415611050576040517f08c379a0000000000000000000000000000000000000000000000000000000008152600401611047906135dc565b60405180910390fd5b303384846040516020016110679493929190613326565b60405160208183030381529060405280519060200120905092915050565b6000600560009054906101000a900473ffffffffffffffffffffffffffffffffffffffff16905090565b6060600480546110be90613bfe565b80601f01602080910402602001604051908101604052809291908181526020018280546110ea90613bfe565b80156111375780601f1061110c57610100808354040283529160200191611137565b820191906000526020600020905b81548152906001019060200180831161111a57829003601f168201915b5050505050905090565b60008060016000611150612341565b73ffffffffffffffffffffffffffffffffffffffff1673ffffffffffffffffffffffffffffffffffffffff16815260200190815260200160002060008573ffffffffffffffffffffffffffffffffffffffff1673ffffffffffffffffffffffffffffffffffffffff1681526020019081526020016000205490508281101561120d576040517f08c379a00000000000000000000000000000000000000000000000000000000081526004016112049061391c565b60405180910390fd5b611221611218612341565b85858403612349565b600191505092915050565b60006112388383610f2b565b9050600060066000838152602001908152602001600020905060008160000160009054906101000a900473ffffffffffffffffffffffffffffffffffffffff169050600073ffffffffffffffffffffffffffffffffffffffff168173ffffffffffffffffffffffffffffffffffffffff1614156112ea576040517f08c379a00000000000000000000000000000000000000000000000000000000081526004016112e19061383c565b60405180910390fd5b60008260010160149054906101000a900460ff1690506000600381111561133a577f4e487b7100000000000000000000000000000000000000000000000000000000600052602160045260246000fd5b816003811115611373577f4e487b7100000000000000000000000000000000000000000000000000000000600052602160045260246000fd5b14156113b4576040517f08c379a00000000000000000000000000000000000000000000000000000000081526004016113ab906138dc565b60405180910390fd5b82600401544211156113fb576040517f08c379a00000000000000000000000000000000000000000000000000000000081526004016113f29061381c565b60405180910390fd5b6000836002015490506000846003015490506000818361141b9190613a0a565b905060008660010160009054906101000a900473ffffffffffffffffffffffffffffffffffffffff16905060006003866003811115611483577f4e487b7100000000000000000000000000000000000000000000000000000000600052602160045260246000fd5b8c60038111156114bc577f4e487b7100000000000000000000000000000000000000000000000000000000600052602160045260246000fd5b60036114c89190613a0a565b6114d29190613aba565b6114dc9190613c70565b6002811115611514577f4e487b7100000000000000000000000000000000000000000000000000000000600052602160045260246000fd5b9050808860010160156101000a81548160ff02191690836002811115611563577f4e487b7100000000000000000000000000000000000000000000000000000000600052602160045260246000fd5b0217905550600060028111156115a2577f4e487b7100000000000000000000000000000000000000000000000000000000600052602160045260246000fd5b8160028111156115db577f4e487b7100000000000000000000000000000000000000000000000000000000600052602160045260246000fd5b14156115fc576115eb87866117a3565b506115f682856117a3565b50611745565b60016002811115611636577f4e487b7100000000000000000000000000000000000000000000000000000000600052602160045260246000fd5b81600281111561166f577f4e487b7100000000000000000000000000000000000000000000000000000000600052602160045260246000fd5b14156116855761167f87846117a3565b50611744565b6002808111156116be577f4e487b7100000000000000000000000000000000000000000000000000000000600052602160045260246000fd5b8160028111156116f7577f4e487b7100000000000000000000000000000000000000000000000000000000600052602160045260246000fd5b141561170d5761170782846117a3565b50611743565b6000611742577f4e487b7100000000000000000000000000000000000000000000000000000000600052600160045260246000fd5b5b5b5b883373ffffffffffffffffffffffffffffffffffffffff167f822c7517d2fff3bb3f5d2335f2b88bdc22fc0bc73c4267ac62928bcf60738cd88d8460405161178e929190613479565b60405180910390a35050505050505050505050565b60006117b76117b0612341565b8484612587565b6001905092915050565b60085481565b6000600660008381526020019081526020016000209050600073ffffffffffffffffffffffffffffffffffffffff168160000160009054906101000a900473ffffffffffffffffffffffffffffffffffffffff1673ffffffffffffffffffffffffffffffffffffffff161415611872576040517f08c379a00000000000000000000000000000000000000000000000000000000081526004016118699061383c565b60405180910390fd5b600060038111156118ac577f4e487b7100000000000000000000000000000000000000000000000000000000600052602160045260246000fd5b8160010160149054906101000a900460ff1660038111156118f6577f4e487b7100000000000000000000000000000000000000000000000000000000600052602160045260246000fd5b1415611937576040517f08c379a000000000000000000000000000000000000000000000000000000000815260040161192e9061359c565b60405180910390fd5b4281600401541061197d576040517f08c379a00000000000000000000000000000000000000000000000000000000081526004016119749061371c565b60405180910390fd5b6000816003015482600201546119939190613a0a565b905060008260010160009054906101000a900473ffffffffffffffffffffffffffffffffffffffff1690506119c784612808565b60008211156119dc576119da81836117a3565b505b833373ffffffffffffffffffffffffffffffffffffffff167f9f870fb214082619510b2d8f37009c3da1d7ad5473b5853c0ad88663d18c70ad60405160405180910390a350505050565b611a2e612341565b73ffffffffffffffffffffffffffffffffffffffff16611a4c611085565b73ffffffffffffffffffffffffffffffffffffffff1614611aa2576040517f08c379a0000000000000000000000000000000000000000000000000000000008152600401611a99906137bc565b60405180910390fd5b80600a5411158015611ab65750600b548111155b611af5576040517f08c379a0000000000000000000000000000000000000000000000000000000008152600401611aec9061373c565b60405180910390fd5b806009819055503373ffffffffffffffffffffffffffffffffffffffff167f45120568781a9d44303daca283d52567e7bd8f28ec2ae25c34bcf57d2f1487d982604051611b42919061393c565b60405180910390a250565b6000600160008473ffffffffffffffffffffffffffffffffffffffff1673ffffffffffffffffffffffffffffffffffffffff16815260200190815260200160002060008373ffffffffffffffffffffffffffffffffffffffff1673ffffffffffffffffffffffffffffffffffffffff16815260200190815260200160002054905092915050565b60076020528060005260406000206000915090508060000160009054906101000a900463ffffffff16908060000160049054906101000a900463ffffffff16908060000160089054906101000a900463ffffffff169080600001600c9054906101000a900463ffffffff16908060010154905085565b611c52612341565b73ffffffffffffffffffffffffffffffffffffffff16611c70611085565b73ffffffffffffffffffffffffffffffffffffffff1614611cc6576040517f08c379a0000000000000000000000000000000000000000000000000000000008152600401611cbd906137bc565b60405180910390fd5b600073ffffffffffffffffffffffffffffffffffffffff168173ffffffffffffffffffffffffffffffffffffffff161415611d36576040517f08c379a0000000000000000000000000000000000000000000000000000000008152600401611d2d906135fc565b60405180910390fd5b611d3f81612a22565b50565b600854611d4e33610e5b565b1015611d8f576040517f08c379a0000000000000000000000000000000000000000000000000000000008152600401611d86906136dc565b60405180910390fd5b60006003811115611dc9577f4e487b7100000000000000000000000000000000000000000000000000000000600052602160045260246000fd5b836003811115611e02577f4e487b7100000000000000000000000000000000000000000000000000000000600052602160045260246000fd5b1415611e43576040517f08c379a0000000000000000000000000000000000000000000000000000000008152600401611e3a906135dc565b60405180910390fd5b6000600660008681526020019081526020016000209050600073ffffffffffffffffffffffffffffffffffffffff168160000160009054906101000a900473ffffffffffffffffffffffffffffffffffffffff1673ffffffffffffffffffffffffffffffffffffffff161415611eee576040517f08c379a0000000000000000000000000000000000000000000000000000000008152600401611ee5906136fc565b60405180910390fd5b60008160010160009054906101000a900473ffffffffffffffffffffffffffffffffffffffff1690503373ffffffffffffffffffffffffffffffffffffffff168173ffffffffffffffffffffffffffffffffffffffff1614611f85576040517f08c379a0000000000000000000000000000000000000000000000000000000008152600401611f7c906135bc565b60405180910390fd5b60006003811115611fbf577f4e487b7100000000000000000000000000000000000000000000000000000000600052602160045260246000fd5b8260010160149054906101000a900460ff166003811115612009577f4e487b7100000000000000000000000000000000000000000000000000000000600052602160045260246000fd5b14612049576040517f08c379a00000000000000000000000000000000000000000000000000000000081526004016120409061389c565b60405180910390fd5b8160040154421115612090576040517f08c379a00000000000000000000000000000000000000000000000000000000081526004016120879061363c565b60405180910390fd5b848260010160146101000a81548160ff021916908360038111156120dd577f4e487b7100000000000000000000000000000000000000000000000000000000600052602160045260246000fd5b02179055506000600954426120f29190613a0a565b90508083600401819055506121083386866128d8565b945061211430866117a3565b508483600301819055507fbea699eabb9f35117986c8b673afc934d08142bce1d6183cac985fea93e87181878787846040516121539493929190613434565b60405180910390a150505050505050565b60066020528060005260406000206000915090508060000160009054906101000a900473ffffffffffffffffffffffffffffffffffffffff16908060010160009054906101000a900473ffffffffffffffffffffffffffffffffffffffff16908060010160149054906101000a900460ff16908060010160159054906101000a900460ff16908060020154908060030154908060040154905087565b61229c8484848460405160240161221a94939291906134c4565b6040516020818303038152906040527f9fd009f5000000000000000000000000000000000000000000000000000000007bffffffffffffffffffffffffffffffffffffffffffffffffffffffff19166020820180517bffffffffffffffffffffffffffffffffffffffffffffffffffffffff8381831617835250505050612ae8565b50505050565b61233c8383836040516024016122ba9392919061351e565b6040516020818303038152906040527f969cdd03000000000000000000000000000000000000000000000000000000007bffffffffffffffffffffffffffffffffffffffffffffffffffffffff19166020820180517bffffffffffffffffffffffffffffffffffffffffffffffffffffffff8381831617835250505050612ae8565b505050565b600033905090565b600073ffffffffffffffffffffffffffffffffffffffff168373ffffffffffffffffffffffffffffffffffffffff1614156123b9576040517f08c379a00000000000000000000000000000000000000000000000000000000081526004016123b09061385c565b60405180910390fd5b600073ffffffffffffffffffffffffffffffffffffffff168273ffffffffffffffffffffffffffffffffffffffff161415612429576040517f08c379a00000000000000000000000000000000000000000000000000000000081526004016124209061361c565b60405180910390fd5b80600160008573ffffffffffffffffffffffffffffffffffffffff1673ffffffffffffffffffffffffffffffffffffffff16815260200190815260200160002060008473ffffffffffffffffffffffffffffffffffffffff1673ffffffffffffffffffffffffffffffffffffffff168152602001908152602001600020819055508173ffffffffffffffffffffffffffffffffffffffff168373ffffffffffffffffffffffffffffffffffffffff167f8c5be1e5ebec7d5bd14f71427d1e84f3dd0314c0f7b2291e5b200ac8c7c3b92583604051612507919061393c565b60405180910390a3505050565b6000811015612558576040517f08c379a000000000000000000000000000000000000000000000000000000000815260040161254f9061375c565b60405180910390fd5b61257d60405180606001604052806026815260200161471660269139600854836122a2565b8060088190555050565b600073ffffffffffffffffffffffffffffffffffffffff168373ffffffffffffffffffffffffffffffffffffffff1614156125f7576040517f08c379a00000000000000000000000000000000000000000000000000000000081526004016125ee906137fc565b60405180910390fd5b600073ffffffffffffffffffffffffffffffffffffffff168273ffffffffffffffffffffffffffffffffffffffff161415612667576040517f08c379a000000000000000000000000000000000000000000000000000000000815260040161265e9061357c565b60405180910390fd5b612672838383612b11565b60008060008573ffffffffffffffffffffffffffffffffffffffff1673ffffffffffffffffffffffffffffffffffffffff168152602001908152602001600020549050818110156126f8576040517f08c379a00000000000000000000000000000000000000000000000000000000081526004016126ef9061365c565b60405180910390fd5b8181036000808673ffffffffffffffffffffffffffffffffffffffff1673ffffffffffffffffffffffffffffffffffffffff16815260200190815260200160002081905550816000808573ffffffffffffffffffffffffffffffffffffffff1673ffffffffffffffffffffffffffffffffffffffff168152602001908152602001600020600082825461278b9190613a0a565b925050819055508273ffffffffffffffffffffffffffffffffffffffff168473ffffffffffffffffffffffffffffffffffffffff167fddf252ad1be2c89b69c2b068fc378daa952ba7f163c4a11628f55a4df523b3ef846040516127ef919061393c565b60405180910390a3612802848484612b16565b50505050565b600060066000838152602001908152602001600020905060008160010160006101000a81548173ffffffffffffffffffffffffffffffffffffffff021916908373ffffffffffffffffffffffffffffffffffffffff16021790555060008160010160146101000a81548160ff021916908360038111156128b1577f4e487b7100000000000000000000000000000000000000000000000000000000600052602160045260246000fd5b02179055506000816002018190555060008160030181905550600081600401819055505050565b60008290506000600760008673ffffffffffffffffffffffffffffffffffffffff1673ffffffffffffffffffffffffffffffffffffffff168152602001908152602001600020600101541180156129795750600760008573ffffffffffffffffffffffffffffffffffffffff1673ffffffffffffffffffffffffffffffffffffffff1681526020019081526020016000206001015461297685610e5b565b10155b156129cf5781156129ca57600760008573ffffffffffffffffffffffffffffffffffffffff1673ffffffffffffffffffffffffffffffffffffffff1681526020019081526020016000206001015490505b612a1b565b6129d884610e5b565b831115612a1a576040517f08c379a0000000000000000000000000000000000000000000000000000000008152600401612a11906137dc565b60405180910390fd5b5b9392505050565b6000600560009054906101000a900473ffffffffffffffffffffffffffffffffffffffff16905081600560006101000a81548173ffffffffffffffffffffffffffffffffffffffff021916908373ffffffffffffffffffffffffffffffffffffffff1602179055508173ffffffffffffffffffffffffffffffffffffffff168173ffffffffffffffffffffffffffffffffffffffff167f8be0079c531659141344cd1fd0a4f28419497f9722a3daafe3b4186f6b6457e060405160405180910390a35050565b60008151905060006a636f6e736f6c652e6c6f679050602083016000808483855afa5050505050565b505050565b505050565b600081359050612b2a816146a9565b92915050565b600081359050612b3f816146c0565b92915050565b600081359050612b54816146d7565b92915050565b600081359050612b69816146ee565b92915050565b600081359050612b7e816146fe565b92915050565b600060208284031215612b9657600080fd5b6000612ba484828501612b1b565b91505092915050565b60008060408385031215612bc057600080fd5b6000612bce85828601612b1b565b9250506020612bdf85828601612b1b565b9150509250929050565b600080600060608486031215612bfe57600080fd5b6000612c0c86828701612b1b565b9350506020612c1d86828701612b1b565b9250506040612c2e86828701612b6f565b9150509250925092565b60008060408385031215612c4b57600080fd5b6000612c5985828601612b1b565b9250506020612c6a85828601612b6f565b9150509250929050565b600060208284031215612c8657600080fd5b6000612c9484828501612b45565b91505092915050565b600080600080600060a08688031215612cb557600080fd5b6000612cc388828901612b45565b9550506020612cd488828901612b1b565b9450506040612ce588828901612b6f565b9350506060612cf688828901612b6f565b9250506080612d0788828901612b30565b9150509295509295909350565b60008060008060808587031215612d2a57600080fd5b6000612d3887828801612b45565b9450506020612d4987828801612b5a565b9350506040612d5a87828801612b6f565b9250506060612d6b87828801612b30565b91505092959194509250565b60008060408385031215612d8a57600080fd5b6000612d9885828601612b5a565b9250506020612da985828601612b45565b9150509250929050565b600060208284031215612dc557600080fd5b6000612dd384828501612b6f565b91505092915050565b612de581613aee565b82525050565b612dfc612df782613aee565b613c30565b82525050565b612e0b81613b00565b82525050565b612e1a81613b0c565b82525050565b612e31612e2c82613b0c565b613c42565b82525050565b612e48612e4382613b83565b613c30565b82525050565b612e5781613ba7565b82525050565b612e6681613bb9565b82525050565b612e7d612e7882613bb9565b613c5e565b82525050565b6000612e8e826139ee565b612e9881856139f9565b9350612ea8818560208601613bcb565b612eb181613d5d565b840191505092915050565b6000612ec96017836139f9565b9150612ed482613d88565b602082019050919050565b6000612eec6023836139f9565b9150612ef782613db1565b604082019050919050565b6000612f0f6024836139f9565b9150612f1a82613e00565b604082019050919050565b6000612f32604f836139f9565b9150612f3d82613e4f565b606082019050919050565b6000612f55601c836139f9565b9150612f6082613ec4565b602082019050919050565b6000612f786026836139f9565b9150612f8382613eed565b604082019050919050565b6000612f9b6022836139f9565b9150612fa682613f3c565b604082019050919050565b6000612fbe6033836139f9565b9150612fc982613f8b565b604082019050919050565b6000612fe16026836139f9565b9150612fec82613fda565b604082019050919050565b60006130046045836139f9565b915061300f82614029565b606082019050919050565b6000613027604b836139f9565b91506130328261409e565b606082019050919050565b600061304a6030836139f9565b915061305582614113565b604082019050919050565b600061306d602a836139f9565b915061307882614162565b604082019050919050565b60006130906019836139f9565b915061309b826141b1565b602082019050919050565b60006130b3603a836139f9565b91506130be826141da565b604082019050919050565b60006130d66055836139f9565b91506130e182614229565b606082019050919050565b60006130f96020836139f9565b91506131048261429e565b602082019050919050565b600061311c6014836139f9565b9150613127826142c7565b602082019050919050565b600061313f6028836139f9565b915061314a826142f0565b604082019050919050565b60006131626020836139f9565b915061316d8261433f565b602082019050919050565b6000613185603a836139f9565b915061319082614368565b604082019050919050565b60006131a86025836139f9565b91506131b3826143b7565b604082019050919050565b60006131cb601f836139f9565b91506131d682614406565b602082019050919050565b60006131ee6018836139f9565b91506131f98261442f565b602082019050919050565b60006132116024836139f9565b915061321c82614458565b604082019050919050565b6000613234601d836139f9565b915061323f826144a7565b602082019050919050565b60006132576033836139f9565b9150613262826144d0565b604082019050919050565b600061327a6026836139f9565b91506132858261451f565b604082019050919050565b600061329d6024836139f9565b91506132a88261456e565b604082019050919050565b60006132c0605a836139f9565b91506132cb826145bd565b606082019050919050565b60006132e36025836139f9565b91506132ee82614632565b604082019050919050565b61330281613b5c565b82525050565b61331181613b66565b82525050565b61332081613b76565b82525050565b60006133328287612e37565b6014820191506133428286612deb565b6014820191506133528285612e6c565b6001820191506133628284612e20565b60208201915081905095945050505050565b60006020820190506133896000830184612ddc565b92915050565b600060e0820190506133a4600083018a612ddc565b6133b16020830189612ddc565b6133be6040830188612e5d565b6133cb6060830187612e4e565b6133d860808301866132f9565b6133e560a08301856132f9565b6133f260c08301846132f9565b98975050505050505050565b60006020820190506134136000830184612e02565b92915050565b600060208201905061342e6000830184612e11565b92915050565b60006080820190506134496000830187612e11565b6134566020830186612e5d565b61346360408301856132f9565b61347060608301846132f9565b95945050505050565b600060408201905061348e6000830185612e5d565b61349b6020830184612e4e565b9392505050565b600060208201905081810360008301526134bc8184612e83565b905092915050565b600060808201905081810360008301526134de8187612e83565b905081810360208301526134f28186612e83565b905081810360408301526135068185612e83565b905061351560608301846132f9565b95945050505050565b600060608201905081810360008301526135388186612e83565b905061354760208301856132f9565b61355460408301846132f9565b949350505050565b6000602082019050818103600083015261357581612ebc565b9050919050565b6000602082019050818103600083015261359581612edf565b9050919050565b600060208201905081810360008301526135b581612f02565b9050919050565b600060208201905081810360008301526135d581612f25565b9050919050565b600060208201905081810360008301526135f581612f48565b9050919050565b6000602082019050818103600083015261361581612f6b565b9050919050565b6000602082019050818103600083015261363581612f8e565b9050919050565b6000602082019050818103600083015261365581612fb1565b9050919050565b6000602082019050818103600083015261367581612fd4565b9050919050565b6000602082019050818103600083015261369581612ff7565b9050919050565b600060208201905081810360008301526136b58161301a565b9050919050565b600060208201905081810360008301526136d58161303d565b9050919050565b600060208201905081810360008301526136f581613060565b9050919050565b6000602082019050818103600083015261371581613083565b9050919050565b60006020820190508181036000830152613735816130a6565b9050919050565b60006020820190508181036000830152613755816130c9565b9050919050565b60006020820190508181036000830152613775816130ec565b9050919050565b600060208201905081810360008301526137958161310f565b9050919050565b600060208201905081810360008301526137b581613132565b9050919050565b600060208201905081810360008301526137d581613155565b9050919050565b600060208201905081810360008301526137f581613178565b9050919050565b600060208201905081810360008301526138158161319b565b9050919050565b60006020820190508181036000830152613835816131be565b9050919050565b60006020820190508181036000830152613855816131e1565b9050919050565b6000602082019050818103600083015261387581613204565b9050919050565b6000602082019050818103600083015261389581613227565b9050919050565b600060208201905081810360008301526138b58161324a565b9050919050565b600060208201905081810360008301526138d58161326d565b9050919050565b600060208201905081810360008301526138f581613290565b9050919050565b60006020820190508181036000830152613915816132b3565b9050919050565b60006020820190508181036000830152613935816132d6565b9050919050565b600060208201905061395160008301846132f9565b92915050565b600060408201905061396c60008301856132f9565b61397960208301846132f9565b9392505050565b600060a0820190506139956000830188613308565b6139a26020830187613308565b6139af6040830186613308565b6139bc6060830185613308565b6139c960808301846132f9565b9695505050505050565b60006020820190506139e86000830184613317565b92915050565b600081519050919050565b600082825260208201905092915050565b6000613a1582613b5c565b9150613a2083613b5c565b9250827fffffffffffffffffffffffffffffffffffffffffffffffffffffffffffffffff03821115613a5557613a54613ca1565b5b828201905092915050565b6000613a6b82613b5c565b9150613a7683613b5c565b9250817fffffffffffffffffffffffffffffffffffffffffffffffffffffffffffffffff0483118215151615613aaf57613aae613ca1565b5b828202905092915050565b6000613ac582613b5c565b9150613ad083613b5c565b925082821015613ae357613ae2613ca1565b5b828203905092915050565b6000613af982613b3c565b9050919050565b60008115159050919050565b6000819050919050565b6000819050613b2482614681565b919050565b6000819050613b3782614695565b919050565b600073ffffffffffffffffffffffffffffffffffffffff82169050919050565b6000819050919050565b600063ffffffff82169050919050565b600060ff82169050919050565b6000613b8e82613b95565b9050919050565b6000613ba082613b3c565b9050919050565b6000613bb282613b16565b9050919050565b6000613bc482613b29565b9050919050565b60005b83811015613be9578082015181840152602081019050613bce565b83811115613bf8576000848401525b50505050565b60006002820490506001821680613c1657607f821691505b60208210811415613c2a57613c29613d2e565b5b50919050565b6000613c3b82613c4c565b9050919050565b6000819050919050565b6000613c5782613d7b565b9050919050565b6000613c6982613d6e565b9050919050565b6000613c7b82613b5c565b9150613c8683613b5c565b925082613c9657613c95613cd0565b5b828206905092915050565b7f4e487b7100000000000000000000000000000000000000000000000000000000600052601160045260246000fd5b7f4e487b7100000000000000000000000000000000000000000000000000000000600052601260045260246000fd5b7f4e487b7100000000000000000000000000000000000000000000000000000000600052602160045260246000fd5b7f4e487b7100000000000000000000000000000000000000000000000000000000600052602260045260246000fd5b6000601f19601f8301169050919050565b60008160f81b9050919050565b60008160601b9050919050565b7f496e76616c69642073656e64657220616464726573732e000000000000000000600082015250565b7f45524332303a207472616e7366657220746f20746865207a65726f206164647260008201527f6573730000000000000000000000000000000000000000000000000000000000602082015250565b7f4f70706f6e656e7420686173206e6f7420796574206a6f696e6564207468652060008201527f67616d6500000000000000000000000000000000000000000000000000000000602082015250565b7f5468652063616c6c657227732061646472657373206973206e6f74207468652060008201527f6f70706f6e656e7420616464726573732073706563696669656420627920746860208201527f652067616d652063726561746f722e0000000000000000000000000000000000604082015250565b7f4e4f4e45206973206e6f7420616e20616c6c6f776564206d6f76652e00000000600082015250565b7f4f776e61626c653a206e6577206f776e657220697320746865207a65726f206160008201527f6464726573730000000000000000000000000000000000000000000000000000602082015250565b7f45524332303a20617070726f766520746f20746865207a65726f20616464726560008201527f7373000000000000000000000000000000000000000000000000000000000000602082015250565b7f54686520646561646c696e6520746f206a6f696e20746869732067616d65206860008201527f617320616c726561647920657870697265642e00000000000000000000000000602082015250565b7f45524332303a207472616e7366657220616d6f756e742065786365656473206260008201527f616c616e63650000000000000000000000000000000000000000000000000000602082015250565b7f556e61626c6520746f2063616e63656c3b20746865206f70706f6e656e74206960008201527f7320616c72656164792070617274696369706174696e6720696e20746869732060208201527f67616d652e000000000000000000000000000000000000000000000000000000604082015250565b7f546869732067616d6520616c7265616479206578697374732e2055736520612060008201527f646966666572656e742073656372657420616e642067656e657261746520612060208201527f6e65772067616d6549642e000000000000000000000000000000000000000000604082015250565b7f496e73756666696369656e7420746f6b656e2062616c616e636520746f20637260008201527f656174652061206e65772067616d652e00000000000000000000000000000000602082015250565b7f496e73756666696369656e7420746f6b656e2062616c616e636520746f206a6f60008201527f696e20612067616d652e00000000000000000000000000000000000000000000602082015250565b7f546869732067616d6520646f6573206e6f742065786973742e00000000000000600082015250565b7f54686520646561646c696e6520666f722072657665616c20666f72207468697360008201527f2067616d6520686173206e6f742079657420657870697265642e000000000000602082015250565b7f506c6561736520656e73757265207468652072657665616c2074696d6572206460008201527f75726174696f6e206973206265747765656e207468652061636365707461626c60208201527f65206d696e20616e64206d61782076616c7565732e0000000000000000000000604082015250565b7f546f6b656e206665652063616e6e6f74206265206c657373207468616e20302e600082015250565b7f47616d6520646f6573206e6f742065786973742e000000000000000000000000600082015250565b7f45524332303a207472616e7366657220616d6f756e742065786365656473206160008201527f6c6c6f77616e6365000000000000000000000000000000000000000000000000602082015250565b7f4f776e61626c653a2063616c6c6572206973206e6f7420746865206f776e6572600082015250565b7f506c6179657220646f65736e2774206861766520656e6f75676820746f6b656e60008201527f7320666f722074686973207761676572656420616d6f756e742e000000000000602082015250565b7f45524332303a207472616e736665722066726f6d20746865207a65726f20616460008201527f6472657373000000000000000000000000000000000000000000000000000000602082015250565b7f646561646c696e6520666f722072657665616c20686173206578706972656400600082015250565b7f546869732067616d6520646f6573206e6f742065786973740000000000000000600082015250565b7f45524332303a20617070726f76652066726f6d20746865207a65726f2061646460008201527f7265737300000000000000000000000000000000000000000000000000000000602082015250565b7f4e6f7420612076616c6964206f70706f6e656e7420616464726573732e000000600082015250565b7f546865206f70706f6e656e7420697320616c726561647920706172746963697060008201527f6174696e6720696e20746869732067616d652e00000000000000000000000000602082015250565b7f446561646c696e6520666f72206a6f696e20686173206e6f742079657420657860008201527f70697265642e0000000000000000000000000000000000000000000000000000602082015250565b7f6f70706f6e656e7420686173206e6f7420796574206a6f696e6564207468652060008201527f67616d6500000000000000000000000000000000000000000000000000000000602082015250565b7f506c6561736520656e73757265207468652074696d65206c65667420746f206a60008201527f6f696e207468652067616d65206973206265747765656e20746865206163636560208201527f707461626c65206d696e20616e64206d61782076616c7565732e000000000000604082015250565b7f45524332303a2064656372656173656420616c6c6f77616e63652062656c6f7760008201527f207a65726f000000000000000000000000000000000000000000000000000000602082015250565b6003811061469257614691613cff565b5b50565b600481106146a6576146a5613cff565b5b50565b6146b281613aee565b81146146bd57600080fd5b50565b6146c981613b00565b81146146d457600080fd5b50565b6146e081613b0c565b81146146eb57600080fd5b50565b600481106146fb57600080fd5b50565b61470781613b5c565b811461471257600080fd5b5056fe4368616e67696e6720666565496e546f6b656e732066726f6d202725752720746f2027257527a2646970667358221220bfad3ee5e26f665497a62e783f51963471d093330571d87e663db69a0b7fd58f64736f6c634300080400334368616e67696e6720666565496e546f6b656e732066726f6d202725752720746f20272575274465706c6f79696e67206120526f636b506170657253636973736f727320636f6e74726163742077697468206e616d652025732c2073796d626f6c2025732c205f666565496e546f6b656e73202575",
  "linkReferences": {},
  "deployedLinkReferences": {}
}