{
  "_format": "hh-sol-artifact-1",
  "contractName": "RockPaperScissors",
  "sourceName": "contracts/RockPaperScissors.sol",
  "abi": [
    {
      "inputs": [
        {
          "internalType": "string",
          "name": "_name",
          "type": "string"
        },
        {
          "internalType": "string",
          "name": "_symbol",
          "type": "string"
        },
        {
          "internalType": "uint256",
          "name": "_feeInTokens",
          "type": "uint256"
        }
      ],
      "stateMutability": "nonpayable",
      "type": "constructor"
    },
    {
      "anonymous": false,
      "inputs": [
        {
          "indexed": true,
          "internalType": "address",
          "name": "owner",
          "type": "address"
        },
        {
          "indexed": true,
          "internalType": "address",
          "name": "spender",
          "type": "address"
        },
        {
          "indexed": false,
          "internalType": "uint256",
          "name": "value",
          "type": "uint256"
        }
      ],
      "name": "Approval",
      "type": "event"
    },
    {
      "anonymous": false,
      "inputs": [
        {
          "indexed": true,
          "internalType": "address",
          "name": "sender",
          "type": "address"
        },
        {
          "indexed": true,
          "internalType": "bytes32",
          "name": "gameId",
          "type": "bytes32"
        }
      ],
      "name": "GameCancelled",
      "type": "event"
    },
    {
      "anonymous": false,
      "inputs": [
        {
          "indexed": true,
          "internalType": "address",
          "name": "player",
          "type": "address"
        },
        {
          "indexed": true,
          "internalType": "bytes32",
          "name": "gameId",
          "type": "bytes32"
        },
        {
          "indexed": true,
          "internalType": "address",
          "name": "opponent",
          "type": "address"
        },
        {
          "indexed": false,
          "internalType": "uint256",
          "name": "playerWager",
          "type": "uint256"
        },
        {
          "indexed": false,
          "internalType": "uint256",
          "name": "deadlineToJoin",
          "type": "uint256"
        }
      ],
      "name": "GameCreated",
      "type": "event"
    },
    {
      "anonymous": false,
      "inputs": [
        {
          "indexed": false,
          "internalType": "bytes32",
          "name": "gameId",
          "type": "bytes32"
        },
        {
          "indexed": false,
          "internalType": "enum RockPaperScissors.Shape",
          "name": "opponentMove",
          "type": "uint8"
        },
        {
          "indexed": false,
          "internalType": "uint256",
          "name": "opponentWager",
          "type": "uint256"
        },
        {
          "indexed": false,
          "internalType": "uint256",
          "name": "deadlineToReveal",
          "type": "uint256"
        }
      ],
      "name": "GameJoined",
      "type": "event"
    },
    {
      "anonymous": false,
      "inputs": [
        {
          "indexed": true,
          "internalType": "address",
          "name": "owner",
          "type": "address"
        }
      ],
      "name": "KillContract",
      "type": "event"
    },
    {
      "anonymous": false,
      "inputs": [
        {
          "indexed": true,
          "internalType": "address",
          "name": "sender",
          "type": "address"
        },
        {
          "indexed": true,
          "internalType": "bytes32",
          "name": "gameId",
          "type": "bytes32"
        },
        {
          "indexed": false,
          "internalType": "enum RockPaperScissors.Shape",
          "name": "playerMove",
          "type": "uint8"
        },
        {
          "indexed": false,
          "internalType": "enum RockPaperScissors.Payoff",
          "name": "payoff",
          "type": "uint8"
        }
      ],
      "name": "MoveRevealed",
      "type": "event"
    },
    {
      "anonymous": false,
      "inputs": [
        {
          "indexed": true,
          "internalType": "address",
          "name": "previousOwner",
          "type": "address"
        },
        {
          "indexed": true,
          "internalType": "address",
          "name": "newOwner",
          "type": "address"
        }
      ],
      "name": "OwnershipTransferred",
      "type": "event"
    },
    {
      "anonymous": false,
      "inputs": [
        {
          "indexed": true,
          "internalType": "address",
          "name": "sender",
          "type": "address"
        },
        {
          "indexed": false,
          "internalType": "uint256",
          "name": "secondsLeftToReveal",
          "type": "uint256"
        }
      ],
      "name": "SecondsLeftToRevealUpdated",
      "type": "event"
    },
    {
      "anonymous": false,
      "inputs": [
        {
          "indexed": true,
          "internalType": "address",
          "name": "sender",
          "type": "address"
        },
        {
          "indexed": true,
          "internalType": "bytes32",
          "name": "gameId",
          "type": "bytes32"
        }
      ],
      "name": "TotalWageredClaimed",
      "type": "event"
    },
    {
      "anonymous": false,
      "inputs": [
        {
          "indexed": true,
          "internalType": "address",
          "name": "from",
          "type": "address"
        },
        {
          "indexed": true,
          "internalType": "address",
          "name": "to",
          "type": "address"
        },
        {
          "indexed": false,
          "internalType": "uint256",
          "name": "value",
          "type": "uint256"
        }
      ],
      "name": "Transfer",
      "type": "event"
    },
    {
      "inputs": [
        {
          "internalType": "address",
          "name": "owner",
          "type": "address"
        },
        {
          "internalType": "address",
          "name": "spender",
          "type": "address"
        }
      ],
      "name": "allowance",
      "outputs": [
        {
          "internalType": "uint256",
          "name": "",
          "type": "uint256"
        }
      ],
      "stateMutability": "view",
      "type": "function"
    },
    {
      "inputs": [
        {
          "internalType": "address",
          "name": "spender",
          "type": "address"
        },
        {
          "internalType": "uint256",
          "name": "amount",
          "type": "uint256"
        }
      ],
      "name": "approve",
      "outputs": [
        {
          "internalType": "bool",
          "name": "",
          "type": "bool"
        }
      ],
      "stateMutability": "nonpayable",
      "type": "function"
    },
    {
      "inputs": [
        {
          "internalType": "address",
          "name": "account",
          "type": "address"
        }
      ],
      "name": "balanceOf",
      "outputs": [
        {
          "internalType": "uint256",
          "name": "",
          "type": "uint256"
        }
      ],
      "stateMutability": "view",
      "type": "function"
    },
    {
      "inputs": [
        {
          "internalType": "bytes32",
          "name": "gameId",
          "type": "bytes32"
        }
      ],
      "name": "cancelGame",
      "outputs": [],
      "stateMutability": "nonpayable",
      "type": "function"
    },
    {
      "inputs": [
        {
          "internalType": "bytes32",
          "name": "gameId",
          "type": "bytes32"
        }
      ],
      "name": "claimTotalWagered",
      "outputs": [],
      "stateMutability": "nonpayable",
      "type": "function"
    },
    {
      "inputs": [
        {
          "internalType": "bytes32",
          "name": "gameId",
          "type": "bytes32"
        },
        {
          "internalType": "address",
          "name": "opponent",
          "type": "address"
        },
        {
          "internalType": "uint256",
          "name": "secondsLeftToJoin",
          "type": "uint256"
        },
        {
          "internalType": "uint256",
          "name": "wager",
          "type": "uint256"
        },
        {
          "internalType": "bool",
          "name": "useWinnings",
          "type": "bool"
        }
      ],
      "name": "createGame",
      "outputs": [],
      "stateMutability": "nonpayable",
      "type": "function"
    },
    {
      "inputs": [],
      "name": "decimals",
      "outputs": [
        {
          "internalType": "uint8",
          "name": "",
          "type": "uint8"
        }
      ],
      "stateMutability": "pure",
      "type": "function"
    },
    {
      "inputs": [
        {
          "internalType": "address",
          "name": "spender",
          "type": "address"
        },
        {
          "internalType": "uint256",
          "name": "subtractedValue",
          "type": "uint256"
        }
      ],
      "name": "decreaseAllowance",
      "outputs": [
        {
          "internalType": "bool",
          "name": "",
          "type": "bool"
        }
      ],
      "stateMutability": "nonpayable",
      "type": "function"
    },
    {
      "inputs": [],
      "name": "feeInTokens",
      "outputs": [
        {
          "internalType": "uint256",
          "name": "",
          "type": "uint256"
        }
      ],
      "stateMutability": "view",
      "type": "function"
    },
    {
      "inputs": [
        {
          "internalType": "bytes32",
          "name": "",
          "type": "bytes32"
        }
      ],
      "name": "games",
      "outputs": [
        {
          "internalType": "address",
          "name": "player",
          "type": "address"
        },
        {
          "internalType": "address",
          "name": "opponent",
          "type": "address"
        },
        {
          "internalType": "enum RockPaperScissors.Shape",
          "name": "opponentMove",
          "type": "uint8"
        },
        {
          "internalType": "enum RockPaperScissors.Payoff",
          "name": "payoff",
          "type": "uint8"
        },
        {
          "internalType": "uint256",
          "name": "playerWager",
          "type": "uint256"
        },
        {
          "internalType": "uint256",
          "name": "opponentWager",
          "type": "uint256"
        },
        {
          "internalType": "uint256",
          "name": "deadline",
          "type": "uint256"
        }
      ],
      "stateMutability": "view",
      "type": "function"
    },
    {
      "inputs": [
        {
          "internalType": "enum RockPaperScissors.Shape",
          "name": "move",
          "type": "uint8"
        },
        {
          "internalType": "bytes32",
          "name": "secret",
          "type": "bytes32"
        }
      ],
      "name": "generateGameId",
      "outputs": [
        {
          "internalType": "bytes32",
          "name": "hashedMove",
          "type": "bytes32"
        }
      ],
      "stateMutability": "view",
      "type": "function"
    },
    {
      "inputs": [
        {
          "internalType": "address",
          "name": "spender",
          "type": "address"
        },
        {
          "internalType": "uint256",
          "name": "addedValue",
          "type": "uint256"
        }
      ],
      "name": "increaseAllowance",
      "outputs": [
        {
          "internalType": "bool",
          "name": "",
          "type": "bool"
        }
      ],
      "stateMutability": "nonpayable",
      "type": "function"
    },
    {
      "inputs": [
        {
          "internalType": "bytes32",
          "name": "gameId",
          "type": "bytes32"
        },
        {
          "internalType": "enum RockPaperScissors.Shape",
          "name": "move",
          "type": "uint8"
        },
        {
          "internalType": "uint256",
          "name": "wager",
          "type": "uint256"
        },
        {
          "internalType": "bool",
          "name": "useWinnings",
          "type": "bool"
        }
      ],
      "name": "joinGame",
      "outputs": [],
      "stateMutability": "nonpayable",
      "type": "function"
    },
    {
      "inputs": [],
      "name": "kill",
      "outputs": [],
      "stateMutability": "nonpayable",
      "type": "function"
    },
    {
      "inputs": [],
      "name": "name",
      "outputs": [
        {
          "internalType": "string",
          "name": "",
          "type": "string"
        }
      ],
      "stateMutability": "view",
      "type": "function"
    },
    {
      "inputs": [],
      "name": "owner",
      "outputs": [
        {
          "internalType": "address",
          "name": "",
          "type": "address"
        }
      ],
      "stateMutability": "view",
      "type": "function"
    },
    {
      "inputs": [
        {
          "internalType": "address",
          "name": "",
          "type": "address"
        }
      ],
      "name": "players",
      "outputs": [
        {
          "internalType": "uint32",
          "name": "totalGames",
          "type": "uint32"
        },
        {
          "internalType": "uint32",
          "name": "wins",
          "type": "uint32"
        },
        {
          "internalType": "uint32",
          "name": "losses",
          "type": "uint32"
        },
        {
          "internalType": "uint32",
          "name": "ties",
          "type": "uint32"
        },
        {
          "internalType": "uint256",
          "name": "winnings",
          "type": "uint256"
        }
      ],
      "stateMutability": "view",
      "type": "function"
    },
    {
      "inputs": [],
      "name": "renounceOwnership",
      "outputs": [],
      "stateMutability": "nonpayable",
      "type": "function"
    },
    {
      "inputs": [
        {
          "internalType": "enum RockPaperScissors.Shape",
          "name": "move",
          "type": "uint8"
        },
        {
          "internalType": "bytes32",
          "name": "secret",
          "type": "bytes32"
        }
      ],
      "name": "revealMove",
      "outputs": [],
      "stateMutability": "nonpayable",
      "type": "function"
    },
    {
      "inputs": [],
      "name": "secondsLeftToReveal",
      "outputs": [
        {
          "internalType": "uint256",
          "name": "",
          "type": "uint256"
        }
      ],
      "stateMutability": "view",
      "type": "function"
    },
    {
      "inputs": [
        {
          "internalType": "uint256",
          "name": "_feeInTokens",
          "type": "uint256"
        }
      ],
      "name": "setFeeInTokens",
      "outputs": [],
      "stateMutability": "nonpayable",
      "type": "function"
    },
    {
      "inputs": [
        {
          "internalType": "uint256",
          "name": "_secondsLeftToReveal",
          "type": "uint256"
        }
      ],
      "name": "setSecondsLeftToReveal",
      "outputs": [],
      "stateMutability": "nonpayable",
      "type": "function"
    },
    {
      "inputs": [],
      "name": "symbol",
      "outputs": [
        {
          "internalType": "string",
          "name": "",
          "type": "string"
        }
      ],
      "stateMutability": "view",
      "type": "function"
    },
    {
      "inputs": [],
      "name": "totalSupply",
      "outputs": [
        {
          "internalType": "uint256",
          "name": "",
          "type": "uint256"
        }
      ],
      "stateMutability": "view",
      "type": "function"
    },
    {
      "inputs": [
        {
          "internalType": "address",
          "name": "recipient",
          "type": "address"
        },
        {
          "internalType": "uint256",
          "name": "amount",
          "type": "uint256"
        }
      ],
      "name": "transfer",
      "outputs": [
        {
          "internalType": "bool",
          "name": "",
          "type": "bool"
        }
      ],
      "stateMutability": "nonpayable",
      "type": "function"
    },
    {
      "inputs": [
        {
          "internalType": "address",
          "name": "sender",
          "type": "address"
        },
        {
          "internalType": "address",
          "name": "recipient",
          "type": "address"
        },
        {
          "internalType": "uint256",
          "name": "amount",
          "type": "uint256"
        }
      ],
      "name": "transferFrom",
      "outputs": [
        {
          "internalType": "bool",
          "name": "",
          "type": "bool"
        }
      ],
      "stateMutability": "nonpayable",
      "type": "function"
    },
    {
      "inputs": [
        {
          "internalType": "address",
          "name": "newOwner",
          "type": "address"
        }
      ],
      "name": "transferOwnership",
      "outputs": [],
      "stateMutability": "nonpayable",
      "type": "function"
    }
  ],
  "bytecode": "0x6080604052603c600a55610e10600b55610e10600c5562069780600d553480156200002957600080fd5b50604051620061093803806200610983398181016040528101906200004f919062000786565b82828160039080519060200190620000699291906200064d565b508060049080519060200190620000829291906200064d565b505050620000a5620000996200014460201b60201c565b6200014c60201b60201c565b620000d76040518060800160405280604f815260200162006094604f91398484846200021260201b620027b91760201c565b6200011733620000ec620002be60201b60201c565b600a620000fa919062000b31565b633b9aca006200010b919062000c6e565b620002c360201b60201c565b62000128816200043c60201b60201c565b6200013b61012c620004c060201b60201c565b50505062000f14565b600033905090565b6000600560009054906101000a900473ffffffffffffffffffffffffffffffffffffffff16905081600560006101000a81548173ffffffffffffffffffffffffffffffffffffffff021916908373ffffffffffffffffffffffffffffffffffffffff1602179055508173ffffffffffffffffffffffffffffffffffffffff168173ffffffffffffffffffffffffffffffffffffffff167f8be0079c531659141344cd1fd0a4f28419497f9722a3daafe3b4186f6b6457e060405160405180910390a35050565b620002b8848484846040516024016200022f9493929190620008d5565b6040516020818303038152906040527f9fd009f5000000000000000000000000000000000000000000000000000000007bffffffffffffffffffffffffffffffffffffffffffffffffffffffff19166020820180517bffffffffffffffffffffffffffffffffffffffffffffffffffffffff83818316178352505050506200057160201b60201c565b50505050565b600090565b600073ffffffffffffffffffffffffffffffffffffffff168273ffffffffffffffffffffffffffffffffffffffff16141562000336576040517f08c379a00000000000000000000000000000000000000000000000000000000081526004016200032d90620009bf565b60405180910390fd5b6200034a600083836200059a60201b60201c565b80600260008282546200035e919062000a79565b92505081905550806000808473ffffffffffffffffffffffffffffffffffffffff1673ffffffffffffffffffffffffffffffffffffffff1681526020019081526020016000206000828254620003b5919062000a79565b925050819055508173ffffffffffffffffffffffffffffffffffffffff16600073ffffffffffffffffffffffffffffffffffffffff167fddf252ad1be2c89b69c2b068fc378daa952ba7f163c4a11628f55a4df523b3ef836040516200041c9190620009e1565b60405180910390a362000438600083836200059f60201b60201c565b5050565b600081101562000483576040517f08c379a00000000000000000000000000000000000000000000000000000000081526004016200047a906200097b565b60405180910390fd5b620004b6604051806060016040528060268152602001620060e36026913960085483620005a460201b6200285b1760201c565b8060088190555050565b80600a5411158015620004d55750600b548111155b62000517576040517f08c379a00000000000000000000000000000000000000000000000000000000081526004016200050e906200099d565b60405180910390fd5b806009819055503373ffffffffffffffffffffffffffffffffffffffff167fb9e5470bb29f00af2307da192c24884848e4bdb2035c7f773f368da55fc232a782604051620005669190620009e1565b60405180910390a250565b60008151905060006a636f6e736f6c652e6c6f679050602083016000808483855afa5050505050565b505050565b505050565b62000648838383604051602401620005bf9392919062000937565b6040516020818303038152906040527f969cdd03000000000000000000000000000000000000000000000000000000007bffffffffffffffffffffffffffffffffffffffffffffffffffffffff19166020820180517bffffffffffffffffffffffffffffffffffffffffffffffffffffffff83818316178352505050506200057160201b60201c565b505050565b8280546200065b9062000d1c565b90600052602060002090601f0160209004810192826200067f5760008555620006cb565b82601f106200069a57805160ff1916838001178555620006cb565b82800160010185558215620006cb579182015b82811115620006ca578251825591602001919060010190620006ad565b5b509050620006da9190620006de565b5090565b5b80821115620006f9576000816000905550600101620006df565b5090565b6000620007146200070e8462000a27565b620009fe565b9050828152602081018484840111156200072d57600080fd5b6200073a84828562000ce6565b509392505050565b600082601f8301126200075457600080fd5b815162000766848260208601620006fd565b91505092915050565b600081519050620007808162000efa565b92915050565b6000806000606084860312156200079c57600080fd5b600084015167ffffffffffffffff811115620007b757600080fd5b620007c58682870162000742565b935050602084015167ffffffffffffffff811115620007e357600080fd5b620007f18682870162000742565b925050604062000804868287016200076f565b9150509250925092565b60006200081b8262000a5d565b62000827818562000a68565b93506200083981856020860162000ce6565b620008448162000e15565b840191505092915050565b60006200085e60208362000a68565b91506200086b8262000e33565b602082019050919050565b600062000885605b8362000a68565b9150620008928262000e5c565b606082019050919050565b6000620008ac601f8362000a68565b9150620008b98262000ed1565b602082019050919050565b620008cf8162000ccf565b82525050565b60006080820190508181036000830152620008f181876200080e565b905081810360208301526200090781866200080e565b905081810360408301526200091d81856200080e565b90506200092e6060830184620008c4565b95945050505050565b600060608201905081810360008301526200095381866200080e565b9050620009646020830185620008c4565b620009736040830184620008c4565b949350505050565b6000602082019050818103600083015262000996816200084f565b9050919050565b60006020820190508181036000830152620009b88162000876565b9050919050565b60006020820190508181036000830152620009da816200089d565b9050919050565b6000602082019050620009f86000830184620008c4565b92915050565b600062000a0a62000a1d565b905062000a18828262000d52565b919050565b6000604051905090565b600067ffffffffffffffff82111562000a455762000a4462000de6565b5b62000a508262000e15565b9050602081019050919050565b600081519050919050565b600082825260208201905092915050565b600062000a868262000ccf565b915062000a938362000ccf565b9250827fffffffffffffffffffffffffffffffffffffffffffffffffffffffffffffffff0382111562000acb5762000aca62000d88565b5b828201905092915050565b6000808291508390505b600185111562000b285780860481111562000b005762000aff62000d88565b5b600185161562000b105780820291505b808102905062000b208562000e26565b945062000ae0565b94509492505050565b600062000b3e8262000ccf565b915062000b4b8362000cd9565b925062000b7a7fffffffffffffffffffffffffffffffffffffffffffffffffffffffffffffffff848462000b82565b905092915050565b60008262000b94576001905062000c67565b8162000ba4576000905062000c67565b816001811462000bbd576002811462000bc85762000bfe565b600191505062000c67565b60ff84111562000bdd5762000bdc62000d88565b5b8360020a91508482111562000bf75762000bf662000d88565b5b5062000c67565b5060208310610133831016604e8410600b841016171562000c385782820a90508381111562000c325762000c3162000d88565b5b62000c67565b62000c47848484600162000ad6565b9250905081840481111562000c615762000c6062000d88565b5b81810290505b9392505050565b600062000c7b8262000ccf565b915062000c888362000ccf565b9250817fffffffffffffffffffffffffffffffffffffffffffffffffffffffffffffffff048311821515161562000cc45762000cc362000d88565b5b828202905092915050565b6000819050919050565b600060ff82169050919050565b60005b8381101562000d0657808201518184015260208101905062000ce9565b8381111562000d16576000848401525b50505050565b6000600282049050600182168062000d3557607f821691505b6020821081141562000d4c5762000d4b62000db7565b5b50919050565b62000d5d8262000e15565b810181811067ffffffffffffffff8211171562000d7f5762000d7e62000de6565b5b80604052505050565b7f4e487b7100000000000000000000000000000000000000000000000000000000600052601160045260246000fd5b7f4e487b7100000000000000000000000000000000000000000000000000000000600052602260045260246000fd5b7f4e487b7100000000000000000000000000000000000000000000000000000000600052604160045260246000fd5b6000601f19601f8301169050919050565b60008160011c9050919050565b7f546f6b656e206665652063616e6e6f74206265206c657373207468616e20302e600082015250565b7f506c6561736520656e73757265207365636f6e64734c656674546f526576656160008201527f6c206973206265747765656e207468652061636365707461626c65206d696e2060208201527f2836302920616e64206d6178202833363030292076616c7565732e0000000000604082015250565b7f45524332303a206d696e7420746f20746865207a65726f206164647265737300600082015250565b62000f058162000ccf565b811462000f1157600080fd5b50565b6151708062000f246000396000f3fe608060405234801561001057600080fd5b50600436106101a95760003560e01c8063715018a6116100f9578063a9059cbb11610097578063e2eb41ff11610071578063e2eb41ff146104bc578063f2fde38b146104f0578063f3fbc3fe1461050c578063f579f88214610528576101a9565b8063a9059cbb1461043e578063b10d281e1461046e578063dd62ed3e1461048c576101a9565b806395d89b41116100d357806395d89b41146103b857806396b4d685146103d6578063a457c2d7146103f2578063a8f7d44214610422576101a9565b8063715018a6146103605780638929c02f1461036a5780638da5cb5b1461039a576101a9565b806339509351116101665780635628915f116101405780635628915f146102da57806361b5547e146102f85780636923744e1461031457806370a0823114610330576101a9565b806339509351146102845780633f7121b0146102b457806341c0e1b5146102d0576101a9565b806306fdde03146101ae578063095ea7b3146101cc57806309651cdb146101fc57806318160ddd1461021857806323b872dd14610236578063313ce56714610266575b600080fd5b6101b661055e565b6040516101c39190613cdc565b60405180910390f35b6101e660048036038101906101e191906133da565b6105f0565b6040516101f39190613c38565b60405180910390f35b6102166004803603810190610211919061357e565b61060e565b005b610220610696565b60405161022d91906141e6565b60405180910390f35b610250600480360381019061024b919061338b565b6106a0565b60405161025d9190613c38565b60405180910390f35b61026e610798565b60405161027b919061427d565b60405180910390f35b61029e600480360381019061029991906133da565b61079d565b6040516102ab9190613c38565b60405180910390f35b6102ce60048036038101906102c9919061343f565b610849565b005b6102d8610ae1565b005b6102e2610bc5565b6040516102ef91906141e6565b60405180910390f35b610312600480360381019061030d9190613468565b610bcb565b005b61032e6004803603810190610329919061357e565b610f25565b005b61034a60048036038101906103459190613326565b610fad565b60405161035791906141e6565b60405180910390f35b610368610ff5565b005b610384600480360381019061037f9190613542565b61107d565b6040516103919190613c53565b60405180910390f35b6103a26111d7565b6040516103af9190613b85565b60405180910390f35b6103c0611201565b6040516103cd9190613cdc565b60405180910390f35b6103f060048036038101906103eb919061343f565b611293565b005b61040c600480360381019061040791906133da565b61153b565b6040516104199190613c38565b60405180910390f35b61043c60048036038101906104379190613542565b611626565b005b610458600480360381019061045391906133da565b6120e2565b6040516104659190613c38565b60405180910390f35b610476612100565b60405161048391906141e6565b60405180910390f35b6104a660048036038101906104a1919061334f565b612106565b6040516104b391906141e6565b60405180910390f35b6104d660048036038101906104d19190613326565b61218d565b6040516104e795949392919061422a565b60405180910390f35b61050a60048036038101906105059190613326565b612203565b005b610526600480360381019061052191906134df565b6122fb565b005b610542600480360381019061053d919061343f565b61271d565b6040516105559796959493929190613ba0565b60405180910390f35b60606003805461056d9061444e565b80601f01602080910402602001604051908101604052809291908181526020018280546105999061444e565b80156105e65780601f106105bb576101008083540402835291602001916105e6565b820191906000526020600020905b8154815290600101906020018083116105c957829003601f168201915b5050505050905090565b60006106046105fd6128fa565b8484612902565b6001905092915050565b6106166128fa565b73ffffffffffffffffffffffffffffffffffffffff166106346111d7565b73ffffffffffffffffffffffffffffffffffffffff161461068a576040517f08c379a000000000000000000000000000000000000000000000000000000000815260040161068190614066565b60405180910390fd5b61069381612acd565b50565b6000600254905090565b60006106ad848484612b40565b6000600160008673ffffffffffffffffffffffffffffffffffffffff1673ffffffffffffffffffffffffffffffffffffffff16815260200190815260200160002060006106f86128fa565b73ffffffffffffffffffffffffffffffffffffffff1673ffffffffffffffffffffffffffffffffffffffff16815260200190815260200160002054905082811015610778576040517f08c379a000000000000000000000000000000000000000000000000000000000815260040161076f90614046565b60405180910390fd5b61078c856107846128fa565b858403612902565b60019150509392505050565b600090565b600061083f6107aa6128fa565b8484600160006107b86128fa565b73ffffffffffffffffffffffffffffffffffffffff1673ffffffffffffffffffffffffffffffffffffffff16815260200190815260200160002060008873ffffffffffffffffffffffffffffffffffffffff1673ffffffffffffffffffffffffffffffffffffffff1681526020019081526020016000205461083a91906142b4565b612902565b6001905092915050565b600060066000838152602001908152602001600020905060008160000160009054906101000a900473ffffffffffffffffffffffffffffffffffffffff169050600073ffffffffffffffffffffffffffffffffffffffff168173ffffffffffffffffffffffffffffffffffffffff1614156108f9576040517f08c379a00000000000000000000000000000000000000000000000000000000081526004016108f090613fc6565b60405180910390fd5b3373ffffffffffffffffffffffffffffffffffffffff168173ffffffffffffffffffffffffffffffffffffffff1614610967576040517f08c379a000000000000000000000000000000000000000000000000000000000815260040161095e90613fa6565b60405180910390fd5b600060038111156109a1577f4e487b7100000000000000000000000000000000000000000000000000000000600052602160045260246000fd5b8260010160149054906101000a900460ff1660038111156109eb577f4e487b7100000000000000000000000000000000000000000000000000000000600052602160045260246000fd5b14610a2b576040517f08c379a0000000000000000000000000000000000000000000000000000000008152600401610a2290613ee6565b60405180910390fd5b42826004015410610a71576040517f08c379a0000000000000000000000000000000000000000000000000000000008152600401610a6890614186565b60405180910390fd5b600082600201549050610a8384612dc1565b6000811115610a9757610a968282612e91565b5b833373ffffffffffffffffffffffffffffffffffffffff167f446c14486e35961084570d43d2b5f86421f0d1f28709d612150f2660fa8eb7e760405160405180910390a350505050565b610ae96128fa565b73ffffffffffffffffffffffffffffffffffffffff16610b076111d7565b73ffffffffffffffffffffffffffffffffffffffff1614610b5d576040517f08c379a0000000000000000000000000000000000000000000000000000000008152600401610b5490614066565b60405180910390fd5b6000610b676111d7565b90508073ffffffffffffffffffffffffffffffffffffffff167fb0da82b42ce84fb762f70bf2ebd4bce1b743f863450eb0c902f1e0d0ee45c83660405160405180910390a28073ffffffffffffffffffffffffffffffffffffffff16ff5b60095481565b600854610bd733610fad565b1015610c18576040517f08c379a0000000000000000000000000000000000000000000000000000000008152600401610c0f906140a6565b60405180910390fd5b600073ffffffffffffffffffffffffffffffffffffffff168473ffffffffffffffffffffffffffffffffffffffff161415610c88576040517f08c379a0000000000000000000000000000000000000000000000000000000008152600401610c7f90614146565b60405180910390fd5b3373ffffffffffffffffffffffffffffffffffffffff168473ffffffffffffffffffffffffffffffffffffffff161415610cf7576040517f08c379a0000000000000000000000000000000000000000000000000000000008152600401610cee90613f86565b60405180910390fd5b82600c5411158015610d0b5750600d548311155b610d4a576040517f08c379a0000000000000000000000000000000000000000000000000000000008152600401610d4190613f66565b60405180910390fd5b6000600660008781526020019081526020016000209050600073ffffffffffffffffffffffffffffffffffffffff168160000160009054906101000a900473ffffffffffffffffffffffffffffffffffffffff1673ffffffffffffffffffffffffffffffffffffffff1614610df4576040517f08c379a0000000000000000000000000000000000000000000000000000000008152600401610deb90613f46565b60405180910390fd5b338160000160006101000a81548173ffffffffffffffffffffffffffffffffffffffff021916908373ffffffffffffffffffffffffffffffffffffffff160217905550848160010160006101000a81548173ffffffffffffffffffffffffffffffffffffffff021916908373ffffffffffffffffffffffffffffffffffffffff160217905550610e85338484612f23565b9250610e9130846120e2565b5082816002018190555060008442610ea991906142b4565b90508082600401819055508573ffffffffffffffffffffffffffffffffffffffff16873373ffffffffffffffffffffffffffffffffffffffff167fae7ef1cccc943459691ffb6d7d7ae5654a190dc507f91fd8214782f6ffa9db7f8785604051610f14929190614201565b60405180910390a450505050505050565b610f2d6128fa565b73ffffffffffffffffffffffffffffffffffffffff16610f4b6111d7565b73ffffffffffffffffffffffffffffffffffffffff1614610fa1576040517f08c379a0000000000000000000000000000000000000000000000000000000008152600401610f9890614066565b60405180910390fd5b610faa81613068565b50565b60008060008373ffffffffffffffffffffffffffffffffffffffff1673ffffffffffffffffffffffffffffffffffffffff168152602001908152602001600020549050919050565b610ffd6128fa565b73ffffffffffffffffffffffffffffffffffffffff1661101b6111d7565b73ffffffffffffffffffffffffffffffffffffffff1614611071576040517f08c379a000000000000000000000000000000000000000000000000000000000815260040161106890614066565b60405180910390fd5b61107b6000613113565b565b60008073ffffffffffffffffffffffffffffffffffffffff163373ffffffffffffffffffffffffffffffffffffffff1614156110ee576040517f08c379a00000000000000000000000000000000000000000000000000000000081526004016110e590613dc6565b60405180910390fd5b60006003811115611128577f4e487b7100000000000000000000000000000000000000000000000000000000600052602160045260246000fd5b836003811115611161577f4e487b7100000000000000000000000000000000000000000000000000000000600052602160045260246000fd5b14156111a2576040517f08c379a000000000000000000000000000000000000000000000000000000000815260040161119990613de6565b60405180910390fd5b303384846040516020016111b99493929190613b37565b60405160208183030381529060405280519060200120905092915050565b6000600560009054906101000a900473ffffffffffffffffffffffffffffffffffffffff16905090565b6060600480546112109061444e565b80601f016020809104026020016040519081016040528092919081815260200182805461123c9061444e565b80156112895780601f1061125e57610100808354040283529160200191611289565b820191906000526020600020905b81548152906001019060200180831161126c57829003601f168201915b5050505050905090565b6000600660008381526020019081526020016000209050600073ffffffffffffffffffffffffffffffffffffffff168160000160009054906101000a900473ffffffffffffffffffffffffffffffffffffffff1673ffffffffffffffffffffffffffffffffffffffff16141561133e576040517f08c379a0000000000000000000000000000000000000000000000000000000008152600401611335906140e6565b60405180910390fd5b60006003811115611378577f4e487b7100000000000000000000000000000000000000000000000000000000600052602160045260246000fd5b8160010160149054906101000a900460ff1660038111156113c2577f4e487b7100000000000000000000000000000000000000000000000000000000600052602160045260246000fd5b1415611403576040517f08c379a00000000000000000000000000000000000000000000000000000000081526004016113fa90613e26565b60405180910390fd5b42816004015410611449576040517f08c379a000000000000000000000000000000000000000000000000000000000815260040161144090614006565b60405180910390fd5b60008160030154826002015461145f91906142b4565b905060008260010160009054906101000a900473ffffffffffffffffffffffffffffffffffffffff16905060048360010160156101000a81548160ff021916908360048111156114d8577f4e487b7100000000000000000000000000000000000000000000000000000000600052602160045260246000fd5b021790555060008211156114f1576114f08183612e91565b5b833373ffffffffffffffffffffffffffffffffffffffff167f9f870fb214082619510b2d8f37009c3da1d7ad5473b5853c0ad88663d18c70ad60405160405180910390a350505050565b6000806001600061154a6128fa565b73ffffffffffffffffffffffffffffffffffffffff1673ffffffffffffffffffffffffffffffffffffffff16815260200190815260200160002060008573ffffffffffffffffffffffffffffffffffffffff1673ffffffffffffffffffffffffffffffffffffffff16815260200190815260200160002054905082811015611607576040517f08c379a00000000000000000000000000000000000000000000000000000000081526004016115fe906141a6565b60405180910390fd5b61161b6116126128fa565b85858403612902565b600191505092915050565b6000611632838361107d565b9050600060066000838152602001908152602001600020905060008160000160009054906101000a900473ffffffffffffffffffffffffffffffffffffffff169050600073ffffffffffffffffffffffffffffffffffffffff168173ffffffffffffffffffffffffffffffffffffffff1614156116e4576040517f08c379a00000000000000000000000000000000000000000000000000000000081526004016116db90613f06565b60405180910390fd5b60008260010160149054906101000a900460ff16905060006003811115611734577f4e487b7100000000000000000000000000000000000000000000000000000000600052602160045260246000fd5b81600381111561176d577f4e487b7100000000000000000000000000000000000000000000000000000000600052602160045260246000fd5b14156117ae576040517f08c379a00000000000000000000000000000000000000000000000000000000081526004016117a590613f26565b60405180910390fd5b6117ed6040518060400160405280601581526020017f426c6f636b2074696d657374616d702069732025640000000000000000000000815250426131d9565b6118306040518060400160405280601381526020017f47616d6520646561646c696e652069732025640000000000000000000000000081525084600401546131d9565b8260040154421115611877576040517f08c379a000000000000000000000000000000000000000000000000000000000815260040161186e90613e86565b60405180910390fd5b6000836002015490506000846003015490506000818361189791906142b4565b905060008660010160009054906101000a900473ffffffffffffffffffffffffffffffffffffffff169050600060016003876003811115611901577f4e487b7100000000000000000000000000000000000000000000000000000000600052602160045260246000fd5b8d600381111561193a577f4e487b7100000000000000000000000000000000000000000000000000000000600052602160045260246000fd5b600361194691906142b4565b611950919061430a565b61195a91906144ed565b61196491906142b4565b600481111561199c577f4e487b7100000000000000000000000000000000000000000000000000000000600052602160045260246000fd5b9050808860010160156101000a81548160ff021916908360048111156119eb577f4e487b7100000000000000000000000000000000000000000000000000000000600052602160045260246000fd5b021790555060016004811115611a2a577f4e487b7100000000000000000000000000000000000000000000000000000000600052602160045260246000fd5b816004811115611a63577f4e487b7100000000000000000000000000000000000000000000000000000000600052602160045260246000fd5b1415611b8457611a738786612e91565b611a7d8285612e91565b600760008873ffffffffffffffffffffffffffffffffffffffff1673ffffffffffffffffffffffffffffffffffffffff168152602001908152602001600020600001600c81819054906101000a900463ffffffff1680929190611adf90614480565b91906101000a81548163ffffffff021916908363ffffffff16021790555050600760008373ffffffffffffffffffffffffffffffffffffffff1673ffffffffffffffffffffffffffffffffffffffff168152602001908152602001600020600001600c81819054906101000a900463ffffffff1680929190611b6090614480565b91906101000a81548163ffffffff021916908363ffffffff16021790555050611f82565b60026004811115611bbe577f4e487b7100000000000000000000000000000000000000000000000000000000600052602160045260246000fd5b816004811115611bf7577f4e487b7100000000000000000000000000000000000000000000000000000000600052602160045260246000fd5b1415611d6757611c078784612e91565b600760008873ffffffffffffffffffffffffffffffffffffffff1673ffffffffffffffffffffffffffffffffffffffff168152602001908152602001600020600001600481819054906101000a900463ffffffff1680929190611c6990614480565b91906101000a81548163ffffffff021916908363ffffffff1602179055505082600760008973ffffffffffffffffffffffffffffffffffffffff1673ffffffffffffffffffffffffffffffffffffffff1681526020019081526020016000206001016000828254611cda91906142b4565b92505081905550600760008373ffffffffffffffffffffffffffffffffffffffff1673ffffffffffffffffffffffffffffffffffffffff168152602001908152602001600020600001600881819054906101000a900463ffffffff1680929190611d4390614480565b91906101000a81548163ffffffff021916908363ffffffff16021790555050611f81565b60036004811115611da1577f4e487b7100000000000000000000000000000000000000000000000000000000600052602160045260246000fd5b816004811115611dda577f4e487b7100000000000000000000000000000000000000000000000000000000600052602160045260246000fd5b1415611f4a57611dea8284612e91565b600760008373ffffffffffffffffffffffffffffffffffffffff1673ffffffffffffffffffffffffffffffffffffffff168152602001908152602001600020600001600481819054906101000a900463ffffffff1680929190611e4c90614480565b91906101000a81548163ffffffff021916908363ffffffff1602179055505082600760008473ffffffffffffffffffffffffffffffffffffffff1673ffffffffffffffffffffffffffffffffffffffff1681526020019081526020016000206001016000828254611ebd91906142b4565b92505081905550600760008873ffffffffffffffffffffffffffffffffffffffff1673ffffffffffffffffffffffffffffffffffffffff168152602001908152602001600020600001600881819054906101000a900463ffffffff1680929190611f2690614480565b91906101000a81548163ffffffff021916908363ffffffff16021790555050611f80565b6000611f7f577f4e487b7100000000000000000000000000000000000000000000000000000000600052600160045260246000fd5b5b5b5b600760008873ffffffffffffffffffffffffffffffffffffffff1673ffffffffffffffffffffffffffffffffffffffff168152602001908152602001600020600001600081819054906101000a900463ffffffff1680929190611fe490614480565b91906101000a81548163ffffffff021916908363ffffffff16021790555050600760008373ffffffffffffffffffffffffffffffffffffffff1673ffffffffffffffffffffffffffffffffffffffff168152602001908152602001600020600001600081819054906101000a900463ffffffff168092919061206590614480565b91906101000a81548163ffffffff021916908363ffffffff16021790555050883373ffffffffffffffffffffffffffffffffffffffff167f822c7517d2fff3bb3f5d2335f2b88bdc22fc0bc73c4267ac62928bcf60738cd88d846040516120cd929190613cb3565b60405180910390a35050505050505050505050565b60006120f66120ef6128fa565b8484612b40565b6001905092915050565b60085481565b6000600160008473ffffffffffffffffffffffffffffffffffffffff1673ffffffffffffffffffffffffffffffffffffffff16815260200190815260200160002060008373ffffffffffffffffffffffffffffffffffffffff1673ffffffffffffffffffffffffffffffffffffffff16815260200190815260200160002054905092915050565b60076020528060005260406000206000915090508060000160009054906101000a900463ffffffff16908060000160049054906101000a900463ffffffff16908060000160089054906101000a900463ffffffff169080600001600c9054906101000a900463ffffffff16908060010154905085565b61220b6128fa565b73ffffffffffffffffffffffffffffffffffffffff166122296111d7565b73ffffffffffffffffffffffffffffffffffffffff161461227f576040517f08c379a000000000000000000000000000000000000000000000000000000000815260040161227690614066565b60405180910390fd5b600073ffffffffffffffffffffffffffffffffffffffff168173ffffffffffffffffffffffffffffffffffffffff1614156122ef576040517f08c379a00000000000000000000000000000000000000000000000000000000081526004016122e690613e46565b60405180910390fd5b6122f881613113565b50565b60085461230733610fad565b1015612348576040517f08c379a000000000000000000000000000000000000000000000000000000000815260040161233f90613fe6565b60405180910390fd5b60006003811115612382577f4e487b7100000000000000000000000000000000000000000000000000000000600052602160045260246000fd5b8360038111156123bb577f4e487b7100000000000000000000000000000000000000000000000000000000600052602160045260246000fd5b14156123fc576040517f08c379a00000000000000000000000000000000000000000000000000000000081526004016123f390613de6565b60405180910390fd5b6000600660008681526020019081526020016000209050600073ffffffffffffffffffffffffffffffffffffffff168160000160009054906101000a900473ffffffffffffffffffffffffffffffffffffffff1673ffffffffffffffffffffffffffffffffffffffff1614156124a7576040517f08c379a000000000000000000000000000000000000000000000000000000000815260040161249e90613fc6565b60405180910390fd5b60008160010160009054906101000a900473ffffffffffffffffffffffffffffffffffffffff1690503373ffffffffffffffffffffffffffffffffffffffff168173ffffffffffffffffffffffffffffffffffffffff161461253e576040517f08c379a0000000000000000000000000000000000000000000000000000000008152600401612535906141c6565b60405180910390fd5b60006003811115612578577f4e487b7100000000000000000000000000000000000000000000000000000000600052602160045260246000fd5b8260010160149054906101000a900460ff1660038111156125c2577f4e487b7100000000000000000000000000000000000000000000000000000000600052602160045260246000fd5b14612602576040517f08c379a00000000000000000000000000000000000000000000000000000000081526004016125f990614166565b60405180910390fd5b8160040154421115612649576040517f08c379a000000000000000000000000000000000000000000000000000000000815260040161264090613ea6565b60405180910390fd5b848260010160146101000a81548160ff02191690836003811115612696577f4e487b7100000000000000000000000000000000000000000000000000000000600052602160045260246000fd5b02179055506126a6338585612f23565b93506126b230856120e2565b508382600301819055506000600954426126cc91906142b4565b90508083600401819055507fbea699eabb9f35117986c8b673afc934d08142bce1d6183cac985fea93e871818787878460405161270c9493929190613c6e565b60405180910390a150505050505050565b60066020528060005260406000206000915090508060000160009054906101000a900473ffffffffffffffffffffffffffffffffffffffff16908060010160009054906101000a900473ffffffffffffffffffffffffffffffffffffffff16908060010160149054906101000a900460ff16908060010160159054906101000a900460ff16908060020154908060030154908060040154905087565b612855848484846040516024016127d39493929190613cfe565b6040516020818303038152906040527f9fd009f5000000000000000000000000000000000000000000000000000000007bffffffffffffffffffffffffffffffffffffffffffffffffffffffff19166020820180517bffffffffffffffffffffffffffffffffffffffffffffffffffffffff8381831617835250505050613275565b50505050565b6128f583838360405160240161287393929190613d88565b6040516020818303038152906040527f969cdd03000000000000000000000000000000000000000000000000000000007bffffffffffffffffffffffffffffffffffffffffffffffffffffffff19166020820180517bffffffffffffffffffffffffffffffffffffffffffffffffffffffff8381831617835250505050613275565b505050565b600033905090565b600073ffffffffffffffffffffffffffffffffffffffff168373ffffffffffffffffffffffffffffffffffffffff161415612972576040517f08c379a000000000000000000000000000000000000000000000000000000000815260040161296990614106565b60405180910390fd5b600073ffffffffffffffffffffffffffffffffffffffff168273ffffffffffffffffffffffffffffffffffffffff1614156129e2576040517f08c379a00000000000000000000000000000000000000000000000000000000081526004016129d990613e66565b60405180910390fd5b80600160008573ffffffffffffffffffffffffffffffffffffffff1673ffffffffffffffffffffffffffffffffffffffff16815260200190815260200160002060008473ffffffffffffffffffffffffffffffffffffffff1673ffffffffffffffffffffffffffffffffffffffff168152602001908152602001600020819055508173ffffffffffffffffffffffffffffffffffffffff168373ffffffffffffffffffffffffffffffffffffffff167f8c5be1e5ebec7d5bd14f71427d1e84f3dd0314c0f7b2291e5b200ac8c7c3b92583604051612ac091906141e6565b60405180910390a3505050565b6000811015612b11576040517f08c379a0000000000000000000000000000000000000000000000000000000008152600401612b0890614026565b60405180910390fd5b612b36604051806060016040528060268152602001615115602691396008548361285b565b8060088190555050565b600073ffffffffffffffffffffffffffffffffffffffff168373ffffffffffffffffffffffffffffffffffffffff161415612bb0576040517f08c379a0000000000000000000000000000000000000000000000000000000008152600401612ba7906140c6565b60405180910390fd5b600073ffffffffffffffffffffffffffffffffffffffff168273ffffffffffffffffffffffffffffffffffffffff161415612c20576040517f08c379a0000000000000000000000000000000000000000000000000000000008152600401612c1790613e06565b60405180910390fd5b612c2b83838361329e565b60008060008573ffffffffffffffffffffffffffffffffffffffff1673ffffffffffffffffffffffffffffffffffffffff16815260200190815260200160002054905081811015612cb1576040517f08c379a0000000000000000000000000000000000000000000000000000000008152600401612ca890613ec6565b60405180910390fd5b8181036000808673ffffffffffffffffffffffffffffffffffffffff1673ffffffffffffffffffffffffffffffffffffffff16815260200190815260200160002081905550816000808573ffffffffffffffffffffffffffffffffffffffff1673ffffffffffffffffffffffffffffffffffffffff1681526020019081526020016000206000828254612d4491906142b4565b925050819055508273ffffffffffffffffffffffffffffffffffffffff168473ffffffffffffffffffffffffffffffffffffffff167fddf252ad1be2c89b69c2b068fc378daa952ba7f163c4a11628f55a4df523b3ef84604051612da891906141e6565b60405180910390a3612dbb8484846132a3565b50505050565b600060066000838152602001908152602001600020905060008160010160006101000a81548173ffffffffffffffffffffffffffffffffffffffff021916908373ffffffffffffffffffffffffffffffffffffffff16021790555060008160010160146101000a81548160ff02191690836003811115612e6a577f4e487b7100000000000000000000000000000000000000000000000000000000600052602160045260246000fd5b02179055506000816002018190555060008160030181905550600081600401819055505050565b3073ffffffffffffffffffffffffffffffffffffffff1663a9059cbb83836040518363ffffffff1660e01b8152600401612ecc929190613c0f565b602060405180830381600087803b158015612ee657600080fd5b505af1158015612efa573d6000803e3d6000fd5b505050506040513d601f19601f82011682018060405250810190612f1e9190613416565b505050565b6000612f2e84610fad565b831115612f70576040517f08c379a0000000000000000000000000000000000000000000000000000000008152600401612f6790614086565b60405180910390fd5b8290508115613061576000600760008673ffffffffffffffffffffffffffffffffffffffff1673ffffffffffffffffffffffffffffffffffffffff168152602001908152602001600020600101541180156130155750600760008573ffffffffffffffffffffffffffffffffffffffff1673ffffffffffffffffffffffffffffffffffffffff1681526020019081526020016000206001015461301285610fad565b10155b1561306057600760008573ffffffffffffffffffffffffffffffffffffffff1673ffffffffffffffffffffffffffffffffffffffff1681526020019081526020016000206001015490505b5b9392505050565b80600a541115801561307c5750600b548111155b6130bb576040517f08c379a00000000000000000000000000000000000000000000000000000000081526004016130b290614126565b60405180910390fd5b806009819055503373ffffffffffffffffffffffffffffffffffffffff167fb9e5470bb29f00af2307da192c24884848e4bdb2035c7f773f368da55fc232a78260405161310891906141e6565b60405180910390a250565b6000600560009054906101000a900473ffffffffffffffffffffffffffffffffffffffff16905081600560006101000a81548173ffffffffffffffffffffffffffffffffffffffff021916908373ffffffffffffffffffffffffffffffffffffffff1602179055508173ffffffffffffffffffffffffffffffffffffffff168173ffffffffffffffffffffffffffffffffffffffff167f8be0079c531659141344cd1fd0a4f28419497f9722a3daafe3b4186f6b6457e060405160405180910390a35050565b61327182826040516024016131ef929190613d58565b6040516020818303038152906040527f9710a9d0000000000000000000000000000000000000000000000000000000007bffffffffffffffffffffffffffffffffffffffffffffffffffffffff19166020820180517bffffffffffffffffffffffffffffffffffffffffffffffffffffffff8381831617835250505050613275565b5050565b60008151905060006a636f6e736f6c652e6c6f679050602083016000808483855afa5050505050565b505050565b505050565b6000813590506132b7816150a8565b92915050565b6000813590506132cc816150bf565b92915050565b6000815190506132e1816150bf565b92915050565b6000813590506132f6816150d6565b92915050565b60008135905061330b816150ed565b92915050565b600081359050613320816150fd565b92915050565b60006020828403121561333857600080fd5b6000613346848285016132a8565b91505092915050565b6000806040838503121561336257600080fd5b6000613370858286016132a8565b9250506020613381858286016132a8565b9150509250929050565b6000806000606084860312156133a057600080fd5b60006133ae868287016132a8565b93505060206133bf868287016132a8565b92505060406133d086828701613311565b9150509250925092565b600080604083850312156133ed57600080fd5b60006133fb858286016132a8565b925050602061340c85828601613311565b9150509250929050565b60006020828403121561342857600080fd5b6000613436848285016132d2565b91505092915050565b60006020828403121561345157600080fd5b600061345f848285016132e7565b91505092915050565b600080600080600060a0868803121561348057600080fd5b600061348e888289016132e7565b955050602061349f888289016132a8565b94505060406134b088828901613311565b93505060606134c188828901613311565b92505060806134d2888289016132bd565b9150509295509295909350565b600080600080608085870312156134f557600080fd5b6000613503878288016132e7565b9450506020613514878288016132fc565b935050604061352587828801613311565b9250506060613536878288016132bd565b91505092959194509250565b6000806040838503121561355557600080fd5b6000613563858286016132fc565b9250506020613574858286016132e7565b9150509250929050565b60006020828403121561359057600080fd5b600061359e84828501613311565b91505092915050565b6135b08161433e565b82525050565b6135c76135c28261433e565b6144ad565b82525050565b6135d681614350565b82525050565b6135e58161435c565b82525050565b6135fc6135f78261435c565b6144bf565b82525050565b61361361360e826143d3565b6144ad565b82525050565b613622816143f7565b82525050565b61363181614409565b82525050565b61364861364382614409565b6144db565b82525050565b600061365982614298565b61366381856142a3565b935061367381856020860161441b565b61367c816145da565b840191505092915050565b60006136946017836142a3565b915061369f82614605565b602082019050919050565b60006136b76019836142a3565b91506136c28261462e565b602082019050919050565b60006136da6023836142a3565b91506136e582614657565b604082019050919050565b60006136fd6025836142a3565b9150613708826146a6565b604082019050919050565b60006137206026836142a3565b915061372b826146f5565b604082019050919050565b60006137436022836142a3565b915061374e82614744565b604082019050919050565b60006137666064836142a3565b915061377182614793565b608082019050919050565b60006137896033836142a3565b91506137948261482e565b604082019050919050565b60006137ac6026836142a3565b91506137b78261487d565b604082019050919050565b60006137cf6045836142a3565b91506137da826148cc565b606082019050919050565b60006137f2603e836142a3565b91506137fd82614941565b604082019050919050565b60006138156029836142a3565b915061382082614990565b604082019050919050565b6000613838604b836142a3565b9150613843826149df565b606082019050919050565b600061385b606a836142a3565b915061386682614a54565b608082019050919050565b600061387e603d836142a3565b915061388982614aef565b604082019050919050565b60006138a16045836142a3565b91506138ac82614b3e565b606082019050919050565b60006138c46019836142a3565b91506138cf82614bb3565b602082019050919050565b60006138e7602c836142a3565b91506138f282614bdc565b604082019050919050565b600061390a603a836142a3565b915061391582614c2b565b604082019050919050565b600061392d6020836142a3565b915061393882614c7a565b602082019050919050565b60006139506028836142a3565b915061395b82614ca3565b604082019050919050565b60006139736020836142a3565b915061397e82614cf2565b602082019050919050565b6000613996603a836142a3565b91506139a182614d1b565b604082019050919050565b60006139b9602c836142a3565b91506139c482614d6a565b604082019050919050565b60006139dc6025836142a3565b91506139e782614db9565b604082019050919050565b60006139ff6018836142a3565b9150613a0a82614e08565b602082019050919050565b6000613a226024836142a3565b9150613a2d82614e31565b604082019050919050565b6000613a45605b836142a3565b9150613a5082614e80565b606082019050919050565b6000613a68601d836142a3565b9150613a7382614ef5565b602082019050919050565b6000613a8b6033836142a3565b9150613a9682614f1e565b604082019050919050565b6000613aae6026836142a3565b9150613ab982614f6d565b604082019050919050565b6000613ad16025836142a3565b9150613adc82614fbc565b604082019050919050565b6000613af4604f836142a3565b9150613aff8261500b565b606082019050919050565b613b13816143ac565b82525050565b613b22816143b6565b82525050565b613b31816143c6565b82525050565b6000613b438287613602565b601482019150613b5382866135b6565b601482019150613b638285613637565b600182019150613b7382846135eb565b60208201915081905095945050505050565b6000602082019050613b9a60008301846135a7565b92915050565b600060e082019050613bb5600083018a6135a7565b613bc260208301896135a7565b613bcf6040830188613628565b613bdc6060830187613619565b613be96080830186613b0a565b613bf660a0830185613b0a565b613c0360c0830184613b0a565b98975050505050505050565b6000604082019050613c2460008301856135a7565b613c316020830184613b0a565b9392505050565b6000602082019050613c4d60008301846135cd565b92915050565b6000602082019050613c6860008301846135dc565b92915050565b6000608082019050613c8360008301876135dc565b613c906020830186613628565b613c9d6040830185613b0a565b613caa6060830184613b0a565b95945050505050565b6000604082019050613cc86000830185613628565b613cd56020830184613619565b9392505050565b60006020820190508181036000830152613cf6818461364e565b905092915050565b60006080820190508181036000830152613d18818761364e565b90508181036020830152613d2c818661364e565b90508181036040830152613d40818561364e565b9050613d4f6060830184613b0a565b95945050505050565b60006040820190508181036000830152613d72818561364e565b9050613d816020830184613b0a565b9392505050565b60006060820190508181036000830152613da2818661364e565b9050613db16020830185613b0a565b613dbe6040830184613b0a565b949350505050565b60006020820190508181036000830152613ddf81613687565b9050919050565b60006020820190508181036000830152613dff816136aa565b9050919050565b60006020820190508181036000830152613e1f816136cd565b9050919050565b60006020820190508181036000830152613e3f816136f0565b9050919050565b60006020820190508181036000830152613e5f81613713565b9050919050565b60006020820190508181036000830152613e7f81613736565b9050919050565b60006020820190508181036000830152613e9f81613759565b9050919050565b60006020820190508181036000830152613ebf8161377c565b9050919050565b60006020820190508181036000830152613edf8161379f565b9050919050565b60006020820190508181036000830152613eff816137c2565b9050919050565b60006020820190508181036000830152613f1f816137e5565b9050919050565b60006020820190508181036000830152613f3f81613808565b9050919050565b60006020820190508181036000830152613f5f8161382b565b9050919050565b60006020820190508181036000830152613f7f8161384e565b9050919050565b60006020820190508181036000830152613f9f81613871565b9050919050565b60006020820190508181036000830152613fbf81613894565b9050919050565b60006020820190508181036000830152613fdf816138b7565b9050919050565b60006020820190508181036000830152613fff816138da565b9050919050565b6000602082019050818103600083015261401f816138fd565b9050919050565b6000602082019050818103600083015261403f81613920565b9050919050565b6000602082019050818103600083015261405f81613943565b9050919050565b6000602082019050818103600083015261407f81613966565b9050919050565b6000602082019050818103600083015261409f81613989565b9050919050565b600060208201905081810360008301526140bf816139ac565b9050919050565b600060208201905081810360008301526140df816139cf565b9050919050565b600060208201905081810360008301526140ff816139f2565b9050919050565b6000602082019050818103600083015261411f81613a15565b9050919050565b6000602082019050818103600083015261413f81613a38565b9050919050565b6000602082019050818103600083015261415f81613a5b565b9050919050565b6000602082019050818103600083015261417f81613a7e565b9050919050565b6000602082019050818103600083015261419f81613aa1565b9050919050565b600060208201905081810360008301526141bf81613ac4565b9050919050565b600060208201905081810360008301526141df81613ae7565b9050919050565b60006020820190506141fb6000830184613b0a565b92915050565b60006040820190506142166000830185613b0a565b6142236020830184613b0a565b9392505050565b600060a08201905061423f6000830188613b19565b61424c6020830187613b19565b6142596040830186613b19565b6142666060830185613b19565b6142736080830184613b0a565b9695505050505050565b60006020820190506142926000830184613b28565b92915050565b600081519050919050565b600082825260208201905092915050565b60006142bf826143ac565b91506142ca836143ac565b9250827fffffffffffffffffffffffffffffffffffffffffffffffffffffffffffffffff038211156142ff576142fe61451e565b5b828201905092915050565b6000614315826143ac565b9150614320836143ac565b9250828210156143335761433261451e565b5b828203905092915050565b60006143498261438c565b9050919050565b60008115159050919050565b6000819050919050565b600081905061437482615080565b919050565b600081905061438782615094565b919050565b600073ffffffffffffffffffffffffffffffffffffffff82169050919050565b6000819050919050565b600063ffffffff82169050919050565b600060ff82169050919050565b60006143de826143e5565b9050919050565b60006143f08261438c565b9050919050565b600061440282614366565b9050919050565b600061441482614379565b9050919050565b60005b8381101561443957808201518184015260208101905061441e565b83811115614448576000848401525b50505050565b6000600282049050600182168061446657607f821691505b6020821081141561447a576144796145ab565b5b50919050565b600061448b826143b6565b915063ffffffff8214156144a2576144a161451e565b5b600182019050919050565b60006144b8826144c9565b9050919050565b6000819050919050565b60006144d4826145f8565b9050919050565b60006144e6826145eb565b9050919050565b60006144f8826143ac565b9150614503836143ac565b9250826145135761451261454d565b5b828206905092915050565b7f4e487b7100000000000000000000000000000000000000000000000000000000600052601160045260246000fd5b7f4e487b7100000000000000000000000000000000000000000000000000000000600052601260045260246000fd5b7f4e487b7100000000000000000000000000000000000000000000000000000000600052602160045260246000fd5b7f4e487b7100000000000000000000000000000000000000000000000000000000600052602260045260246000fd5b6000601f19601f8301169050919050565b60008160f81b9050919050565b60008160601b9050919050565b7f496e76616c69642073656e64657220616464726573732e000000000000000000600082015250565b7f4e4f4e45206973206e6f7420612076616c6964206d6f76652e00000000000000600082015250565b7f45524332303a207472616e7366657220746f20746865207a65726f206164647260008201527f6573730000000000000000000000000000000000000000000000000000000000602082015250565b7f4f70706f6e656e7420686173206e6f7420796574206a6f696e6564207468652060008201527f67616d652e000000000000000000000000000000000000000000000000000000602082015250565b7f4f776e61626c653a206e6577206f776e657220697320746865207a65726f206160008201527f6464726573730000000000000000000000000000000000000000000000000000602082015250565b7f45524332303a20617070726f766520746f20746865207a65726f20616464726560008201527f7373000000000000000000000000000000000000000000000000000000000000602082015250565b7f54686520646561646c696e6520666f72207468652072657665616c206861732060008201527f657870697265642e20546865206f70706f6e656e74206d6179206f72206d617960208201527f206e6f7420636c61696d2074686520746f74616c20616d6f756e74207761676560408201527f7265642e00000000000000000000000000000000000000000000000000000000606082015250565b7f54686520646561646c696e6520746f206a6f696e20746869732067616d65206860008201527f617320616c726561647920657870697265642e00000000000000000000000000602082015250565b7f45524332303a207472616e7366657220616d6f756e742065786365656473206260008201527f616c616e63650000000000000000000000000000000000000000000000000000602082015250565b7f556e61626c6520746f2063616e63656c3b20746865206f70706f6e656e74206960008201527f7320616c72656164792070617274696369706174696e6720696e20746869732060208201527f67616d652e000000000000000000000000000000000000000000000000000000604082015250565b7f506c61796572206d6f7665206f722073656372657420617267756d656e74206960008201527f6e636f72726563743a2067616d6520646f6573206e6f742065786973742e0000602082015250565b7f546865206f70706f6e656e7420686173206e6f7420796574206a6f696e65642060008201527f7468652067616d652e0000000000000000000000000000000000000000000000602082015250565b7f546869732067616d6520616c7265616479206578697374732e2055736520612060008201527f646966666572656e742073656372657420616e642067656e657261746520612060208201527f6e65772067616d6549642e000000000000000000000000000000000000000000604082015250565b7f506c6561736520656e73757265207468652074696d65206c65667420746f206a60008201527f6f696e207468652067616d65206973206265747765656e20746865206163636560208201527f707461626c65206d696e2028333630302920616e64206d61782028343332303060408201527f30292076616c7565732e00000000000000000000000000000000000000000000606082015250565b7f4e6f7420612076616c6964206f70706f6e656e743b20706c617965727320636160008201527f6e6e6f7420706c617920616761696e7374207468656d73656c7665732e000000602082015250565b7f506c61796572206973206e6f7420706c6179657220666f72207468697320676160008201527f6d653b206e6f74207065726d697474656420746f2063616e63656c207468652060208201527f67616d652e000000000000000000000000000000000000000000000000000000604082015250565b7f546869732067616d6520646f6573206e6f742065786973742e00000000000000600082015250565b7f496e73756666696369656e7420746f6b656e2062616c616e636520746f206a6f60008201527f696e207468652067616d652e0000000000000000000000000000000000000000602082015250565b7f54686520646561646c696e6520666f722072657665616c20666f72207468697360008201527f2067616d6520686173206e6f742079657420657870697265642e000000000000602082015250565b7f546f6b656e206665652063616e6e6f74206265206c657373207468616e20302e600082015250565b7f45524332303a207472616e7366657220616d6f756e742065786365656473206160008201527f6c6c6f77616e6365000000000000000000000000000000000000000000000000602082015250565b7f4f776e61626c653a2063616c6c6572206973206e6f7420746865206f776e6572600082015250565b7f506c6179657220646f65736e2774206861766520656e6f75676820746f6b656e60008201527f7320666f722074686973207761676572656420616d6f756e742e000000000000602082015250565b7f496e73756666696369656e7420746f6b656e2062616c616e636520746f20637260008201527f6561746520612067616d652e0000000000000000000000000000000000000000602082015250565b7f45524332303a207472616e736665722066726f6d20746865207a65726f20616460008201527f6472657373000000000000000000000000000000000000000000000000000000602082015250565b7f546869732067616d6520646f6573206e6f742065786973740000000000000000600082015250565b7f45524332303a20617070726f76652066726f6d20746865207a65726f2061646460008201527f7265737300000000000000000000000000000000000000000000000000000000602082015250565b7f506c6561736520656e73757265207365636f6e64734c656674546f526576656160008201527f6c206973206265747765656e207468652061636365707461626c65206d696e2060208201527f2836302920616e64206d6178202833363030292076616c7565732e0000000000604082015250565b7f4e6f7420612076616c6964206f70706f6e656e7420616464726573732e000000600082015250565b7f546865206f70706f6e656e7420697320616c726561647920706172746963697060008201527f6174696e6720696e20746869732067616d652e00000000000000000000000000602082015250565b7f446561646c696e6520666f72206a6f696e20686173206e6f742079657420657860008201527f70697265642e0000000000000000000000000000000000000000000000000000602082015250565b7f45524332303a2064656372656173656420616c6c6f77616e63652062656c6f7760008201527f207a65726f000000000000000000000000000000000000000000000000000000602082015250565b7f5468652073656e64657227732061646472657373206973206e6f74207468652060008201527f6f70706f6e656e7420616464726573732073706563696669656420627920746860208201527f652067616d652063726561746f722e0000000000000000000000000000000000604082015250565b600581106150915761509061457c565b5b50565b600481106150a5576150a461457c565b5b50565b6150b18161433e565b81146150bc57600080fd5b50565b6150c881614350565b81146150d357600080fd5b50565b6150df8161435c565b81146150ea57600080fd5b50565b600481106150fa57600080fd5b50565b615106816143ac565b811461511157600080fd5b5056fe4368616e67696e6720666565496e546f6b656e732066726f6d202725642720746f2027256427a264697066735822122012690e2307a9c4a255f7fd85719ae58864c6ed3d68683e9f97911a4fee19740f64736f6c634300080400334465706c6f79696e67206120526f636b506170657253636973736f727320636f6e74726163742077697468206e616d652025732c2073796d626f6c2025732c205f666565496e546f6b656e732025644368616e67696e6720666565496e546f6b656e732066726f6d202725642720746f2027256427",
  "linkReferences": {},
  "deployedLinkReferences": {}
}