{
  "_format": "hh-sol-artifact-1",
  "contractName": "RockPaperScissors",
  "sourceName": "contracts/RockPaperScissors.sol",
  "abi": [
    {
      "inputs": [
        {
          "internalType": "string",
          "name": "_name",
          "type": "string"
        },
        {
          "internalType": "string",
          "name": "_symbol",
          "type": "string"
        },
        {
          "internalType": "uint256",
          "name": "_feeInTokens",
          "type": "uint256"
        }
      ],
      "stateMutability": "nonpayable",
      "type": "constructor"
    },
    {
      "anonymous": false,
      "inputs": [
        {
          "indexed": true,
          "internalType": "address",
          "name": "owner",
          "type": "address"
        },
        {
          "indexed": true,
          "internalType": "address",
          "name": "spender",
          "type": "address"
        },
        {
          "indexed": false,
          "internalType": "uint256",
          "name": "value",
          "type": "uint256"
        }
      ],
      "name": "Approval",
      "type": "event"
    },
    {
      "anonymous": false,
      "inputs": [
        {
          "indexed": true,
          "internalType": "address",
          "name": "sender",
          "type": "address"
        },
        {
          "indexed": true,
          "internalType": "bytes32",
          "name": "gameId",
          "type": "bytes32"
        }
      ],
      "name": "GameCancelled",
      "type": "event"
    },
    {
      "anonymous": false,
      "inputs": [
        {
          "indexed": true,
          "internalType": "address",
          "name": "player",
          "type": "address"
        },
        {
          "indexed": true,
          "internalType": "bytes32",
          "name": "gameId",
          "type": "bytes32"
        },
        {
          "indexed": true,
          "internalType": "address",
          "name": "opponent",
          "type": "address"
        },
        {
          "indexed": false,
          "internalType": "uint256",
          "name": "playerWager",
          "type": "uint256"
        },
        {
          "indexed": false,
          "internalType": "uint256",
          "name": "deadlineToJoin",
          "type": "uint256"
        }
      ],
      "name": "GameCreated",
      "type": "event"
    },
    {
      "anonymous": false,
      "inputs": [
        {
          "indexed": false,
          "internalType": "bytes32",
          "name": "gameId",
          "type": "bytes32"
        },
        {
          "indexed": false,
          "internalType": "enum RockPaperScissors.Shape",
          "name": "opponentMove",
          "type": "uint8"
        },
        {
          "indexed": false,
          "internalType": "uint256",
          "name": "opponentWager",
          "type": "uint256"
        },
        {
          "indexed": false,
          "internalType": "uint256",
          "name": "deadlineToReveal",
          "type": "uint256"
        }
      ],
      "name": "GameJoined",
      "type": "event"
    },
    {
      "anonymous": false,
      "inputs": [
        {
          "indexed": true,
          "internalType": "address",
          "name": "owner",
          "type": "address"
        }
      ],
      "name": "KillContract",
      "type": "event"
    },
    {
      "anonymous": false,
      "inputs": [
        {
          "indexed": true,
          "internalType": "address",
          "name": "sender",
          "type": "address"
        },
        {
          "indexed": true,
          "internalType": "bytes32",
          "name": "gameId",
          "type": "bytes32"
        },
        {
          "indexed": false,
          "internalType": "enum RockPaperScissors.Shape",
          "name": "playerMove",
          "type": "uint8"
        },
        {
          "indexed": false,
          "internalType": "enum RockPaperScissors.Payoff",
          "name": "payoff",
          "type": "uint8"
        }
      ],
      "name": "MoveRevealed",
      "type": "event"
    },
    {
      "anonymous": false,
      "inputs": [
        {
          "indexed": true,
          "internalType": "address",
          "name": "previousOwner",
          "type": "address"
        },
        {
          "indexed": true,
          "internalType": "address",
          "name": "newOwner",
          "type": "address"
        }
      ],
      "name": "OwnershipTransferred",
      "type": "event"
    },
    {
      "anonymous": false,
      "inputs": [
        {
          "indexed": true,
          "internalType": "address",
          "name": "sender",
          "type": "address"
        },
        {
          "indexed": false,
          "internalType": "uint256",
          "name": "secondsUntilReveal",
          "type": "uint256"
        }
      ],
      "name": "SecondsUntilRevealUpdated",
      "type": "event"
    },
    {
      "anonymous": false,
      "inputs": [
        {
          "indexed": true,
          "internalType": "address",
          "name": "sender",
          "type": "address"
        },
        {
          "indexed": true,
          "internalType": "bytes32",
          "name": "gameId",
          "type": "bytes32"
        }
      ],
      "name": "TotalWageredClaimed",
      "type": "event"
    },
    {
      "anonymous": false,
      "inputs": [
        {
          "indexed": true,
          "internalType": "address",
          "name": "from",
          "type": "address"
        },
        {
          "indexed": true,
          "internalType": "address",
          "name": "to",
          "type": "address"
        },
        {
          "indexed": false,
          "internalType": "uint256",
          "name": "value",
          "type": "uint256"
        }
      ],
      "name": "Transfer",
      "type": "event"
    },
    {
      "inputs": [
        {
          "internalType": "address",
          "name": "owner",
          "type": "address"
        },
        {
          "internalType": "address",
          "name": "spender",
          "type": "address"
        }
      ],
      "name": "allowance",
      "outputs": [
        {
          "internalType": "uint256",
          "name": "",
          "type": "uint256"
        }
      ],
      "stateMutability": "view",
      "type": "function"
    },
    {
      "inputs": [
        {
          "internalType": "address",
          "name": "spender",
          "type": "address"
        },
        {
          "internalType": "uint256",
          "name": "amount",
          "type": "uint256"
        }
      ],
      "name": "approve",
      "outputs": [
        {
          "internalType": "bool",
          "name": "",
          "type": "bool"
        }
      ],
      "stateMutability": "nonpayable",
      "type": "function"
    },
    {
      "inputs": [
        {
          "internalType": "address",
          "name": "account",
          "type": "address"
        }
      ],
      "name": "balanceOf",
      "outputs": [
        {
          "internalType": "uint256",
          "name": "",
          "type": "uint256"
        }
      ],
      "stateMutability": "view",
      "type": "function"
    },
    {
      "inputs": [
        {
          "internalType": "bytes32",
          "name": "gameId",
          "type": "bytes32"
        }
      ],
      "name": "cancelGame",
      "outputs": [],
      "stateMutability": "nonpayable",
      "type": "function"
    },
    {
      "inputs": [
        {
          "internalType": "bytes32",
          "name": "gameId",
          "type": "bytes32"
        }
      ],
      "name": "claimTotalWagered",
      "outputs": [],
      "stateMutability": "nonpayable",
      "type": "function"
    },
    {
      "inputs": [
        {
          "internalType": "bytes32",
          "name": "gameId",
          "type": "bytes32"
        },
        {
          "internalType": "address",
          "name": "opponent",
          "type": "address"
        },
        {
          "internalType": "uint256",
          "name": "minutesLeftToJoin",
          "type": "uint256"
        },
        {
          "internalType": "uint256",
          "name": "wager",
          "type": "uint256"
        },
        {
          "internalType": "bool",
          "name": "useWinnings",
          "type": "bool"
        }
      ],
      "name": "createGame",
      "outputs": [],
      "stateMutability": "nonpayable",
      "type": "function"
    },
    {
      "inputs": [],
      "name": "decimals",
      "outputs": [
        {
          "internalType": "uint8",
          "name": "",
          "type": "uint8"
        }
      ],
      "stateMutability": "pure",
      "type": "function"
    },
    {
      "inputs": [
        {
          "internalType": "address",
          "name": "spender",
          "type": "address"
        },
        {
          "internalType": "uint256",
          "name": "subtractedValue",
          "type": "uint256"
        }
      ],
      "name": "decreaseAllowance",
      "outputs": [
        {
          "internalType": "bool",
          "name": "",
          "type": "bool"
        }
      ],
      "stateMutability": "nonpayable",
      "type": "function"
    },
    {
      "inputs": [],
      "name": "feeInTokens",
      "outputs": [
        {
          "internalType": "uint256",
          "name": "",
          "type": "uint256"
        }
      ],
      "stateMutability": "view",
      "type": "function"
    },
    {
      "inputs": [
        {
          "internalType": "bytes32",
          "name": "",
          "type": "bytes32"
        }
      ],
      "name": "games",
      "outputs": [
        {
          "internalType": "address",
          "name": "player",
          "type": "address"
        },
        {
          "internalType": "address",
          "name": "opponent",
          "type": "address"
        },
        {
          "internalType": "enum RockPaperScissors.Shape",
          "name": "opponentMove",
          "type": "uint8"
        },
        {
          "internalType": "enum RockPaperScissors.Payoff",
          "name": "payoff",
          "type": "uint8"
        },
        {
          "internalType": "uint256",
          "name": "playerWager",
          "type": "uint256"
        },
        {
          "internalType": "uint256",
          "name": "opponentWager",
          "type": "uint256"
        },
        {
          "internalType": "uint256",
          "name": "deadline",
          "type": "uint256"
        }
      ],
      "stateMutability": "view",
      "type": "function"
    },
    {
      "inputs": [
        {
          "internalType": "enum RockPaperScissors.Shape",
          "name": "move",
          "type": "uint8"
        },
        {
          "internalType": "bytes32",
          "name": "secret",
          "type": "bytes32"
        }
      ],
      "name": "generateGameId",
      "outputs": [
        {
          "internalType": "bytes32",
          "name": "hashedMove",
          "type": "bytes32"
        }
      ],
      "stateMutability": "view",
      "type": "function"
    },
    {
      "inputs": [
        {
          "internalType": "address",
          "name": "spender",
          "type": "address"
        },
        {
          "internalType": "uint256",
          "name": "addedValue",
          "type": "uint256"
        }
      ],
      "name": "increaseAllowance",
      "outputs": [
        {
          "internalType": "bool",
          "name": "",
          "type": "bool"
        }
      ],
      "stateMutability": "nonpayable",
      "type": "function"
    },
    {
      "inputs": [
        {
          "internalType": "bytes32",
          "name": "gameId",
          "type": "bytes32"
        },
        {
          "internalType": "enum RockPaperScissors.Shape",
          "name": "move",
          "type": "uint8"
        },
        {
          "internalType": "uint256",
          "name": "wager",
          "type": "uint256"
        },
        {
          "internalType": "bool",
          "name": "useWinnings",
          "type": "bool"
        }
      ],
      "name": "joinGame",
      "outputs": [],
      "stateMutability": "nonpayable",
      "type": "function"
    },
    {
      "inputs": [],
      "name": "kill",
      "outputs": [],
      "stateMutability": "nonpayable",
      "type": "function"
    },
    {
      "inputs": [],
      "name": "name",
      "outputs": [
        {
          "internalType": "string",
          "name": "",
          "type": "string"
        }
      ],
      "stateMutability": "view",
      "type": "function"
    },
    {
      "inputs": [],
      "name": "owner",
      "outputs": [
        {
          "internalType": "address",
          "name": "",
          "type": "address"
        }
      ],
      "stateMutability": "view",
      "type": "function"
    },
    {
      "inputs": [
        {
          "internalType": "address",
          "name": "",
          "type": "address"
        }
      ],
      "name": "players",
      "outputs": [
        {
          "internalType": "uint32",
          "name": "totalGames",
          "type": "uint32"
        },
        {
          "internalType": "uint32",
          "name": "wins",
          "type": "uint32"
        },
        {
          "internalType": "uint32",
          "name": "losses",
          "type": "uint32"
        },
        {
          "internalType": "uint32",
          "name": "ties",
          "type": "uint32"
        },
        {
          "internalType": "uint256",
          "name": "winnings",
          "type": "uint256"
        }
      ],
      "stateMutability": "view",
      "type": "function"
    },
    {
      "inputs": [],
      "name": "renounceOwnership",
      "outputs": [],
      "stateMutability": "nonpayable",
      "type": "function"
    },
    {
      "inputs": [
        {
          "internalType": "enum RockPaperScissors.Shape",
          "name": "move",
          "type": "uint8"
        },
        {
          "internalType": "bytes32",
          "name": "secret",
          "type": "bytes32"
        }
      ],
      "name": "revealMove",
      "outputs": [],
      "stateMutability": "nonpayable",
      "type": "function"
    },
    {
      "inputs": [],
      "name": "secondsUntilReveal",
      "outputs": [
        {
          "internalType": "uint256",
          "name": "",
          "type": "uint256"
        }
      ],
      "stateMutability": "view",
      "type": "function"
    },
    {
      "inputs": [
        {
          "internalType": "uint256",
          "name": "_feeInTokens",
          "type": "uint256"
        }
      ],
      "name": "setFeeInTokens",
      "outputs": [],
      "stateMutability": "nonpayable",
      "type": "function"
    },
    {
      "inputs": [
        {
          "internalType": "uint256",
          "name": "_secondsUntilReveal",
          "type": "uint256"
        }
      ],
      "name": "setSecondsUntilReveal",
      "outputs": [],
      "stateMutability": "nonpayable",
      "type": "function"
    },
    {
      "inputs": [],
      "name": "symbol",
      "outputs": [
        {
          "internalType": "string",
          "name": "",
          "type": "string"
        }
      ],
      "stateMutability": "view",
      "type": "function"
    },
    {
      "inputs": [],
      "name": "totalSupply",
      "outputs": [
        {
          "internalType": "uint256",
          "name": "",
          "type": "uint256"
        }
      ],
      "stateMutability": "view",
      "type": "function"
    },
    {
      "inputs": [
        {
          "internalType": "address",
          "name": "recipient",
          "type": "address"
        },
        {
          "internalType": "uint256",
          "name": "amount",
          "type": "uint256"
        }
      ],
      "name": "transfer",
      "outputs": [
        {
          "internalType": "bool",
          "name": "",
          "type": "bool"
        }
      ],
      "stateMutability": "nonpayable",
      "type": "function"
    },
    {
      "inputs": [
        {
          "internalType": "address",
          "name": "sender",
          "type": "address"
        },
        {
          "internalType": "address",
          "name": "recipient",
          "type": "address"
        },
        {
          "internalType": "uint256",
          "name": "amount",
          "type": "uint256"
        }
      ],
      "name": "transferFrom",
      "outputs": [
        {
          "internalType": "bool",
          "name": "",
          "type": "bool"
        }
      ],
      "stateMutability": "nonpayable",
      "type": "function"
    },
    {
      "inputs": [
        {
          "internalType": "address",
          "name": "newOwner",
          "type": "address"
        }
      ],
      "name": "transferOwnership",
      "outputs": [],
      "stateMutability": "nonpayable",
      "type": "function"
    }
  ],
  "bytecode": "0x6080604052603c600a55610e10600b55610e10600c5562069780600d553480156200002957600080fd5b50604051620060c1380380620060c183398181016040528101906200004f919062000785565b82828160039080519060200190620000699291906200064c565b508060049080519060200190620000829291906200064c565b505050620000a5620000996200014360201b60201c565b6200014b60201b60201c565b620000d76040518060800160405280604f81526020016200604c604f91398484846200021160201b6200275e1760201c565b6200011733620000ec620002bd60201b60201c565b600a620000fa919062000b30565b633b9aca006200010b919062000c6d565b620002c260201b60201c565b62000128816200043b60201b60201c565b6200013a603c620004bf60201b60201c565b50505062000f39565b600033905090565b6000600560009054906101000a900473ffffffffffffffffffffffffffffffffffffffff16905081600560006101000a81548173ffffffffffffffffffffffffffffffffffffffff021916908373ffffffffffffffffffffffffffffffffffffffff1602179055508173ffffffffffffffffffffffffffffffffffffffff168173ffffffffffffffffffffffffffffffffffffffff167f8be0079c531659141344cd1fd0a4f28419497f9722a3daafe3b4186f6b6457e060405160405180910390a35050565b620002b7848484846040516024016200022e9493929190620008d4565b6040516020818303038152906040527f9fd009f5000000000000000000000000000000000000000000000000000000007bffffffffffffffffffffffffffffffffffffffffffffffffffffffff19166020820180517bffffffffffffffffffffffffffffffffffffffffffffffffffffffff83818316178352505050506200057060201b60201c565b50505050565b600090565b600073ffffffffffffffffffffffffffffffffffffffff168273ffffffffffffffffffffffffffffffffffffffff16141562000335576040517f08c379a00000000000000000000000000000000000000000000000000000000081526004016200032c90620009be565b60405180910390fd5b62000349600083836200059960201b60201c565b80600260008282546200035d919062000a78565b92505081905550806000808473ffffffffffffffffffffffffffffffffffffffff1673ffffffffffffffffffffffffffffffffffffffff1681526020019081526020016000206000828254620003b4919062000a78565b925050819055508173ffffffffffffffffffffffffffffffffffffffff16600073ffffffffffffffffffffffffffffffffffffffff167fddf252ad1be2c89b69c2b068fc378daa952ba7f163c4a11628f55a4df523b3ef836040516200041b9190620009e0565b60405180910390a362000437600083836200059e60201b60201c565b5050565b600081101562000482576040517f08c379a000000000000000000000000000000000000000000000000000000000815260040162000479906200099c565b60405180910390fd5b620004b56040518060600160405280602681526020016200609b6026913960085483620005a360201b620028001760201c565b8060088190555050565b80600a5411158015620004d45750600b548111155b62000516576040517f08c379a00000000000000000000000000000000000000000000000000000000081526004016200050d906200097a565b60405180910390fd5b806009819055503373ffffffffffffffffffffffffffffffffffffffff167f45120568781a9d44303daca283d52567e7bd8f28ec2ae25c34bcf57d2f1487d982604051620005659190620009e0565b60405180910390a250565b60008151905060006a636f6e736f6c652e6c6f679050602083016000808483855afa5050505050565b505050565b505050565b62000647838383604051602401620005be9392919062000936565b6040516020818303038152906040527f969cdd03000000000000000000000000000000000000000000000000000000007bffffffffffffffffffffffffffffffffffffffffffffffffffffffff19166020820180517bffffffffffffffffffffffffffffffffffffffffffffffffffffffff83818316178352505050506200057060201b60201c565b505050565b8280546200065a9062000d1b565b90600052602060002090601f0160209004810192826200067e5760008555620006ca565b82601f106200069957805160ff1916838001178555620006ca565b82800160010185558215620006ca579182015b82811115620006c9578251825591602001919060010190620006ac565b5b509050620006d99190620006dd565b5090565b5b80821115620006f8576000816000905550600101620006de565b5090565b6000620007136200070d8462000a26565b620009fd565b9050828152602081018484840111156200072c57600080fd5b6200073984828562000ce5565b509392505050565b600082601f8301126200075357600080fd5b815162000765848260208601620006fc565b91505092915050565b6000815190506200077f8162000f1f565b92915050565b6000806000606084860312156200079b57600080fd5b600084015167ffffffffffffffff811115620007b657600080fd5b620007c48682870162000741565b935050602084015167ffffffffffffffff811115620007e257600080fd5b620007f08682870162000741565b925050604062000803868287016200076e565b9150509250925092565b60006200081a8262000a5c565b62000826818562000a67565b93506200083881856020860162000ce5565b620008438162000e14565b840191505092915050565b60006200085d60618362000a67565b91506200086a8262000e32565b608082019050919050565b60006200088460208362000a67565b9150620008918262000ecd565b602082019050919050565b6000620008ab601f8362000a67565b9150620008b88262000ef6565b602082019050919050565b620008ce8162000cce565b82525050565b60006080820190508181036000830152620008f081876200080d565b905081810360208301526200090681866200080d565b905081810360408301526200091c81856200080d565b90506200092d6060830184620008c3565b95945050505050565b600060608201905081810360008301526200095281866200080d565b9050620009636020830185620008c3565b620009726040830184620008c3565b949350505050565b6000602082019050818103600083015262000995816200084e565b9050919050565b60006020820190508181036000830152620009b78162000875565b9050919050565b60006020820190508181036000830152620009d9816200089c565b9050919050565b6000602082019050620009f76000830184620008c3565b92915050565b600062000a0962000a1c565b905062000a17828262000d51565b919050565b6000604051905090565b600067ffffffffffffffff82111562000a445762000a4362000de5565b5b62000a4f8262000e14565b9050602081019050919050565b600081519050919050565b600082825260208201905092915050565b600062000a858262000cce565b915062000a928362000cce565b9250827fffffffffffffffffffffffffffffffffffffffffffffffffffffffffffffffff0382111562000aca5762000ac962000d87565b5b828201905092915050565b6000808291508390505b600185111562000b275780860481111562000aff5762000afe62000d87565b5b600185161562000b0f5780820291505b808102905062000b1f8562000e25565b945062000adf565b94509492505050565b600062000b3d8262000cce565b915062000b4a8362000cd8565b925062000b797fffffffffffffffffffffffffffffffffffffffffffffffffffffffffffffffff848462000b81565b905092915050565b60008262000b93576001905062000c66565b8162000ba3576000905062000c66565b816001811462000bbc576002811462000bc75762000bfd565b600191505062000c66565b60ff84111562000bdc5762000bdb62000d87565b5b8360020a91508482111562000bf65762000bf562000d87565b5b5062000c66565b5060208310610133831016604e8410600b841016171562000c375782820a90508381111562000c315762000c3062000d87565b5b62000c66565b62000c46848484600162000ad5565b9250905081840481111562000c605762000c5f62000d87565b5b81810290505b9392505050565b600062000c7a8262000cce565b915062000c878362000cce565b9250817fffffffffffffffffffffffffffffffffffffffffffffffffffffffffffffffff048311821515161562000cc35762000cc262000d87565b5b828202905092915050565b6000819050919050565b600060ff82169050919050565b60005b8381101562000d0557808201518184015260208101905062000ce8565b8381111562000d15576000848401525b50505050565b6000600282049050600182168062000d3457607f821691505b6020821081141562000d4b5762000d4a62000db6565b5b50919050565b62000d5c8262000e14565b810181811067ffffffffffffffff8211171562000d7e5762000d7d62000de5565b5b80604052505050565b7f4e487b7100000000000000000000000000000000000000000000000000000000600052601160045260246000fd5b7f4e487b7100000000000000000000000000000000000000000000000000000000600052602260045260246000fd5b7f4e487b7100000000000000000000000000000000000000000000000000000000600052604160045260246000fd5b6000601f19601f8301169050919050565b60008160011c9050919050565b7f506c6561736520656e73757265207468652072657665616c2074696d6572206460008201527f75726174696f6e206973206265747765656e207468652061636365707461626c60208201527f65206d696e202836302920616e64206d6178202833363030292076616c75657360408201527f2e00000000000000000000000000000000000000000000000000000000000000606082015250565b7f546f6b656e206665652063616e6e6f74206265206c657373207468616e20302e600082015250565b7f45524332303a206d696e7420746f20746865207a65726f206164647265737300600082015250565b62000f2a8162000cce565b811462000f3657600080fd5b50565b6151038062000f496000396000f3fe608060405234801561001057600080fd5b50600436106101a95760003560e01c80638929c02f116100f9578063b10d281e11610097578063e2eb41ff11610071578063e2eb41ff146104bc578063f2fde38b146104f0578063f3fbc3fe1461050c578063f579f88214610528576101a9565b8063b10d281e14610452578063cc6d1d8314610470578063dd62ed3e1461048c576101a9565b806396b4d685116100d357806396b4d685146103ba578063a457c2d7146103d6578063a8f7d44214610406578063a9059cbb14610422576101a9565b80638929c02f1461034e5780638da5cb5b1461037e57806395d89b411461039c576101a9565b80633557731f1161016657806341c0e1b51161014057806341c0e1b5146102ee57806361b5547e146102f857806370a0823114610314578063715018a614610344576101a9565b80633557731f1461028457806339509351146102a25780633f7121b0146102d2576101a9565b806306fdde03146101ae578063095ea7b3146101cc57806309651cdb146101fc57806318160ddd1461021857806323b872dd14610236578063313ce56714610266575b600080fd5b6101b661055e565b6040516101c39190613c5e565b60405180910390f35b6101e660048036038101906101e1919061337f565b6105f0565b6040516101f39190613bba565b60405180910390f35b61021660048036038101906102119190613523565b61060e565b005b610220610696565b60405161022d9190614148565b60405180910390f35b610250600480360381019061024b9190613330565b6106a0565b60405161025d9190613bba565b60405180910390f35b61026e610798565b60405161027b91906141df565b60405180910390f35b61028c61079d565b6040516102999190614148565b60405180910390f35b6102bc60048036038101906102b7919061337f565b6107a3565b6040516102c99190613bba565b60405180910390f35b6102ec60048036038101906102e791906133e4565b61084f565b005b6102f6610ae8565b005b610312600480360381019061030d919061340d565b610bcc565b005b61032e600480360381019061032991906132cb565b610ec9565b60405161033b9190614148565b60405180910390f35b61034c610f11565b005b610368600480360381019061036391906134e7565b610f99565b6040516103759190613bd5565b60405180910390f35b6103866110f3565b6040516103939190613b07565b60405180910390f35b6103a461111d565b6040516103b19190613c5e565b60405180910390f35b6103d460048036038101906103cf91906133e4565b6111af565b005b6103f060048036038101906103eb919061337f565b611458565b6040516103fd9190613bba565b60405180910390f35b610420600480360381019061041b91906134e7565b611543565b005b61043c6004803603810190610437919061337f565b611fff565b6040516104499190613bba565b60405180910390f35b61045a61201d565b6040516104679190614148565b60405180910390f35b61048a60048036038101906104859190613523565b612023565b005b6104a660048036038101906104a191906132f4565b6120ab565b6040516104b39190614148565b60405180910390f35b6104d660048036038101906104d191906132cb565b612132565b6040516104e795949392919061418c565b60405180910390f35b61050a600480360381019061050591906132cb565b6121a8565b005b61052660048036038101906105219190613484565b6122a0565b005b610542600480360381019061053d91906133e4565b6126c2565b6040516105559796959493929190613b22565b60405180910390f35b60606003805461056d9061440a565b80601f01602080910402602001604051908101604052809291908181526020018280546105999061440a565b80156105e65780601f106105bb576101008083540402835291602001916105e6565b820191906000526020600020905b8154815290600101906020018083116105c957829003601f168201915b5050505050905090565b60006106046105fd61289f565b84846128a7565b6001905092915050565b61061661289f565b73ffffffffffffffffffffffffffffffffffffffff166106346110f3565b73ffffffffffffffffffffffffffffffffffffffff161461068a576040517f08c379a000000000000000000000000000000000000000000000000000000000815260040161068190614008565b60405180910390fd5b61069381612a72565b50565b6000600254905090565b60006106ad848484612ae5565b6000600160008673ffffffffffffffffffffffffffffffffffffffff1673ffffffffffffffffffffffffffffffffffffffff16815260200190815260200160002060006106f861289f565b73ffffffffffffffffffffffffffffffffffffffff1673ffffffffffffffffffffffffffffffffffffffff16815260200190815260200160002054905082811015610778576040517f08c379a000000000000000000000000000000000000000000000000000000000815260040161076f90613fe8565b60405180910390fd5b61078c8561078461289f565b8584036128a7565b60019150509392505050565b600090565b60095481565b60006108456107b061289f565b8484600160006107be61289f565b73ffffffffffffffffffffffffffffffffffffffff1673ffffffffffffffffffffffffffffffffffffffff16815260200190815260200160002060008873ffffffffffffffffffffffffffffffffffffffff1673ffffffffffffffffffffffffffffffffffffffff168152602001908152602001600020546108409190614216565b6128a7565b6001905092915050565b600060066000838152602001908152602001600020905060008160000160009054906101000a900473ffffffffffffffffffffffffffffffffffffffff169050600073ffffffffffffffffffffffffffffffffffffffff168173ffffffffffffffffffffffffffffffffffffffff1614156108ff576040517f08c379a00000000000000000000000000000000000000000000000000000000081526004016108f690613f88565b60405180910390fd5b3373ffffffffffffffffffffffffffffffffffffffff168173ffffffffffffffffffffffffffffffffffffffff161461096d576040517f08c379a000000000000000000000000000000000000000000000000000000000815260040161096490613f48565b60405180910390fd5b600060038111156109a7577f4e487b7100000000000000000000000000000000000000000000000000000000600052602160045260246000fd5b8260010160149054906101000a900460ff1660038111156109f1577f4e487b7100000000000000000000000000000000000000000000000000000000600052602160045260246000fd5b14610a31576040517f08c379a0000000000000000000000000000000000000000000000000000000008152600401610a2890613e88565b60405180910390fd5b42826004015410610a77576040517f08c379a0000000000000000000000000000000000000000000000000000000008152600401610a6e906140e8565b60405180910390fd5b600082600201549050610a8984612d66565b6000811115610a9e57610a9c8282611fff565b505b833373ffffffffffffffffffffffffffffffffffffffff167f446c14486e35961084570d43d2b5f86421f0d1f28709d612150f2660fa8eb7e760405160405180910390a350505050565b610af061289f565b73ffffffffffffffffffffffffffffffffffffffff16610b0e6110f3565b73ffffffffffffffffffffffffffffffffffffffff1614610b64576040517f08c379a0000000000000000000000000000000000000000000000000000000008152600401610b5b90614008565b60405180910390fd5b6000610b6e6110f3565b90508073ffffffffffffffffffffffffffffffffffffffff167fb0da82b42ce84fb762f70bf2ebd4bce1b743f863450eb0c902f1e0d0ee45c83660405160405180910390a28073ffffffffffffffffffffffffffffffffffffffff16ff5b600854610bd833610ec9565b1015610c19576040517f08c379a0000000000000000000000000000000000000000000000000000000008152600401610c1090613f28565b60405180910390fd5b600073ffffffffffffffffffffffffffffffffffffffff168473ffffffffffffffffffffffffffffffffffffffff161415610c89576040517f08c379a0000000000000000000000000000000000000000000000000000000008152600401610c80906140a8565b60405180910390fd5b6000603c84610c98919061426c565b905080600c5411158015610cae5750600d548111155b610ced576040517f08c379a0000000000000000000000000000000000000000000000000000000008152600401610ce490613e28565b60405180910390fd5b6000600660008881526020019081526020016000209050600073ffffffffffffffffffffffffffffffffffffffff168160000160009054906101000a900473ffffffffffffffffffffffffffffffffffffffff1673ffffffffffffffffffffffffffffffffffffffff1614610d97576040517f08c379a0000000000000000000000000000000000000000000000000000000008152600401610d8e90613f08565b60405180910390fd5b338160000160006101000a81548173ffffffffffffffffffffffffffffffffffffffff021916908373ffffffffffffffffffffffffffffffffffffffff160217905550858160010160006101000a81548173ffffffffffffffffffffffffffffffffffffffff021916908373ffffffffffffffffffffffffffffffffffffffff160217905550610e28338585612e36565b9350610e343085611fff565b5083816002018190555060008242610e4c9190614216565b90508082600401819055508673ffffffffffffffffffffffffffffffffffffffff16883373ffffffffffffffffffffffffffffffffffffffff167fae7ef1cccc943459691ffb6d7d7ae5654a190dc507f91fd8214782f6ffa9db7f8885604051610eb7929190614163565b60405180910390a45050505050505050565b60008060008373ffffffffffffffffffffffffffffffffffffffff1673ffffffffffffffffffffffffffffffffffffffff168152602001908152602001600020549050919050565b610f1961289f565b73ffffffffffffffffffffffffffffffffffffffff16610f376110f3565b73ffffffffffffffffffffffffffffffffffffffff1614610f8d576040517f08c379a0000000000000000000000000000000000000000000000000000000008152600401610f8490614008565b60405180910390fd5b610f976000612f7b565b565b60008073ffffffffffffffffffffffffffffffffffffffff163373ffffffffffffffffffffffffffffffffffffffff16141561100a576040517f08c379a000000000000000000000000000000000000000000000000000000000815260040161100190613d48565b60405180910390fd5b60006003811115611044577f4e487b7100000000000000000000000000000000000000000000000000000000600052602160045260246000fd5b83600381111561107d577f4e487b7100000000000000000000000000000000000000000000000000000000600052602160045260246000fd5b14156110be576040517f08c379a00000000000000000000000000000000000000000000000000000000081526004016110b590613da8565b60405180910390fd5b303384846040516020016110d59493929190613ab9565b60405160208183030381529060405280519060200120905092915050565b6000600560009054906101000a900473ffffffffffffffffffffffffffffffffffffffff16905090565b60606004805461112c9061440a565b80601f01602080910402602001604051908101604052809291908181526020018280546111589061440a565b80156111a55780601f1061117a576101008083540402835291602001916111a5565b820191906000526020600020905b81548152906001019060200180831161118857829003601f168201915b5050505050905090565b6000600660008381526020019081526020016000209050600073ffffffffffffffffffffffffffffffffffffffff168160000160009054906101000a900473ffffffffffffffffffffffffffffffffffffffff1673ffffffffffffffffffffffffffffffffffffffff16141561125a576040517f08c379a000000000000000000000000000000000000000000000000000000000815260040161125190614068565b60405180910390fd5b60006003811115611294577f4e487b7100000000000000000000000000000000000000000000000000000000600052602160045260246000fd5b8160010160149054906101000a900460ff1660038111156112de577f4e487b7100000000000000000000000000000000000000000000000000000000600052602160045260246000fd5b141561131f576040517f08c379a000000000000000000000000000000000000000000000000000000000815260040161131690613d88565b60405180910390fd5b42816004015410611365576040517f08c379a000000000000000000000000000000000000000000000000000000000815260040161135c90613fa8565b60405180910390fd5b60008160030154826002015461137b9190614216565b905060008260010160009054906101000a900473ffffffffffffffffffffffffffffffffffffffff16905060048360010160156101000a81548160ff021916908360048111156113f4577f4e487b7100000000000000000000000000000000000000000000000000000000600052602160045260246000fd5b0217905550600082111561140e5761140c8183611fff565b505b833373ffffffffffffffffffffffffffffffffffffffff167f9f870fb214082619510b2d8f37009c3da1d7ad5473b5853c0ad88663d18c70ad60405160405180910390a350505050565b6000806001600061146761289f565b73ffffffffffffffffffffffffffffffffffffffff1673ffffffffffffffffffffffffffffffffffffffff16815260200190815260200160002060008573ffffffffffffffffffffffffffffffffffffffff1673ffffffffffffffffffffffffffffffffffffffff16815260200190815260200160002054905082811015611524576040517f08c379a000000000000000000000000000000000000000000000000000000000815260040161151b90614108565b60405180910390fd5b61153861152f61289f565b858584036128a7565b600191505092915050565b600061154f8383610f99565b9050600060066000838152602001908152602001600020905060008160000160009054906101000a900473ffffffffffffffffffffffffffffffffffffffff169050600073ffffffffffffffffffffffffffffffffffffffff168173ffffffffffffffffffffffffffffffffffffffff161415611601576040517f08c379a00000000000000000000000000000000000000000000000000000000081526004016115f890613ea8565b60405180910390fd5b60008260010160149054906101000a900460ff16905060006003811115611651577f4e487b7100000000000000000000000000000000000000000000000000000000600052602160045260246000fd5b81600381111561168a577f4e487b7100000000000000000000000000000000000000000000000000000000600052602160045260246000fd5b14156116cb576040517f08c379a00000000000000000000000000000000000000000000000000000000081526004016116c290613ee8565b60405180910390fd5b61170a6040518060400160405280601581526020017f426c6f636b2074696d657374616d70206973202564000000000000000000000081525042613041565b61174d6040518060400160405280601381526020017f47616d6520646561646c696e65206973202564000000000000000000000000008152508460040154613041565b8260040154421115611794576040517f08c379a000000000000000000000000000000000000000000000000000000000815260040161178b90613e08565b60405180910390fd5b600083600201549050600084600301549050600081836117b49190614216565b905060008660010160009054906101000a900473ffffffffffffffffffffffffffffffffffffffff16905060006001600387600381111561181e577f4e487b7100000000000000000000000000000000000000000000000000000000600052602160045260246000fd5b8d6003811115611857577f4e487b7100000000000000000000000000000000000000000000000000000000600052602160045260246000fd5b60036118639190614216565b61186d91906142c6565b61187791906144a9565b6118819190614216565b60048111156118b9577f4e487b7100000000000000000000000000000000000000000000000000000000600052602160045260246000fd5b9050808860010160156101000a81548160ff02191690836004811115611908577f4e487b7100000000000000000000000000000000000000000000000000000000600052602160045260246000fd5b021790555060016004811115611947577f4e487b7100000000000000000000000000000000000000000000000000000000600052602160045260246000fd5b816004811115611980577f4e487b7100000000000000000000000000000000000000000000000000000000600052602160045260246000fd5b1415611aa15761199087866130dd565b61199a82856130dd565b600760008873ffffffffffffffffffffffffffffffffffffffff1673ffffffffffffffffffffffffffffffffffffffff168152602001908152602001600020600001600c81819054906101000a900463ffffffff16809291906119fc9061443c565b91906101000a81548163ffffffff021916908363ffffffff16021790555050600760008373ffffffffffffffffffffffffffffffffffffffff1673ffffffffffffffffffffffffffffffffffffffff168152602001908152602001600020600001600c81819054906101000a900463ffffffff1680929190611a7d9061443c565b91906101000a81548163ffffffff021916908363ffffffff16021790555050611e9f565b60026004811115611adb577f4e487b7100000000000000000000000000000000000000000000000000000000600052602160045260246000fd5b816004811115611b14577f4e487b7100000000000000000000000000000000000000000000000000000000600052602160045260246000fd5b1415611c8457611b2487846130dd565b600760008873ffffffffffffffffffffffffffffffffffffffff1673ffffffffffffffffffffffffffffffffffffffff168152602001908152602001600020600001600481819054906101000a900463ffffffff1680929190611b869061443c565b91906101000a81548163ffffffff021916908363ffffffff1602179055505082600760008973ffffffffffffffffffffffffffffffffffffffff1673ffffffffffffffffffffffffffffffffffffffff1681526020019081526020016000206001016000828254611bf79190614216565b92505081905550600760008373ffffffffffffffffffffffffffffffffffffffff1673ffffffffffffffffffffffffffffffffffffffff168152602001908152602001600020600001600881819054906101000a900463ffffffff1680929190611c609061443c565b91906101000a81548163ffffffff021916908363ffffffff16021790555050611e9e565b60036004811115611cbe577f4e487b7100000000000000000000000000000000000000000000000000000000600052602160045260246000fd5b816004811115611cf7577f4e487b7100000000000000000000000000000000000000000000000000000000600052602160045260246000fd5b1415611e6757611d0782846130dd565b600760008373ffffffffffffffffffffffffffffffffffffffff1673ffffffffffffffffffffffffffffffffffffffff168152602001908152602001600020600001600481819054906101000a900463ffffffff1680929190611d699061443c565b91906101000a81548163ffffffff021916908363ffffffff1602179055505082600760008473ffffffffffffffffffffffffffffffffffffffff1673ffffffffffffffffffffffffffffffffffffffff1681526020019081526020016000206001016000828254611dda9190614216565b92505081905550600760008873ffffffffffffffffffffffffffffffffffffffff1673ffffffffffffffffffffffffffffffffffffffff168152602001908152602001600020600001600881819054906101000a900463ffffffff1680929190611e439061443c565b91906101000a81548163ffffffff021916908363ffffffff16021790555050611e9d565b6000611e9c577f4e487b7100000000000000000000000000000000000000000000000000000000600052600160045260246000fd5b5b5b5b600760008873ffffffffffffffffffffffffffffffffffffffff1673ffffffffffffffffffffffffffffffffffffffff168152602001908152602001600020600001600081819054906101000a900463ffffffff1680929190611f019061443c565b91906101000a81548163ffffffff021916908363ffffffff16021790555050600760008373ffffffffffffffffffffffffffffffffffffffff1673ffffffffffffffffffffffffffffffffffffffff168152602001908152602001600020600001600081819054906101000a900463ffffffff1680929190611f829061443c565b91906101000a81548163ffffffff021916908363ffffffff16021790555050883373ffffffffffffffffffffffffffffffffffffffff167f822c7517d2fff3bb3f5d2335f2b88bdc22fc0bc73c4267ac62928bcf60738cd88d84604051611fea929190613c35565b60405180910390a35050505050505050505050565b600061201361200c61289f565b8484612ae5565b6001905092915050565b60085481565b61202b61289f565b73ffffffffffffffffffffffffffffffffffffffff166120496110f3565b73ffffffffffffffffffffffffffffffffffffffff161461209f576040517f08c379a000000000000000000000000000000000000000000000000000000000815260040161209690614008565b60405180910390fd5b6120a88161316f565b50565b6000600160008473ffffffffffffffffffffffffffffffffffffffff1673ffffffffffffffffffffffffffffffffffffffff16815260200190815260200160002060008373ffffffffffffffffffffffffffffffffffffffff1673ffffffffffffffffffffffffffffffffffffffff16815260200190815260200160002054905092915050565b60076020528060005260406000206000915090508060000160009054906101000a900463ffffffff16908060000160049054906101000a900463ffffffff16908060000160089054906101000a900463ffffffff169080600001600c9054906101000a900463ffffffff16908060010154905085565b6121b061289f565b73ffffffffffffffffffffffffffffffffffffffff166121ce6110f3565b73ffffffffffffffffffffffffffffffffffffffff1614612224576040517f08c379a000000000000000000000000000000000000000000000000000000000815260040161221b90614008565b60405180910390fd5b600073ffffffffffffffffffffffffffffffffffffffff168173ffffffffffffffffffffffffffffffffffffffff161415612294576040517f08c379a000000000000000000000000000000000000000000000000000000000815260040161228b90613dc8565b60405180910390fd5b61229d81612f7b565b50565b6008546122ac33610ec9565b10156122ed576040517f08c379a00000000000000000000000000000000000000000000000000000000081526004016122e490613f68565b60405180910390fd5b60006003811115612327577f4e487b7100000000000000000000000000000000000000000000000000000000600052602160045260246000fd5b836003811115612360577f4e487b7100000000000000000000000000000000000000000000000000000000600052602160045260246000fd5b14156123a1576040517f08c379a000000000000000000000000000000000000000000000000000000000815260040161239890613da8565b60405180910390fd5b6000600660008681526020019081526020016000209050600073ffffffffffffffffffffffffffffffffffffffff168160000160009054906101000a900473ffffffffffffffffffffffffffffffffffffffff1673ffffffffffffffffffffffffffffffffffffffff16141561244c576040517f08c379a000000000000000000000000000000000000000000000000000000000815260040161244390613f88565b60405180910390fd5b60008160010160009054906101000a900473ffffffffffffffffffffffffffffffffffffffff1690503373ffffffffffffffffffffffffffffffffffffffff168173ffffffffffffffffffffffffffffffffffffffff16146124e3576040517f08c379a00000000000000000000000000000000000000000000000000000000081526004016124da90614128565b60405180910390fd5b6000600381111561251d577f4e487b7100000000000000000000000000000000000000000000000000000000600052602160045260246000fd5b8260010160149054906101000a900460ff166003811115612567577f4e487b7100000000000000000000000000000000000000000000000000000000600052602160045260246000fd5b146125a7576040517f08c379a000000000000000000000000000000000000000000000000000000000815260040161259e906140c8565b60405180910390fd5b81600401544211156125ee576040517f08c379a00000000000000000000000000000000000000000000000000000000081526004016125e590613e48565b60405180910390fd5b848260010160146101000a81548160ff0219169083600381111561263b577f4e487b7100000000000000000000000000000000000000000000000000000000600052602160045260246000fd5b021790555061264b338585612e36565b93506126573085611fff565b508382600301819055506000600954426126719190614216565b90508083600401819055507fbea699eabb9f35117986c8b673afc934d08142bce1d6183cac985fea93e87181878787846040516126b19493929190613bf0565b60405180910390a150505050505050565b60066020528060005260406000206000915090508060000160009054906101000a900473ffffffffffffffffffffffffffffffffffffffff16908060010160009054906101000a900473ffffffffffffffffffffffffffffffffffffffff16908060010160149054906101000a900460ff16908060010160159054906101000a900460ff16908060020154908060030154908060040154905087565b6127fa848484846040516024016127789493929190613c80565b6040516020818303038152906040527f9fd009f5000000000000000000000000000000000000000000000000000000007bffffffffffffffffffffffffffffffffffffffffffffffffffffffff19166020820180517bffffffffffffffffffffffffffffffffffffffffffffffffffffffff838183161783525050505061321a565b50505050565b61289a83838360405160240161281893929190613d0a565b6040516020818303038152906040527f969cdd03000000000000000000000000000000000000000000000000000000007bffffffffffffffffffffffffffffffffffffffffffffffffffffffff19166020820180517bffffffffffffffffffffffffffffffffffffffffffffffffffffffff838183161783525050505061321a565b505050565b600033905090565b600073ffffffffffffffffffffffffffffffffffffffff168373ffffffffffffffffffffffffffffffffffffffff161415612917576040517f08c379a000000000000000000000000000000000000000000000000000000000815260040161290e90614088565b60405180910390fd5b600073ffffffffffffffffffffffffffffffffffffffff168273ffffffffffffffffffffffffffffffffffffffff161415612987576040517f08c379a000000000000000000000000000000000000000000000000000000000815260040161297e90613de8565b60405180910390fd5b80600160008573ffffffffffffffffffffffffffffffffffffffff1673ffffffffffffffffffffffffffffffffffffffff16815260200190815260200160002060008473ffffffffffffffffffffffffffffffffffffffff1673ffffffffffffffffffffffffffffffffffffffff168152602001908152602001600020819055508173ffffffffffffffffffffffffffffffffffffffff168373ffffffffffffffffffffffffffffffffffffffff167f8c5be1e5ebec7d5bd14f71427d1e84f3dd0314c0f7b2291e5b200ac8c7c3b92583604051612a659190614148565b60405180910390a3505050565b6000811015612ab6576040517f08c379a0000000000000000000000000000000000000000000000000000000008152600401612aad90613fc8565b60405180910390fd5b612adb6040518060600160405280602681526020016150a86026913960085483612800565b8060088190555050565b600073ffffffffffffffffffffffffffffffffffffffff168373ffffffffffffffffffffffffffffffffffffffff161415612b55576040517f08c379a0000000000000000000000000000000000000000000000000000000008152600401612b4c90614048565b60405180910390fd5b600073ffffffffffffffffffffffffffffffffffffffff168273ffffffffffffffffffffffffffffffffffffffff161415612bc5576040517f08c379a0000000000000000000000000000000000000000000000000000000008152600401612bbc90613d68565b60405180910390fd5b612bd0838383613243565b60008060008573ffffffffffffffffffffffffffffffffffffffff1673ffffffffffffffffffffffffffffffffffffffff16815260200190815260200160002054905081811015612c56576040517f08c379a0000000000000000000000000000000000000000000000000000000008152600401612c4d90613e68565b60405180910390fd5b8181036000808673ffffffffffffffffffffffffffffffffffffffff1673ffffffffffffffffffffffffffffffffffffffff16815260200190815260200160002081905550816000808573ffffffffffffffffffffffffffffffffffffffff1673ffffffffffffffffffffffffffffffffffffffff1681526020019081526020016000206000828254612ce99190614216565b925050819055508273ffffffffffffffffffffffffffffffffffffffff168473ffffffffffffffffffffffffffffffffffffffff167fddf252ad1be2c89b69c2b068fc378daa952ba7f163c4a11628f55a4df523b3ef84604051612d4d9190614148565b60405180910390a3612d60848484613248565b50505050565b600060066000838152602001908152602001600020905060008160010160006101000a81548173ffffffffffffffffffffffffffffffffffffffff021916908373ffffffffffffffffffffffffffffffffffffffff16021790555060008160010160146101000a81548160ff02191690836003811115612e0f577f4e487b7100000000000000000000000000000000000000000000000000000000600052602160045260246000fd5b02179055506000816002018190555060008160030181905550600081600401819055505050565b6000612e4184610ec9565b831115612e83576040517f08c379a0000000000000000000000000000000000000000000000000000000008152600401612e7a90614028565b60405180910390fd5b8290508115612f74576000600760008673ffffffffffffffffffffffffffffffffffffffff1673ffffffffffffffffffffffffffffffffffffffff16815260200190815260200160002060010154118015612f285750600760008573ffffffffffffffffffffffffffffffffffffffff1673ffffffffffffffffffffffffffffffffffffffff16815260200190815260200160002060010154612f2585610ec9565b10155b15612f7357600760008573ffffffffffffffffffffffffffffffffffffffff1673ffffffffffffffffffffffffffffffffffffffff1681526020019081526020016000206001015490505b5b9392505050565b6000600560009054906101000a900473ffffffffffffffffffffffffffffffffffffffff16905081600560006101000a81548173ffffffffffffffffffffffffffffffffffffffff021916908373ffffffffffffffffffffffffffffffffffffffff1602179055508173ffffffffffffffffffffffffffffffffffffffff168173ffffffffffffffffffffffffffffffffffffffff167f8be0079c531659141344cd1fd0a4f28419497f9722a3daafe3b4186f6b6457e060405160405180910390a35050565b6130d98282604051602401613057929190613cda565b6040516020818303038152906040527f9710a9d0000000000000000000000000000000000000000000000000000000007bffffffffffffffffffffffffffffffffffffffffffffffffffffffff19166020820180517bffffffffffffffffffffffffffffffffffffffffffffffffffffffff838183161783525050505061321a565b5050565b3073ffffffffffffffffffffffffffffffffffffffff1663a9059cbb83836040518363ffffffff1660e01b8152600401613118929190613b91565b602060405180830381600087803b15801561313257600080fd5b505af1158015613146573d6000803e3d6000fd5b505050506040513d601f19601f8201168201806040525081019061316a91906133bb565b505050565b80600a54111580156131835750600b548111155b6131c2576040517f08c379a00000000000000000000000000000000000000000000000000000000081526004016131b990613ec8565b60405180910390fd5b806009819055503373ffffffffffffffffffffffffffffffffffffffff167f45120568781a9d44303daca283d52567e7bd8f28ec2ae25c34bcf57d2f1487d98260405161320f9190614148565b60405180910390a250565b60008151905060006a636f6e736f6c652e6c6f679050602083016000808483855afa5050505050565b505050565b505050565b60008135905061325c8161503b565b92915050565b60008135905061327181615052565b92915050565b60008151905061328681615052565b92915050565b60008135905061329b81615069565b92915050565b6000813590506132b081615080565b92915050565b6000813590506132c581615090565b92915050565b6000602082840312156132dd57600080fd5b60006132eb8482850161324d565b91505092915050565b6000806040838503121561330757600080fd5b60006133158582860161324d565b92505060206133268582860161324d565b9150509250929050565b60008060006060848603121561334557600080fd5b60006133538682870161324d565b93505060206133648682870161324d565b9250506040613375868287016132b6565b9150509250925092565b6000806040838503121561339257600080fd5b60006133a08582860161324d565b92505060206133b1858286016132b6565b9150509250929050565b6000602082840312156133cd57600080fd5b60006133db84828501613277565b91505092915050565b6000602082840312156133f657600080fd5b60006134048482850161328c565b91505092915050565b600080600080600060a0868803121561342557600080fd5b60006134338882890161328c565b95505060206134448882890161324d565b9450506040613455888289016132b6565b9350506060613466888289016132b6565b925050608061347788828901613262565b9150509295509295909350565b6000806000806080858703121561349a57600080fd5b60006134a88782880161328c565b94505060206134b9878288016132a1565b93505060406134ca878288016132b6565b92505060606134db87828801613262565b91505092959194509250565b600080604083850312156134fa57600080fd5b6000613508858286016132a1565b92505060206135198582860161328c565b9150509250929050565b60006020828403121561353557600080fd5b6000613543848285016132b6565b91505092915050565b613555816142fa565b82525050565b61356c613567826142fa565b614469565b82525050565b61357b8161430c565b82525050565b61358a81614318565b82525050565b6135a161359c82614318565b61447b565b82525050565b6135b86135b38261438f565b614469565b82525050565b6135c7816143b3565b82525050565b6135d6816143c5565b82525050565b6135ed6135e8826143c5565b614497565b82525050565b60006135fe826141fa565b6136088185614205565b93506136188185602086016143d7565b61362181614596565b840191505092915050565b6000613639601783614205565b9150613644826145c1565b602082019050919050565b600061365c602383614205565b9150613667826145ea565b604082019050919050565b600061367f602583614205565b915061368a82614639565b604082019050919050565b60006136a2601c83614205565b91506136ad82614688565b602082019050919050565b60006136c5602683614205565b91506136d0826146b1565b604082019050919050565b60006136e8602283614205565b91506136f382614700565b604082019050919050565b600061370b606483614205565b91506137168261474f565b608082019050919050565b600061372e606e83614205565b9150613739826147ea565b608082019050919050565b6000613751603383614205565b915061375c82614885565b604082019050919050565b6000613774602683614205565b915061377f826148d4565b604082019050919050565b6000613797604583614205565b91506137a282614923565b606082019050919050565b60006137ba603e83614205565b91506137c582614998565b604082019050919050565b60006137dd606183614205565b91506137e8826149e7565b608082019050919050565b6000613800602983614205565b915061380b82614a82565b604082019050919050565b6000613823604b83614205565b915061382e82614ad1565b606082019050919050565b6000613846603083614205565b915061385182614b46565b604082019050919050565b6000613869604583614205565b915061387482614b95565b606082019050919050565b600061388c602a83614205565b915061389782614c0a565b604082019050919050565b60006138af601983614205565b91506138ba82614c59565b602082019050919050565b60006138d2603a83614205565b91506138dd82614c82565b604082019050919050565b60006138f5602083614205565b915061390082614cd1565b602082019050919050565b6000613918602883614205565b915061392382614cfa565b604082019050919050565b600061393b602083614205565b915061394682614d49565b602082019050919050565b600061395e603a83614205565b915061396982614d72565b604082019050919050565b6000613981602583614205565b915061398c82614dc1565b604082019050919050565b60006139a4601883614205565b91506139af82614e10565b602082019050919050565b60006139c7602483614205565b91506139d282614e39565b604082019050919050565b60006139ea601d83614205565b91506139f582614e88565b602082019050919050565b6000613a0d603383614205565b9150613a1882614eb1565b604082019050919050565b6000613a30602683614205565b9150613a3b82614f00565b604082019050919050565b6000613a53602583614205565b9150613a5e82614f4f565b604082019050919050565b6000613a76604f83614205565b9150613a8182614f9e565b606082019050919050565b613a9581614368565b82525050565b613aa481614372565b82525050565b613ab381614382565b82525050565b6000613ac582876135a7565b601482019150613ad5828661355b565b601482019150613ae582856135dc565b600182019150613af58284613590565b60208201915081905095945050505050565b6000602082019050613b1c600083018461354c565b92915050565b600060e082019050613b37600083018a61354c565b613b44602083018961354c565b613b5160408301886135cd565b613b5e60608301876135be565b613b6b6080830186613a8c565b613b7860a0830185613a8c565b613b8560c0830184613a8c565b98975050505050505050565b6000604082019050613ba6600083018561354c565b613bb36020830184613a8c565b9392505050565b6000602082019050613bcf6000830184613572565b92915050565b6000602082019050613bea6000830184613581565b92915050565b6000608082019050613c056000830187613581565b613c1260208301866135cd565b613c1f6040830185613a8c565b613c2c6060830184613a8c565b95945050505050565b6000604082019050613c4a60008301856135cd565b613c5760208301846135be565b9392505050565b60006020820190508181036000830152613c7881846135f3565b905092915050565b60006080820190508181036000830152613c9a81876135f3565b90508181036020830152613cae81866135f3565b90508181036040830152613cc281856135f3565b9050613cd16060830184613a8c565b95945050505050565b60006040820190508181036000830152613cf481856135f3565b9050613d036020830184613a8c565b9392505050565b60006060820190508181036000830152613d2481866135f3565b9050613d336020830185613a8c565b613d406040830184613a8c565b949350505050565b60006020820190508181036000830152613d618161362c565b9050919050565b60006020820190508181036000830152613d818161364f565b9050919050565b60006020820190508181036000830152613da181613672565b9050919050565b60006020820190508181036000830152613dc181613695565b9050919050565b60006020820190508181036000830152613de1816136b8565b9050919050565b60006020820190508181036000830152613e01816136db565b9050919050565b60006020820190508181036000830152613e21816136fe565b9050919050565b60006020820190508181036000830152613e4181613721565b9050919050565b60006020820190508181036000830152613e6181613744565b9050919050565b60006020820190508181036000830152613e8181613767565b9050919050565b60006020820190508181036000830152613ea18161378a565b9050919050565b60006020820190508181036000830152613ec1816137ad565b9050919050565b60006020820190508181036000830152613ee1816137d0565b9050919050565b60006020820190508181036000830152613f01816137f3565b9050919050565b60006020820190508181036000830152613f2181613816565b9050919050565b60006020820190508181036000830152613f4181613839565b9050919050565b60006020820190508181036000830152613f618161385c565b9050919050565b60006020820190508181036000830152613f818161387f565b9050919050565b60006020820190508181036000830152613fa1816138a2565b9050919050565b60006020820190508181036000830152613fc1816138c5565b9050919050565b60006020820190508181036000830152613fe1816138e8565b9050919050565b600060208201905081810360008301526140018161390b565b9050919050565b600060208201905081810360008301526140218161392e565b9050919050565b6000602082019050818103600083015261404181613951565b9050919050565b6000602082019050818103600083015261406181613974565b9050919050565b6000602082019050818103600083015261408181613997565b9050919050565b600060208201905081810360008301526140a1816139ba565b9050919050565b600060208201905081810360008301526140c1816139dd565b9050919050565b600060208201905081810360008301526140e181613a00565b9050919050565b6000602082019050818103600083015261410181613a23565b9050919050565b6000602082019050818103600083015261412181613a46565b9050919050565b6000602082019050818103600083015261414181613a69565b9050919050565b600060208201905061415d6000830184613a8c565b92915050565b60006040820190506141786000830185613a8c565b6141856020830184613a8c565b9392505050565b600060a0820190506141a16000830188613a9b565b6141ae6020830187613a9b565b6141bb6040830186613a9b565b6141c86060830185613a9b565b6141d56080830184613a8c565b9695505050505050565b60006020820190506141f46000830184613aaa565b92915050565b600081519050919050565b600082825260208201905092915050565b600061422182614368565b915061422c83614368565b9250827fffffffffffffffffffffffffffffffffffffffffffffffffffffffffffffffff03821115614261576142606144da565b5b828201905092915050565b600061427782614368565b915061428283614368565b9250817fffffffffffffffffffffffffffffffffffffffffffffffffffffffffffffffff04831182151516156142bb576142ba6144da565b5b828202905092915050565b60006142d182614368565b91506142dc83614368565b9250828210156142ef576142ee6144da565b5b828203905092915050565b600061430582614348565b9050919050565b60008115159050919050565b6000819050919050565b600081905061433082615013565b919050565b600081905061434382615027565b919050565b600073ffffffffffffffffffffffffffffffffffffffff82169050919050565b6000819050919050565b600063ffffffff82169050919050565b600060ff82169050919050565b600061439a826143a1565b9050919050565b60006143ac82614348565b9050919050565b60006143be82614322565b9050919050565b60006143d082614335565b9050919050565b60005b838110156143f55780820151818401526020810190506143da565b83811115614404576000848401525b50505050565b6000600282049050600182168061442257607f821691505b6020821081141561443657614435614567565b5b50919050565b600061444782614372565b915063ffffffff82141561445e5761445d6144da565b5b600182019050919050565b600061447482614485565b9050919050565b6000819050919050565b6000614490826145b4565b9050919050565b60006144a2826145a7565b9050919050565b60006144b482614368565b91506144bf83614368565b9250826144cf576144ce614509565b5b828206905092915050565b7f4e487b7100000000000000000000000000000000000000000000000000000000600052601160045260246000fd5b7f4e487b7100000000000000000000000000000000000000000000000000000000600052601260045260246000fd5b7f4e487b7100000000000000000000000000000000000000000000000000000000600052602160045260246000fd5b7f4e487b7100000000000000000000000000000000000000000000000000000000600052602260045260246000fd5b6000601f19601f8301169050919050565b60008160f81b9050919050565b60008160601b9050919050565b7f496e76616c69642073656e64657220616464726573732e000000000000000000600082015250565b7f45524332303a207472616e7366657220746f20746865207a65726f206164647260008201527f6573730000000000000000000000000000000000000000000000000000000000602082015250565b7f4f70706f6e656e7420686173206e6f7420796574206a6f696e6564207468652060008201527f67616d652e000000000000000000000000000000000000000000000000000000602082015250565b7f4e4f4e45206973206e6f7420616e20616c6c6f776564206d6f76652e00000000600082015250565b7f4f776e61626c653a206e6577206f776e657220697320746865207a65726f206160008201527f6464726573730000000000000000000000000000000000000000000000000000602082015250565b7f45524332303a20617070726f766520746f20746865207a65726f20616464726560008201527f7373000000000000000000000000000000000000000000000000000000000000602082015250565b7f54686520646561646c696e6520666f72207468652072657665616c206861732060008201527f657870697265642e20546865206f70706f6e656e74206d6179206f72206d617960208201527f206e6f7420636c61696d2074686520746f74616c20616d6f756e74207761676560408201527f7265642e00000000000000000000000000000000000000000000000000000000606082015250565b7f506c6561736520656e73757265207468652074696d65206c65667420746f206a60008201527f6f696e207468652067616d65206973206265747765656e20746865206163636560208201527f707461626c65206d696e20283630206d696e2920616e64206d6178202837323060408201527f30206d696e292076616c7565732e000000000000000000000000000000000000606082015250565b7f54686520646561646c696e6520746f206a6f696e20746869732067616d65206860008201527f617320616c726561647920657870697265642e00000000000000000000000000602082015250565b7f45524332303a207472616e7366657220616d6f756e742065786365656473206260008201527f616c616e63650000000000000000000000000000000000000000000000000000602082015250565b7f556e61626c6520746f2063616e63656c3b20746865206f70706f6e656e74206960008201527f7320616c72656164792070617274696369706174696e6720696e20746869732060208201527f67616d652e000000000000000000000000000000000000000000000000000000604082015250565b7f506c61796572206d6f7665206f722073656372657420617267756d656e74206960008201527f6e636f72726563743a2067616d6520646f6573206e6f742065786973742e0000602082015250565b7f506c6561736520656e73757265207468652072657665616c2074696d6572206460008201527f75726174696f6e206973206265747765656e207468652061636365707461626c60208201527f65206d696e202836302920616e64206d6178202833363030292076616c75657360408201527f2e00000000000000000000000000000000000000000000000000000000000000606082015250565b7f546865206f70706f6e656e7420686173206e6f7420796574206a6f696e65642060008201527f7468652067616d652e0000000000000000000000000000000000000000000000602082015250565b7f546869732067616d6520616c7265616479206578697374732e2055736520612060008201527f646966666572656e742073656372657420616e642067656e657261746520612060208201527f6e65772067616d6549642e000000000000000000000000000000000000000000604082015250565b7f496e73756666696369656e7420746f6b656e2062616c616e636520746f20637260008201527f656174652061206e65772067616d652e00000000000000000000000000000000602082015250565b7f506c61796572206973206e6f7420706c6179657220666f72207468697320676160008201527f6d653b206e6f74207065726d697474656420746f2063616e63656c207468652060208201527f67616d652e000000000000000000000000000000000000000000000000000000604082015250565b7f496e73756666696369656e7420746f6b656e2062616c616e636520746f206a6f60008201527f696e20612067616d652e00000000000000000000000000000000000000000000602082015250565b7f546869732067616d6520646f6573206e6f742065786973742e00000000000000600082015250565b7f54686520646561646c696e6520666f722072657665616c20666f72207468697360008201527f2067616d6520686173206e6f742079657420657870697265642e000000000000602082015250565b7f546f6b656e206665652063616e6e6f74206265206c657373207468616e20302e600082015250565b7f45524332303a207472616e7366657220616d6f756e742065786365656473206160008201527f6c6c6f77616e6365000000000000000000000000000000000000000000000000602082015250565b7f4f776e61626c653a2063616c6c6572206973206e6f7420746865206f776e6572600082015250565b7f506c6179657220646f65736e2774206861766520656e6f75676820746f6b656e60008201527f7320666f722074686973207761676572656420616d6f756e742e000000000000602082015250565b7f45524332303a207472616e736665722066726f6d20746865207a65726f20616460008201527f6472657373000000000000000000000000000000000000000000000000000000602082015250565b7f546869732067616d6520646f6573206e6f742065786973740000000000000000600082015250565b7f45524332303a20617070726f76652066726f6d20746865207a65726f2061646460008201527f7265737300000000000000000000000000000000000000000000000000000000602082015250565b7f4e6f7420612076616c6964206f70706f6e656e7420616464726573732e000000600082015250565b7f546865206f70706f6e656e7420697320616c726561647920706172746963697060008201527f6174696e6720696e20746869732067616d652e00000000000000000000000000602082015250565b7f446561646c696e6520666f72206a6f696e20686173206e6f742079657420657860008201527f70697265642e0000000000000000000000000000000000000000000000000000602082015250565b7f45524332303a2064656372656173656420616c6c6f77616e63652062656c6f7760008201527f207a65726f000000000000000000000000000000000000000000000000000000602082015250565b7f5468652073656e64657227732061646472657373206973206e6f74207468652060008201527f6f70706f6e656e7420616464726573732073706563696669656420627920746860208201527f652067616d652063726561746f722e0000000000000000000000000000000000604082015250565b6005811061502457615023614538565b5b50565b6004811061503857615037614538565b5b50565b615044816142fa565b811461504f57600080fd5b50565b61505b8161430c565b811461506657600080fd5b50565b61507281614318565b811461507d57600080fd5b50565b6004811061508d57600080fd5b50565b61509981614368565b81146150a457600080fd5b5056fe4368616e67696e6720666565496e546f6b656e732066726f6d202725642720746f2027256427a26469706673582212200b53ddcef1c1f28e8730e7fd3b26a3a353394461368236b3a3c86527474255b264736f6c634300080400334465706c6f79696e67206120526f636b506170657253636973736f727320636f6e74726163742077697468206e616d652025732c2073796d626f6c2025732c205f666565496e546f6b656e732025644368616e67696e6720666565496e546f6b656e732066726f6d202725642720746f2027256427",
  "linkReferences": {},
  "deployedLinkReferences": {}
}